{
  "_format": "hh-sol-artifact-1",
  "contractName": "TokenVault",
  "sourceName": "contracts/CompoundingDispensingVault.sol",
  "abi": [
    {
      "inputs": [
        {
          "internalType": "uint32",
          "name": "_destination",
          "type": "uint32"
        }
      ],
      "stateMutability": "nonpayable",
      "type": "constructor"
    },
    {
      "anonymous": false,
      "inputs": [
        {
          "indexed": true,
          "internalType": "uint32",
          "name": "domain",
          "type": "uint32"
        },
        {
          "indexed": false,
          "internalType": "uint256",
          "name": "gas",
          "type": "uint256"
        }
      ],
      "name": "DestinationGasSet",
      "type": "event"
    },
    {
      "anonymous": false,
      "inputs": [
        {
          "indexed": false,
          "internalType": "uint8",
          "name": "version",
          "type": "uint8"
        }
      ],
      "name": "Initialized",
      "type": "event"
    },
    {
      "anonymous": false,
      "inputs": [
        {
          "indexed": true,
          "internalType": "address",
          "name": "interchainGasPaymaster",
          "type": "address"
        }
      ],
      "name": "InterchainGasPaymasterSet",
      "type": "event"
    },
    {
      "anonymous": false,
      "inputs": [
        {
          "indexed": true,
          "internalType": "address",
          "name": "module",
          "type": "address"
        }
      ],
      "name": "InterchainSecurityModuleSet",
      "type": "event"
    },
    {
      "anonymous": false,
      "inputs": [
        {
          "indexed": true,
          "internalType": "address",
          "name": "mailbox",
          "type": "address"
        }
      ],
      "name": "MailboxSet",
      "type": "event"
    },
    {
      "anonymous": false,
      "inputs": [
        {
          "indexed": true,
          "internalType": "address",
          "name": "previousOwner",
          "type": "address"
        },
        {
          "indexed": true,
          "internalType": "address",
          "name": "newOwner",
          "type": "address"
        }
      ],
      "name": "OwnershipTransferred",
      "type": "event"
    },
    {
      "anonymous": false,
      "inputs": [
        {
          "indexed": false,
          "internalType": "address",
          "name": "account",
          "type": "address"
        }
      ],
      "name": "Paused",
      "type": "event"
    },
    {
      "anonymous": false,
      "inputs": [
        {
          "indexed": false,
          "internalType": "uint32",
          "name": "origin",
          "type": "uint32"
        },
        {
          "indexed": false,
          "internalType": "address",
          "name": "user",
          "type": "address"
        },
        {
          "indexed": false,
          "internalType": "uint256",
          "name": "addedValue",
          "type": "uint256"
        },
        {
          "indexed": false,
          "internalType": "uint256",
          "name": "addedWithdrawn",
          "type": "uint256"
        },
        {
          "indexed": false,
          "internalType": "uint256",
          "name": "addedDebt",
          "type": "uint256"
        }
      ],
      "name": "ProfileUpdated",
      "type": "event"
    },
    {
      "anonymous": false,
      "inputs": [
        {
          "indexed": true,
          "internalType": "uint32",
          "name": "domain",
          "type": "uint32"
        },
        {
          "indexed": false,
          "internalType": "bytes32",
          "name": "router",
          "type": "bytes32"
        }
      ],
      "name": "RemoteRouterEnrolled",
      "type": "event"
    },
    {
      "anonymous": false,
      "inputs": [
        {
          "indexed": true,
          "internalType": "bytes32",
          "name": "role",
          "type": "bytes32"
        },
        {
          "indexed": true,
          "internalType": "bytes32",
          "name": "previousAdminRole",
          "type": "bytes32"
        },
        {
          "indexed": true,
          "internalType": "bytes32",
          "name": "newAdminRole",
          "type": "bytes32"
        }
      ],
      "name": "RoleAdminChanged",
      "type": "event"
    },
    {
      "anonymous": false,
      "inputs": [
        {
          "indexed": true,
          "internalType": "bytes32",
          "name": "role",
          "type": "bytes32"
        },
        {
          "indexed": true,
          "internalType": "address",
          "name": "account",
          "type": "address"
        },
        {
          "indexed": true,
          "internalType": "address",
          "name": "sender",
          "type": "address"
        }
      ],
      "name": "RoleGranted",
      "type": "event"
    },
    {
      "anonymous": false,
      "inputs": [
        {
          "indexed": true,
          "internalType": "bytes32",
          "name": "role",
          "type": "bytes32"
        },
        {
          "indexed": true,
          "internalType": "address",
          "name": "account",
          "type": "address"
        },
        {
          "indexed": true,
          "internalType": "address",
          "name": "sender",
          "type": "address"
        }
      ],
      "name": "RoleRevoked",
      "type": "event"
    },
    {
      "anonymous": false,
      "inputs": [
        {
          "indexed": false,
          "internalType": "address",
          "name": "account",
          "type": "address"
        }
      ],
      "name": "Unpaused",
      "type": "event"
    },
    {
      "inputs": [],
      "name": "DEFAULT_ADMIN_ROLE",
      "outputs": [
        {
          "internalType": "bytes32",
          "name": "",
          "type": "bytes32"
        }
      ],
      "stateMutability": "view",
      "type": "function"
    },
    {
      "inputs": [],
      "name": "RELAYER_ROLE",
      "outputs": [
        {
          "internalType": "bytes32",
          "name": "",
          "type": "bytes32"
        }
      ],
      "stateMutability": "view",
      "type": "function"
    },
    {
      "inputs": [
        {
          "internalType": "address",
          "name": "_tokenAddress",
          "type": "address"
        },
        {
          "internalType": "bool",
          "name": "_amountDispenser",
          "type": "bool"
        },
        {
          "internalType": "uint256",
          "name": "_dispensingPeriod",
          "type": "uint256"
        },
        {
          "internalType": "uint16",
          "name": "_percentageToDispense",
          "type": "uint16"
        },
        {
          "internalType": "uint256",
          "name": "_amountToDispense",
          "type": "uint256"
        }
      ],
      "name": "changeDispensingSetting",
      "outputs": [],
      "stateMutability": "nonpayable",
      "type": "function"
    },
    {
      "inputs": [
        {
          "internalType": "address",
          "name": "_tokenAddress",
          "type": "address"
        },
        {
          "internalType": "uint256",
          "name": "_newLockDuration",
          "type": "uint256"
        }
      ],
      "name": "changeLockDuration",
      "outputs": [],
      "stateMutability": "nonpayable",
      "type": "function"
    },
    {
      "inputs": [
        {
          "internalType": "address",
          "name": "_tokenAddress",
          "type": "address"
        },
        {
          "internalType": "address",
          "name": "_recipient",
          "type": "address"
        }
      ],
      "name": "clearStuckFunds",
      "outputs": [],
      "stateMutability": "nonpayable",
      "type": "function"
    },
    {
      "inputs": [
        {
          "internalType": "address",
          "name": "_token",
          "type": "address"
        },
        {
          "internalType": "address",
          "name": "user",
          "type": "address"
        },
        {
          "internalType": "bytes[]",
          "name": "data",
          "type": "bytes[]"
        },
        {
          "internalType": "bytes32[]",
          "name": "sampleResults",
          "type": "bytes32[]"
        },
        {
          "internalType": "uint256",
          "name": "_extraAmount",
          "type": "uint256"
        }
      ],
      "name": "compoundInvestment",
      "outputs": [],
      "stateMutability": "nonpayable",
      "type": "function"
    },
    {
      "inputs": [],
      "name": "defaultUnlock",
      "outputs": [
        {
          "internalType": "uint256",
          "name": "",
          "type": "uint256"
        }
      ],
      "stateMutability": "view",
      "type": "function"
    },
    {
      "inputs": [
        {
          "internalType": "address",
          "name": "_tokenAddress",
          "type": "address"
        },
        {
          "internalType": "uint256",
          "name": "_amount",
          "type": "uint256"
        },
        {
          "internalType": "uint256",
          "name": "_lockDuration",
          "type": "uint256"
        },
        {
          "internalType": "uint16",
          "name": "_percentageToDispense",
          "type": "uint16"
        },
        {
          "internalType": "uint256",
          "name": "_dispensingPeriod",
          "type": "uint256"
        }
      ],
      "name": "deposit",
      "outputs": [],
      "stateMutability": "nonpayable",
      "type": "function"
    },
    {
      "inputs": [
        {
          "internalType": "address",
          "name": "_tokenAddress",
          "type": "address"
        },
        {
          "internalType": "uint256",
          "name": "_amount",
          "type": "uint256"
        },
        {
          "internalType": "uint256",
          "name": "_lockDuration",
          "type": "uint256"
        },
        {
          "internalType": "uint256",
          "name": "_amountToDispense",
          "type": "uint256"
        },
        {
          "internalType": "uint256",
          "name": "_dispensingPeriod",
          "type": "uint256"
        }
      ],
      "name": "deposit",
      "outputs": [],
      "stateMutability": "nonpayable",
      "type": "function"
    },
    {
      "inputs": [
        {
          "internalType": "uint32",
          "name": "",
          "type": "uint32"
        }
      ],
      "name": "destinationGas",
      "outputs": [
        {
          "internalType": "uint256",
          "name": "",
          "type": "uint256"
        }
      ],
      "stateMutability": "view",
      "type": "function"
    },
    {
      "inputs": [
        {
          "internalType": "address",
          "name": "_tokenAddress",
          "type": "address"
        }
      ],
      "name": "dispenseFund",
      "outputs": [],
      "stateMutability": "nonpayable",
      "type": "function"
    },
    {
      "inputs": [],
      "name": "domains",
      "outputs": [
        {
          "internalType": "uint32[]",
          "name": "",
          "type": "uint32[]"
        }
      ],
      "stateMutability": "view",
      "type": "function"
    },
    {
      "inputs": [
        {
          "internalType": "uint32",
          "name": "_domain",
          "type": "uint32"
        },
        {
          "internalType": "bytes32",
          "name": "_router",
          "type": "bytes32"
        }
      ],
      "name": "enrollRemoteRouter",
      "outputs": [],
      "stateMutability": "nonpayable",
      "type": "function"
    },
    {
      "inputs": [
        {
          "internalType": "uint32[]",
          "name": "_domains",
          "type": "uint32[]"
        },
        {
          "internalType": "bytes32[]",
          "name": "_addresses",
          "type": "bytes32[]"
        }
      ],
      "name": "enrollRemoteRouters",
      "outputs": [],
      "stateMutability": "nonpayable",
      "type": "function"
    },
    {
      "inputs": [
        {
          "internalType": "address",
          "name": "target",
          "type": "address"
        },
        {
          "internalType": "bytes[]",
          "name": "data",
          "type": "bytes[]"
        },
        {
          "internalType": "bytes32[]",
          "name": "sampleResults",
          "type": "bytes32[]"
        }
      ],
      "name": "externalCall",
      "outputs": [
        {
          "internalType": "bytes[]",
          "name": "",
          "type": "bytes[]"
        }
      ],
      "stateMutability": "nonpayable",
      "type": "function"
    },
    {
      "inputs": [
        {
          "internalType": "bytes32",
          "name": "role",
          "type": "bytes32"
        }
      ],
      "name": "getRoleAdmin",
      "outputs": [
        {
          "internalType": "bytes32",
          "name": "",
          "type": "bytes32"
        }
      ],
      "stateMutability": "view",
      "type": "function"
    },
    {
      "inputs": [
        {
          "internalType": "bytes32",
          "name": "role",
          "type": "bytes32"
        },
        {
          "internalType": "address",
          "name": "account",
          "type": "address"
        }
      ],
      "name": "grantRole",
      "outputs": [],
      "stateMutability": "nonpayable",
      "type": "function"
    },
    {
      "inputs": [
        {
          "internalType": "uint32",
          "name": "_origin",
          "type": "uint32"
        },
        {
          "internalType": "bytes32",
          "name": "_sender",
          "type": "bytes32"
        },
        {
          "internalType": "bytes",
          "name": "_message",
          "type": "bytes"
        }
      ],
      "name": "handle",
      "outputs": [],
      "stateMutability": "nonpayable",
      "type": "function"
    },
    {
      "inputs": [
        {
          "internalType": "bytes32",
          "name": "role",
          "type": "bytes32"
        },
        {
          "internalType": "address",
          "name": "account",
          "type": "address"
        }
      ],
      "name": "hasRole",
      "outputs": [
        {
          "internalType": "bool",
          "name": "",
          "type": "bool"
        }
      ],
      "stateMutability": "view",
      "type": "function"
    },
    {
      "inputs": [],
      "name": "interchainGasPaymaster",
      "outputs": [
        {
          "internalType": "contract IInterchainGasPaymaster",
          "name": "",
          "type": "address"
        }
      ],
      "stateMutability": "view",
      "type": "function"
    },
    {
      "inputs": [],
      "name": "interchainSecurityModule",
      "outputs": [
        {
          "internalType": "contract IInterchainSecurityModule",
          "name": "",
          "type": "address"
        }
      ],
      "stateMutability": "view",
      "type": "function"
    },
    {
      "inputs": [],
      "name": "mailbox",
      "outputs": [
        {
          "internalType": "contract IMailbox",
          "name": "",
          "type": "address"
        }
      ],
      "stateMutability": "view",
      "type": "function"
    },
    {
      "inputs": [],
      "name": "owner",
      "outputs": [
        {
          "internalType": "address",
          "name": "",
          "type": "address"
        }
      ],
      "stateMutability": "view",
      "type": "function"
    },
    {
      "inputs": [],
      "name": "paused",
      "outputs": [
        {
          "internalType": "bool",
          "name": "",
          "type": "bool"
        }
      ],
      "stateMutability": "view",
      "type": "function"
    },
    {
      "inputs": [
        {
          "internalType": "uint32",
          "name": "_destinationDomain",
          "type": "uint32"
        }
      ],
      "name": "quoteGasPayment",
      "outputs": [
        {
          "internalType": "uint256",
          "name": "_gasPayment",
          "type": "uint256"
        }
      ],
      "stateMutability": "view",
      "type": "function"
    },
    {
      "inputs": [],
      "name": "renounceOwnership",
      "outputs": [],
      "stateMutability": "nonpayable",
      "type": "function"
    },
    {
      "inputs": [
        {
          "internalType": "bytes32",
          "name": "role",
          "type": "bytes32"
        },
        {
          "internalType": "address",
          "name": "account",
          "type": "address"
        }
      ],
      "name": "renounceRole",
      "outputs": [],
      "stateMutability": "nonpayable",
      "type": "function"
    },
    {
      "inputs": [
        {
          "internalType": "bytes32",
          "name": "role",
          "type": "bytes32"
        },
        {
          "internalType": "address",
          "name": "account",
          "type": "address"
        }
      ],
      "name": "revokeRole",
      "outputs": [],
      "stateMutability": "nonpayable",
      "type": "function"
    },
    {
      "inputs": [
        {
          "internalType": "uint32",
          "name": "_domain",
          "type": "uint32"
        }
      ],
      "name": "routers",
      "outputs": [
        {
          "internalType": "bytes32",
          "name": "",
          "type": "bytes32"
        }
      ],
      "stateMutability": "view",
      "type": "function"
    },
    {
      "inputs": [
        {
          "components": [
            {
              "internalType": "uint32",
              "name": "domain",
              "type": "uint32"
            },
            {
              "internalType": "uint256",
              "name": "gas",
              "type": "uint256"
            }
          ],
          "internalType": "struct GasRouter.GasRouterConfig[]",
          "name": "gasConfigs",
          "type": "tuple[]"
        }
      ],
      "name": "setDestinationGas",
      "outputs": [],
      "stateMutability": "nonpayable",
      "type": "function"
    },
    {
      "inputs": [
        {
          "internalType": "address",
          "name": "_interchainGasPaymaster",
          "type": "address"
        }
      ],
      "name": "setInterchainGasPaymaster",
      "outputs": [],
      "stateMutability": "nonpayable",
      "type": "function"
    },
    {
      "inputs": [
        {
          "internalType": "address",
          "name": "_module",
          "type": "address"
        }
      ],
      "name": "setInterchainSecurityModule",
      "outputs": [],
      "stateMutability": "nonpayable",
      "type": "function"
    },
    {
      "inputs": [
        {
          "internalType": "address",
          "name": "_mailbox",
          "type": "address"
        }
      ],
      "name": "setMailbox",
      "outputs": [],
      "stateMutability": "nonpayable",
      "type": "function"
    },
    {
      "inputs": [
        {
          "internalType": "bytes4",
          "name": "interfaceId",
          "type": "bytes4"
        }
      ],
      "name": "supportsInterface",
      "outputs": [
        {
          "internalType": "bool",
          "name": "",
          "type": "bool"
        }
      ],
      "stateMutability": "view",
      "type": "function"
    },
    {
      "inputs": [],
      "name": "token",
      "outputs": [
        {
          "internalType": "contract IERC20",
          "name": "",
          "type": "address"
        }
      ],
      "stateMutability": "view",
      "type": "function"
    },
    {
      "inputs": [
        {
          "internalType": "address",
          "name": "newOwner",
          "type": "address"
        }
      ],
      "name": "transferOwnership",
      "outputs": [],
      "stateMutability": "nonpayable",
      "type": "function"
    },
    {
      "inputs": [
        {
          "internalType": "address",
          "name": "",
          "type": "address"
        },
        {
          "internalType": "address",
          "name": "",
          "type": "address"
        }
      ],
      "name": "userDeposits",
      "outputs": [
        {
          "internalType": "uint256",
          "name": "amount",
          "type": "uint256"
        },
        {
          "internalType": "uint256",
          "name": "lockDuration",
          "type": "uint256"
        },
        {
          "internalType": "uint256",
          "name": "dispensingPeriod",
          "type": "uint256"
        },
        {
          "internalType": "bool",
          "name": "amountDispenser",
          "type": "bool"
        },
        {
          "internalType": "uint16",
          "name": "percentageToDispense",
          "type": "uint16"
        },
        {
          "internalType": "uint256",
          "name": "amountToDispense",
          "type": "uint256"
        },
        {
          "internalType": "uint256",
          "name": "lastDispensedTime",
          "type": "uint256"
        }
      ],
      "stateMutability": "view",
      "type": "function"
    },
    {
      "inputs": [
        {
          "internalType": "address",
          "name": "_tokenAddress",
          "type": "address"
        },
        {
          "internalType": "uint256",
          "name": "_amount",
          "type": "uint256"
        }
      ],
      "name": "withdraw",
      "outputs": [],
      "stateMutability": "nonpayable",
      "type": "function"
    },
    {
      "inputs": [
        {
          "internalType": "address",
          "name": "_user",
          "type": "address"
        },
        {
          "internalType": "address",
          "name": "_tokenAddress",
          "type": "address"
        },
        {
          "internalType": "uint256",
          "name": "_amount",
          "type": "uint256"
        },
        {
          "internalType": "bytes",
          "name": "signature",
          "type": "bytes"
        }
      ],
      "name": "withdrawWithSignature",
      "outputs": [],
      "stateMutability": "nonpayable",
      "type": "function"
    },
    {
      "stateMutability": "payable",
      "type": "receive"
    }
  ],
  "bytecode": "0x6080604052620186a06101335562a8c000610135553480156200002157600080fd5b50604051620071a6380380620071a68339818101604052810190620000479190620002cb565b6001600081905550600061013260006101000a81548160ff0219169083151502179055506200009d7fe2b7fb3b832174769106daebcfd6d1970523240dda11281102db9363b83b0dc4336200010860201b60201c565b3361013660006101000a81548173ffffffffffffffffffffffffffffffffffffffff021916908373ffffffffffffffffffffffffffffffffffffffff1602179055508061013660146101000a81548163ffffffff021916908363ffffffff16021790555050620002fd565b6200011a82826200011e60201b60201c565b5050565b6200013082826200021160201b60201c565b6200020d576001610100600084815260200190815260200160002060000160008373ffffffffffffffffffffffffffffffffffffffff1673ffffffffffffffffffffffffffffffffffffffff16815260200190815260200160002060006101000a81548160ff021916908315150217905550620001b26200027d60201b60201c565b73ffffffffffffffffffffffffffffffffffffffff168173ffffffffffffffffffffffffffffffffffffffff16837f2f8788117e7eff1d82e926ec794901d17c78024a50270940304540a733656f0d60405160405180910390a45b5050565b6000610100600084815260200190815260200160002060000160008373ffffffffffffffffffffffffffffffffffffffff1673ffffffffffffffffffffffffffffffffffffffff16815260200190815260200160002060009054906101000a900460ff16905092915050565b600033905090565b600080fd5b600063ffffffff82169050919050565b620002a5816200028a565b8114620002b157600080fd5b50565b600081519050620002c5816200029a565b92915050565b600060208284031215620002e457620002e362000285565b5b6000620002f484828501620002b4565b91505092915050565b616e99806200030d6000396000f3fe6080604052600436106102345760003560e01c8063715018a61161012e578063d5438eae116100ab578063f2ed8c531161006f578063f2ed8c5314610bf1578063f2fde38b14610c2e578063f3c61d6b14610c57578063f3fef3a314610c80578063fc0c546a14610ca9576105e8565b8063d5438eae14610b20578063d547741f14610b4b578063de523cf314610b74578063e9198bf914610b9f578063f1bd6f0a14610bc8576105e8565b806392627d9f116100f257806392627d9f14610a4d578063926d7d7f14610a78578063a217fddf14610aa3578063b1bd643614610ace578063b49c53a714610af7576105e8565b8063715018a614610954578063775313a11461096b5780637923534c146109a85780638da5cb5b146109e557806391d1485414610a10576105e8565b806337d63c76116101bc5780635c0e1b56116101805780635c0e1b56146108855780635c975abb146108ae5780635f0f91fd146108d957806360f813ed14610902578063689368091461092b576105e8565b806337d63c761461079a57806339bb4ad9146107c3578063436d8039146107ee578063440df4f41461083157806356d5d4751461085c576105e8565b806319aa1ef41161020357806319aa1ef4146106a5578063248a9ca3146106ce5780632ead72f61461070b5780632f2ff15d1461074857806336568abe14610771576105e8565b806301ffc9a7146105ed5780630af864fb1461062a5780630e72cc06146106535780631659dec11461067c576105e8565b366105e85760006103e9905060003411610283576040517f08c379a000000000000000000000000000000000000000000000000000000000815260040161027a90614873565b60405180910390fd5b600061013760003373ffffffffffffffffffffffffffffffffffffffff1673ffffffffffffffffffffffffffffffffffffffff16815260200190815260200160002060008373ffffffffffffffffffffffffffffffffffffffff1673ffffffffffffffffffffffffffffffffffffffff1681526020019081526020016000209050600081600001540361044d576040518060e0016040528034815260200161013554815260200162278d00815260200160001515815260200161208d61ffff168152602001600081526020014281525061013760003373ffffffffffffffffffffffffffffffffffffffff1673ffffffffffffffffffffffffffffffffffffffff16815260200190815260200160002060008473ffffffffffffffffffffffffffffffffffffffff1673ffffffffffffffffffffffffffffffffffffffff16815260200190815260200160002060008201518160000155602082015181600101556040820151816002015560608201518160030160006101000a81548160ff02191690831515021790555060808201518160030160016101000a81548161ffff021916908361ffff16021790555060a0820151816004015560c0820151816005015590505061059c565b6101355481600101600082825461046491906148cc565b92505081905550610482348260000154610cd490919063ffffffff16565b81600001819055508061013760003373ffffffffffffffffffffffffffffffffffffffff1673ffffffffffffffffffffffffffffffffffffffff16815260200190815260200160002060008473ffffffffffffffffffffffffffffffffffffffff1673ffffffffffffffffffffffffffffffffffffffff1681526020019081526020016000206000820154816000015560018201548160010155600282015481600201556003820160009054906101000a900460ff168160030160006101000a81548160ff0219169083151502179055506003820160019054906101000a900461ffff168160030160016101000a81548161ffff021916908361ffff16021790555060048201548160040155600582015481600501559050505b6105e661013660009054906101000a900473ffffffffffffffffffffffffffffffffffffffff1661013660149054906101000a900463ffffffff16620186a0338634600080610cea565b005b600080fd5b3480156105f957600080fd5b50610614600480360381019061060f919061496c565b610d2d565b60405161062191906149b4565b60405180910390f35b34801561063657600080fd5b50610651600480360381019061064c9190614abf565b610da7565b005b34801561065f57600080fd5b5061067a60048036038101906106759190614b3a565b610fdd565b005b34801561068857600080fd5b506106a3600480360381019061069e9190614b67565b610ff1565b005b3480156106b157600080fd5b506106cc60048036038101906106c79190614ecc565b611222565b005b3480156106da57600080fd5b506106f560048036038101906106f09190614f7f565b6114af565b6040516107029190614fbb565b60405180910390f35b34801561071757600080fd5b50610732600480360381019061072d9190615012565b6114d0565b60405161073f9190614fbb565b60405180910390f35b34801561075457600080fd5b5061076f600480360381019061076a919061503f565b6114f9565b005b34801561077d57600080fd5b506107986004803603810190610793919061503f565b61151a565b005b3480156107a657600080fd5b506107c160048036038101906107bc919061507f565b61159d565b005b3480156107cf57600080fd5b506107d8611989565b6040516107e59190615161565b60405180910390f35b3480156107fa57600080fd5b506108156004803603810190610810919061517c565b6119af565b60405161082897969594939291906151da565b60405180910390f35b34801561083d57600080fd5b50610846611a1a565b6040516108539190615307565b60405180910390f35b34801561086857600080fd5b50610883600480360381019061087e9190615384565b611a2b565b005b34801561089157600080fd5b506108ac60048036038101906108a791906153f8565b611b36565b005b3480156108ba57600080fd5b506108c361207f565b6040516108d091906149b4565b60405180910390f35b3480156108e557600080fd5b5061090060048036038101906108fb9190614b3a565b612097565b005b34801561090e57600080fd5b506109296004803603810190610924919061517c565b612400565b005b34801561093757600080fd5b50610952600480360381019061094d9190615473565b612553565b005b34801561096057600080fd5b50610969612a9c565b005b34801561097757600080fd5b50610992600480360381019061098d9190615012565b612ab0565b60405161099f91906154ee565b60405180910390f35b3480156109b457600080fd5b506109cf60048036038101906109ca9190615509565b612ac8565b6040516109dc91906156d5565b60405180910390f35b3480156109f157600080fd5b506109fa612c73565b604051610a079190615706565b60405180910390f35b348015610a1c57600080fd5b50610a376004803603810190610a32919061503f565b612c9d565b604051610a4491906149b4565b60405180910390f35b348015610a5957600080fd5b50610a62612d09565b604051610a6f91906154ee565b60405180910390f35b348015610a8457600080fd5b50610a8d612d10565b604051610a9a9190614fbb565b60405180910390f35b348015610aaf57600080fd5b50610ab8612d34565b604051610ac59190614fbb565b60405180910390f35b348015610ada57600080fd5b50610af56004803603810190610af09190615777565b612d3b565b005b348015610b0357600080fd5b50610b1e6004803603810190610b1991906157c4565b612dba565b005b348015610b2c57600080fd5b50610b35612dd0565b604051610b429190615825565b60405180910390f35b348015610b5757600080fd5b50610b726004803603810190610b6d919061503f565b612df6565b005b348015610b8057600080fd5b50610b89612e17565b604051610b969190615861565b60405180910390f35b348015610bab57600080fd5b50610bc66004803603810190610bc19190615928565b612e3d565b005b348015610bd457600080fd5b50610bef6004803603810190610bea9190614b3a565b612f06565b005b348015610bfd57600080fd5b50610c186004803603810190610c139190615012565b612f1a565b604051610c2591906154ee565b60405180910390f35b348015610c3a57600080fd5b50610c556004803603810190610c509190614b3a565b612fe0565b005b348015610c6357600080fd5b50610c7e6004803603810190610c799190614b3a565b613063565b005b348015610c8c57600080fd5b50610ca76004803603810190610ca29190614b67565b613077565b005b348015610cb557600080fd5b50610cbe6133a0565b604051610ccb91906159ca565b60405180910390f35b60008183610ce291906148cc565b905092915050565b6000610d1f888787878787604051602001610d099594939291906159e5565b604051602081830303815290604052898c6133c7565b905098975050505050505050565b60007f7965db0b000000000000000000000000000000000000000000000000000000007bffffffffffffffffffffffffffffffffffffffffffffffffffffffff1916827bffffffffffffffffffffffffffffffffffffffffffffffffffffffff19161480610da05750610d9f826133ff565b5b9050919050565b610daf613469565b600061013760003373ffffffffffffffffffffffffffffffffffffffff1673ffffffffffffffffffffffffffffffffffffffff16815260200190815260200160002060008773ffffffffffffffffffffffffffffffffffffffff1673ffffffffffffffffffffffffffffffffffffffff16815260200190815260200160002090506000816000015411610e77576040517f08c379a0000000000000000000000000000000000000000000000000000000008152600401610e6e90615a84565b60405180910390fd5b848160030160006101000a81548160ff021916908315150217905550838160020181905550828160030160016101000a81548161ffff021916908361ffff1602179055508181600401819055508061013760003373ffffffffffffffffffffffffffffffffffffffff1673ffffffffffffffffffffffffffffffffffffffff16815260200190815260200160002060008873ffffffffffffffffffffffffffffffffffffffff1673ffffffffffffffffffffffffffffffffffffffff1681526020019081526020016000206000820154816000015560018201548160010155600282015481600201556003820160009054906101000a900460ff168160030160006101000a81548160ff0219169083151502179055506003820160019054906101000a900461ffff168160030160016101000a81548161ffff021916908361ffff1602179055506004820154816004015560058201548160050155905050505050505050565b610fe56134b3565b610fee81613531565b50565b610ff9613469565b600061013760003373ffffffffffffffffffffffffffffffffffffffff1673ffffffffffffffffffffffffffffffffffffffff16815260200190815260200160002060008473ffffffffffffffffffffffffffffffffffffffff1673ffffffffffffffffffffffffffffffffffffffff168152602001908152602001600020905060008160000154116110c1576040517f08c379a00000000000000000000000000000000000000000000000000000000081526004016110b890615a84565b60405180910390fd5b428211611103576040517f08c379a00000000000000000000000000000000000000000000000000000000081526004016110fa90615af0565b60405180910390fd5b8181600101819055508061013760003373ffffffffffffffffffffffffffffffffffffffff1673ffffffffffffffffffffffffffffffffffffffff16815260200190815260200160002060008573ffffffffffffffffffffffffffffffffffffffff1673ffffffffffffffffffffffffffffffffffffffff1681526020019081526020016000206000820154816000015560018201548160010155600282015481600201556003820160009054906101000a900460ff168160030160006101000a81548160ff0219169083151502179055506003820160019054906101000a900461ffff168160030160016101000a81548161ffff021916908361ffff1602179055506004820154816004015560058201548160050155905050505050565b61122a613637565b6112547fe2b7fb3b832174769106daebcfd6d1970523240dda11281102db9363b83b0dc433612c9d565b611293576040517f08c379a000000000000000000000000000000000000000000000000000000000815260040161128a90615b82565b60405180910390fd5b600061013760008673ffffffffffffffffffffffffffffffffffffffff1673ffffffffffffffffffffffffffffffffffffffff16815260200190815260200160002060008773ffffffffffffffffffffffffffffffffffffffff1673ffffffffffffffffffffffffffffffffffffffff16815260200190815260200160002090506000611321878686612ac8565b905061133a838360000154610cd490919063ffffffff16565b82600001819055508161013760003373ffffffffffffffffffffffffffffffffffffffff1673ffffffffffffffffffffffffffffffffffffffff16815260200190815260200160002060008973ffffffffffffffffffffffffffffffffffffffff1673ffffffffffffffffffffffffffffffffffffffff1681526020019081526020016000206000820154816000015560018201548160010155600282015481600201556003820160009054906101000a900460ff168160030160006101000a81548160ff0219169083151502179055506003820160019054906101000a900461ffff168160030160016101000a81548161ffff021916908361ffff160217905550600482015481600401556005820154816005015590505061149d61013660009054906101000a900473ffffffffffffffffffffffffffffffffffffffff1661013660149054906101000a900463ffffffff16620186a0338b88600080610cea565b5050506114a8613686565b5050505050565b60006101006000838152602001908152602001600020600101549050919050565b6000806114ed8363ffffffff16609961369090919063ffffffff16565b91505080915050919050565b611502826114af565b61150b816136b7565b61151583836136cb565b505050565b6115226137ad565b73ffffffffffffffffffffffffffffffffffffffff168173ffffffffffffffffffffffffffffffffffffffff161461158f576040517f08c379a000000000000000000000000000000000000000000000000000000000815260040161158690615c14565b60405180910390fd5b61159982826137b5565b5050565b6115a5613469565b6115ad613637565b600061013760008673ffffffffffffffffffffffffffffffffffffffff1673ffffffffffffffffffffffffffffffffffffffff16815260200190815260200160002060008573ffffffffffffffffffffffffffffffffffffffff1673ffffffffffffffffffffffffffffffffffffffff16815260200190815260200160002090506000816000015411611675576040517f08c379a000000000000000000000000000000000000000000000000000000000815260040161166c90615c80565b60405180910390fd5b80600101544210156116bc576040517f08c379a00000000000000000000000000000000000000000000000000000000081526004016116b390615d12565b60405180910390fd5b60008585856040516020016116d393929190615d9b565b6040516020818303038152906040528051906020012090506116f6818488613898565b611735576040517f08c379a000000000000000000000000000000000000000000000000000000000815260040161172c90615e24565b60405180910390fd5b600082600001541161177c576040517f08c379a000000000000000000000000000000000000000000000000000000000815260040161177390615c80565b60405180910390fd5b600085905060008173ffffffffffffffffffffffffffffffffffffffff166370a08231306040518263ffffffff1660e01b81526004016117bc9190615706565b602060405180830381865afa1580156117d9573d6000803e3d6000fd5b505050506040513d601f19601f820116820180604052508101906117fd9190615e59565b90508360000154811015611846576040517f08c379a000000000000000000000000000000000000000000000000000000000815260040161183d90615ef8565b60405180910390fd5b836000015486111561188d576040517f08c379a000000000000000000000000000000000000000000000000000000000815260040161188490615f64565b60405180910390fd5b6118a486856000015461390c90919063ffffffff16565b84600001819055508173ffffffffffffffffffffffffffffffffffffffff1663a9059cbb89886040518363ffffffff1660e01b81526004016118e7929190615f84565b6020604051808303816000875af1158015611906573d6000803e3d6000fd5b505050506040513d601f19601f8201168201806040525081019061192a9190615fc2565b5061197661013660009054906101000a900473ffffffffffffffffffffffffffffffffffffffff1661013660149054906101000a900463ffffffff16620186a08b8b60008c6000610cea565b5050505050611983613686565b50505050565b606760009054906101000a900473ffffffffffffffffffffffffffffffffffffffff1681565b610137602052816000526040600020602052806000526040600020600091509150508060000154908060010154908060020154908060030160009054906101000a900460ff16908060030160019054906101000a900461ffff16908060040154908060050154905087565b6060611a266099613922565b905090565b606660009054906101000a900473ffffffffffffffffffffffffffffffffffffffff1673ffffffffffffffffffffffffffffffffffffffff163373ffffffffffffffffffffffffffffffffffffffff1614611abb576040517f08c379a0000000000000000000000000000000000000000000000000000000008152600401611ab29061603b565b60405180910390fd5b8383611ac782826139eb565b604051806080016040528060438152602001616e216043913990611b21576040517f08c379a0000000000000000000000000000000000000000000000000000000008152600401611b18919061609f565b60405180910390fd5b50611b2e86868686613a00565b505050505050565b611b3e613469565b611b46613637565b824210611b88576040517f08c379a0000000000000000000000000000000000000000000000000000000008152600401611b7f90616133565b60405180910390fd5b60008411611bcb576040517f08c379a0000000000000000000000000000000000000000000000000000000008152600401611bc290614873565b60405180910390fd5b600085905060008173ffffffffffffffffffffffffffffffffffffffff1663dd62ed3e33306040518363ffffffff1660e01b8152600401611c0d929190616153565b602060405180830381865afa158015611c2a573d6000803e3d6000fd5b505050506040513d601f19601f82011682018060405250810190611c4e9190615e59565b905085811015611c93576040517f08c379a0000000000000000000000000000000000000000000000000000000008152600401611c8a906161c8565b60405180910390fd5b8173ffffffffffffffffffffffffffffffffffffffff166323b872dd3330896040518463ffffffff1660e01b8152600401611cd0939291906161e8565b6020604051808303816000875af1158015611cef573d6000803e3d6000fd5b505050506040513d601f19601f82011682018060405250810190611d139190615fc2565b50600061013760003373ffffffffffffffffffffffffffffffffffffffff1673ffffffffffffffffffffffffffffffffffffffff16815260200190815260200160002060008973ffffffffffffffffffffffffffffffffffffffff1673ffffffffffffffffffffffffffffffffffffffff16815260200190815260200160002090506000816000015403611ed6576040518060e001604052808881526020018781526020018581526020016000151581526020018661ffff168152602001600081526020014281525061013760003373ffffffffffffffffffffffffffffffffffffffff1673ffffffffffffffffffffffffffffffffffffffff16815260200190815260200160002060008a73ffffffffffffffffffffffffffffffffffffffff1673ffffffffffffffffffffffffffffffffffffffff16815260200190815260200160002060008201518160000155602082015181600101556040820151816002015560608201518160030160006101000a81548160ff02191690831515021790555060808201518160030160016101000a81548161ffff021916908361ffff16021790555060a0820151816004015560c08201518160050155905050612022565b85816001016000828254611eea91906148cc565b92505081905550611f08878260000154610cd490919063ffffffff16565b81600001819055508061013760003373ffffffffffffffffffffffffffffffffffffffff1673ffffffffffffffffffffffffffffffffffffffff16815260200190815260200160002060008a73ffffffffffffffffffffffffffffffffffffffff1673ffffffffffffffffffffffffffffffffffffffff1681526020019081526020016000206000820154816000015560018201548160010155600282015481600201556003820160009054906101000a900460ff168160030160006101000a81548160ff0219169083151502179055506003820160019054906101000a900461ffff168160030160016101000a81548161ffff021916908361ffff16021790555060048201548160040155600582015481600501559050505b61206c61013660009054906101000a900473ffffffffffffffffffffffffffffffffffffffff1661013660149054906101000a900463ffffffff16620186a0338c8c600080610cea565b50505050612078613686565b5050505050565b600061013260009054906101000a900460ff16905090565b61209f613469565b6120a7613637565b6120d17fe2b7fb3b832174769106daebcfd6d1970523240dda11281102db9363b83b0dc433612c9d565b612110576040517f08c379a000000000000000000000000000000000000000000000000000000000815260040161210790615b82565b60405180910390fd5b600061013760003373ffffffffffffffffffffffffffffffffffffffff1673ffffffffffffffffffffffffffffffffffffffff16815260200190815260200160002060008373ffffffffffffffffffffffffffffffffffffffff1673ffffffffffffffffffffffffffffffffffffffff168152602001908152602001600020905042816002015482600501546121a691906148cc565b11156121e7576040517f08c379a00000000000000000000000000000000000000000000000000000000081526004016121de9061626b565b60405180910390fd5b600082905060008173ffffffffffffffffffffffffffffffffffffffff166370a08231306040518263ffffffff1660e01b81526004016122279190615706565b602060405180830381865afa158015612244573d6000803e3d6000fd5b505050506040513d601f19601f820116820180604052508101906122689190615e59565b905082600001548110156122b1576040517f08c379a00000000000000000000000000000000000000000000000000000000081526004016122a890615ef8565b60405180910390fd5b6000836004015490508360030160009054906101000a900460ff1661230757610133548460030160019054906101000a900461ffff1661ffff1685600001546122fa919061628b565b61230491906162fc565b90505b61231e81856000015461390c90919063ffffffff16565b84600001819055508273ffffffffffffffffffffffffffffffffffffffff1663a9059cbb33836040518363ffffffff1660e01b8152600401612361929190615f84565b6020604051808303816000875af1158015612380573d6000803e3d6000fd5b505050506040513d601f19601f820116820180604052508101906123a49190615fc2565b506123f061013660009054906101000a900473ffffffffffffffffffffffffffffffffffffffff1661013660149054906101000a900463ffffffff16620186a033896000876000610cea565b50505050506123fd613686565b50565b6124086134b3565b600082905060008173ffffffffffffffffffffffffffffffffffffffff166370a08231306040518263ffffffff1660e01b81526004016124489190615706565b602060405180830381865afa158015612465573d6000803e3d6000fd5b505050506040513d601f19601f820116820180604052508101906124899190615e59565b9050600081116124ce576040517f08c379a00000000000000000000000000000000000000000000000000000000081526004016124c590616379565b60405180910390fd5b8173ffffffffffffffffffffffffffffffffffffffff1663a9059cbb84836040518363ffffffff1660e01b8152600401612509929190615f84565b6020604051808303816000875af1158015612528573d6000803e3d6000fd5b505050506040513d601f19601f8201168201806040525081019061254c9190615fc2565b5050505050565b61255b613469565b612563613637565b8242106125a5576040517f08c379a000000000000000000000000000000000000000000000000000000000815260040161259c90616133565b60405180910390fd5b600084116125e8576040517f08c379a00000000000000000000000000000000000000000000000000000000081526004016125df90614873565b60405180910390fd5b600085905060008173ffffffffffffffffffffffffffffffffffffffff1663dd62ed3e33306040518363ffffffff1660e01b815260040161262a929190616153565b602060405180830381865afa158015612647573d6000803e3d6000fd5b505050506040513d601f19601f8201168201806040525081019061266b9190615e59565b9050858110156126b0576040517f08c379a00000000000000000000000000000000000000000000000000000000081526004016126a7906161c8565b60405180910390fd5b8173ffffffffffffffffffffffffffffffffffffffff166323b872dd3330896040518463ffffffff1660e01b81526004016126ed939291906161e8565b6020604051808303816000875af115801561270c573d6000803e3d6000fd5b505050506040513d601f19601f820116820180604052508101906127309190615fc2565b50600061013760003373ffffffffffffffffffffffffffffffffffffffff1673ffffffffffffffffffffffffffffffffffffffff16815260200190815260200160002060008973ffffffffffffffffffffffffffffffffffffffff1673ffffffffffffffffffffffffffffffffffffffff168152602001908152602001600020905060008160000154036128f3576040518060e00160405280888152602001878152602001858152602001600115158152602001600061ffff1681526020018681526020014281525061013760003373ffffffffffffffffffffffffffffffffffffffff1673ffffffffffffffffffffffffffffffffffffffff16815260200190815260200160002060008a73ffffffffffffffffffffffffffffffffffffffff1673ffffffffffffffffffffffffffffffffffffffff16815260200190815260200160002060008201518160000155602082015181600101556040820151816002015560608201518160030160006101000a81548160ff02191690831515021790555060808201518160030160016101000a81548161ffff021916908361ffff16021790555060a0820151816004015560c08201518160050155905050612a3f565b8581600101600082825461290791906148cc565b92505081905550612925878260000154610cd490919063ffffffff16565b81600001819055508061013760003373ffffffffffffffffffffffffffffffffffffffff1673ffffffffffffffffffffffffffffffffffffffff16815260200190815260200160002060008a73ffffffffffffffffffffffffffffffffffffffff1673ffffffffffffffffffffffffffffffffffffffff1681526020019081526020016000206000820154816000015560018201548160010155600282015481600201556003820160009054906101000a900460ff168160030160006101000a81548160ff0219169083151502179055506003820160019054906101000a900461ffff168160030160016101000a81548161ffff021916908361ffff16021790555060048201548160040155600582015481600501559050505b612a8961013660009054906101000a900473ffffffffffffffffffffffffffffffffffffffff1661013660149054906101000a900463ffffffff16620186a0338c8c600080610cea565b50505050612a95613686565b5050505050565b612aa46134b3565b612aae6000613a66565b565b60cd6020528060005260406000206000915090505481565b6060600383511115612b0f576040517f08c379a0000000000000000000000000000000000000000000000000000000008152600401612b06906163e5565b60405180910390fd5b6000835167ffffffffffffffff811115612b2c57612b2b614bbd565b5b604051908082528060200260200182016040528015612b5f57816020015b6060815260200190600190039081612b4a5790505b50905060005b8451811015612c67576000808773ffffffffffffffffffffffffffffffffffffffff16878481518110612b9b57612b9a616405565b5b6020026020010151604051612bb09190616470565b6000604051808303816000865af19150503d8060008114612bed576040519150601f19603f3d011682016040523d82523d6000602084013e612bf2565b606091505b5091509150818015612c245750858381518110612c1257612c11616405565b5b60200260200101518180519060200120145b15612c4d5780848481518110612c3d57612c3c616405565b5b6020026020010181905250612c52565b600080fd5b50508080612c5f90616487565b915050612b65565b50809150509392505050565b6000603460009054906101000a900473ffffffffffffffffffffffffffffffffffffffff16905090565b6000610100600084815260200190815260200160002060000160008373ffffffffffffffffffffffffffffffffffffffff1673ffffffffffffffffffffffffffffffffffffffff16815260200190815260200160002060009054906101000a900460ff16905092915050565b6101355481565b7fe2b7fb3b832174769106daebcfd6d1970523240dda11281102db9363b83b0dc481565b6000801b81565b612d436134b3565b60005b82829050811015612db557612da1838383818110612d6757612d66616405565b5b9050604002016000016020810190612d7f9190615012565b848484818110612d9257612d91616405565b5b90506040020160200135613b2c565b600181612dae91906148cc565b9050612d46565b505050565b612dc26134b3565b612dcc8282613b92565b5050565b606660009054906101000a900473ffffffffffffffffffffffffffffffffffffffff1681565b612dff826114af565b612e08816136b7565b612e1283836137b5565b505050565b606860009054906101000a900473ffffffffffffffffffffffffffffffffffffffff1681565b612e456134b3565b818190508484905014612e8d576040517f08c379a0000000000000000000000000000000000000000000000000000000008152600401612e849061651b565b60405180910390fd5b600084849050905060005b81811015612efe57612eea868683818110612eb657612eb5616405565b5b9050602002016020810190612ecb9190615012565b858584818110612ede57612edd616405565b5b90506020020135613b92565b600181612ef791906148cc565b9050612e98565b505050505050565b612f0e6134b3565b612f1781613bf0565b50565b6000606760009054906101000a900473ffffffffffffffffffffffffffffffffffffffff1673ffffffffffffffffffffffffffffffffffffffff1663a69297938360cd60008663ffffffff1663ffffffff168152602001908152602001600020546040518363ffffffff1660e01b8152600401612f9892919061654a565b602060405180830381865afa158015612fb5573d6000803e3d6000fd5b505050506040513d601f19601f82011682018060405250810190612fd99190615e59565b9050919050565b612fe86134b3565b600073ffffffffffffffffffffffffffffffffffffffff168173ffffffffffffffffffffffffffffffffffffffff1603613057576040517f08c379a000000000000000000000000000000000000000000000000000000000815260040161304e906165e5565b60405180910390fd5b61306081613a66565b50565b61306b6134b3565b61307481613cc1565b50565b61307f613469565b613087613637565b600061013760003373ffffffffffffffffffffffffffffffffffffffff1673ffffffffffffffffffffffffffffffffffffffff16815260200190815260200160002060008473ffffffffffffffffffffffffffffffffffffffff1673ffffffffffffffffffffffffffffffffffffffff1681526020019081526020016000209050600081600001541161314f576040517f08c379a000000000000000000000000000000000000000000000000000000000815260040161314690615c80565b60405180910390fd5b8060010154421015613196576040517f08c379a000000000000000000000000000000000000000000000000000000000815260040161318d90615d12565b60405180910390fd5b600083905060008173ffffffffffffffffffffffffffffffffffffffff166370a08231306040518263ffffffff1660e01b81526004016131d69190615706565b602060405180830381865afa1580156131f3573d6000803e3d6000fd5b505050506040513d601f19601f820116820180604052508101906132179190615e59565b90508260000154811015613260576040517f08c379a000000000000000000000000000000000000000000000000000000000815260040161325790615ef8565b60405180910390fd5b82600001548411156132a7576040517f08c379a000000000000000000000000000000000000000000000000000000000815260040161329e90615f64565b60405180910390fd5b6132be84846000015461390c90919063ffffffff16565b83600001819055508173ffffffffffffffffffffffffffffffffffffffff1663a9059cbb33866040518363ffffffff1660e01b8152600401613301929190615f84565b6020604051808303816000875af1158015613320573d6000803e3d6000fd5b505050506040513d601f19601f820116820180604052508101906133449190615fc2565b5061339061013660009054906101000a900473ffffffffffffffffffffffffffffffffffffffff1661013660149054906101000a900463ffffffff16620186a0338960008a6000610cea565b5050505061339c613686565b5050565b61013460009054906101000a900473ffffffffffffffffffffffffffffffffffffffff1681565b60006133f5858560cd60008963ffffffff1663ffffffff168152602001908152602001600020548686613d92565b9050949350505050565b60007f01ffc9a7000000000000000000000000000000000000000000000000000000007bffffffffffffffffffffffffffffffffffffffffffffffffffffffff1916827bffffffffffffffffffffffffffffffffffffffffffffffffffffffff1916149050919050565b61347161207f565b156134b1576040517f08c379a00000000000000000000000000000000000000000000000000000000081526004016134a890616651565b60405180910390fd5b565b6134bb6137ad565b73ffffffffffffffffffffffffffffffffffffffff166134d9612c73565b73ffffffffffffffffffffffffffffffffffffffff161461352f576040517f08c379a0000000000000000000000000000000000000000000000000000000008152600401613526906166bd565b60405180910390fd5b565b600073ffffffffffffffffffffffffffffffffffffffff168173ffffffffffffffffffffffffffffffffffffffff161480613571575061357081613e3d565b5b6135b0576040517f08c379a00000000000000000000000000000000000000000000000000000000081526004016135a790616729565b60405180910390fd5b80606860006101000a81548173ffffffffffffffffffffffffffffffffffffffff021916908373ffffffffffffffffffffffffffffffffffffffff1602179055508073ffffffffffffffffffffffffffffffffffffffff167ffec811ed4e60aebdaf7a79cad8a97196bf56e35362f039705598226d30c9d24860405160405180910390a250565b60026000540361367c576040517f08c379a000000000000000000000000000000000000000000000000000000000815260040161367390616795565b60405180910390fd5b6002600081905550565b6001600081905550565b6000806136ac8360001b85600001613e6090919063ffffffff16565b915091509250929050565b6136c8816136c36137ad565b613eaf565b50565b6136d58282612c9d565b6137a9576001610100600084815260200190815260200160002060000160008373ffffffffffffffffffffffffffffffffffffffff1673ffffffffffffffffffffffffffffffffffffffff16815260200190815260200160002060006101000a81548160ff02191690831515021790555061374e6137ad565b73ffffffffffffffffffffffffffffffffffffffff168173ffffffffffffffffffffffffffffffffffffffff16837f2f8788117e7eff1d82e926ec794901d17c78024a50270940304540a733656f0d60405160405180910390a45b5050565b600033905090565b6137bf8282612c9d565b15613894576000610100600084815260200190815260200160002060000160008373ffffffffffffffffffffffffffffffffffffffff1673ffffffffffffffffffffffffffffffffffffffff16815260200190815260200160002060006101000a81548160ff0219169083151502179055506138396137ad565b73ffffffffffffffffffffffffffffffffffffffff168173ffffffffffffffffffffffffffffffffffffffff16837ff6391f5c32d9c69d2a47ea670b442974b53935d1edc7fd64eb21e047a839171b60405160405180910390a45b5050565b600080846040516020016138ac919061682d565b60405160208183030381529060405280519060200120905060006138d08286613f34565b90508373ffffffffffffffffffffffffffffffffffffffff168173ffffffffffffffffffffffffffffffffffffffff1614925050509392505050565b6000818361391a9190616853565b905092915050565b6060600061392f83613f5b565b9050805167ffffffffffffffff81111561394c5761394b614bbd565b5b60405190808252806020026020018201604052801561397a5781602001602082028036833780820191505090505b50915060005b81518110156139e45781818151811061399c5761399b616405565b5b60200260200101518382815181106139b7576139b6616405565b5b602002602001019063ffffffff16908163ffffffff168152505080806139dc90616487565b915050613980565b5050919050565b6000816139f7846114d0565b14905092915050565b6000806000808585810190613a1591906168c5565b93509350935093507f3f434d0241237079abe605e51bb14a5d74c7ef567d2c6930dba299dcc64817878885858585604051613a5495949392919061692c565b60405180910390a15050505050505050565b6000603460009054906101000a900473ffffffffffffffffffffffffffffffffffffffff16905081603460006101000a81548173ffffffffffffffffffffffffffffffffffffffff021916908373ffffffffffffffffffffffffffffffffffffffff1602179055508173ffffffffffffffffffffffffffffffffffffffff168173ffffffffffffffffffffffffffffffffffffffff167f8be0079c531659141344cd1fd0a4f28419497f9722a3daafe3b4186f6b6457e060405160405180910390a35050565b8060cd60008463ffffffff1663ffffffff168152602001908152602001600020819055508163ffffffff167f90563f253ecb04527a6a7ae1a8cbe2bdc6caefb39d5f7b06a973cf5e7f8035a482604051613b8691906154ee565b60405180910390a25050565b613bae8263ffffffff168260996140189092919063ffffffff16565b8163ffffffff167f97fd51fef1f80c854cbd0150c248e8b2ac4ecdc97cc05e742b5f61c9f4dc645882604051613be49190614fbb565b60405180910390a25050565b80613bfa81613e3d565b613c39576040517f08c379a0000000000000000000000000000000000000000000000000000000008152600401613c3090616729565b60405180910390fd5b81606760006101000a81548173ffffffffffffffffffffffffffffffffffffffff021916908373ffffffffffffffffffffffffffffffffffffffff1602179055508173ffffffffffffffffffffffffffffffffffffffff167fb87f5a0bface22cde699143559fb99f990ae54eea236995fc54178af91af859f60405160405180910390a25050565b80613ccb81613e3d565b613d0a576040517f08c379a0000000000000000000000000000000000000000000000000000000008152600401613d0190616729565b60405180910390fd5b81606660006101000a81548173ffffffffffffffffffffffffffffffffffffffff021916908373ffffffffffffffffffffffffffffffffffffffff1602179055508173ffffffffffffffffffffffffffffffffffffffff167f7a61e573722ff8b205c8962b59d37e7d30573f368965597a844a94872204ebd760405160405180910390a25050565b6000613d9e8686614039565b9050606760009054906101000a900473ffffffffffffffffffffffffffffffffffffffff1673ffffffffffffffffffffffffffffffffffffffff166311bf2c1884838988876040518663ffffffff1660e01b8152600401613e02949392919061697f565b6000604051808303818588803b158015613e1b57600080fd5b505af1158015613e2f573d6000803e3d6000fd5b505050505095945050505050565b6000808273ffffffffffffffffffffffffffffffffffffffff163b119050919050565b60008060008460020160008581526020019081526020016000205490506000801b8103613e9f57613e9185856140f2565b6000801b9250925050613ea8565b60018192509250505b9250929050565b613eb98282612c9d565b613f3057613ec681614112565b613ed48360001c602061413f565b604051602001613ee5929190616a8d565b6040516020818303038152906040526040517f08c379a0000000000000000000000000000000000000000000000000000000008152600401613f27919061609f565b60405180910390fd5b5050565b6000806000613f43858561437b565b91509150613f50816143cc565b819250505092915050565b60606000613f6b83600001614532565b90508067ffffffffffffffff811115613f8757613f86614bbd565b5b604051908082528060200260200182016040528015613fb55781602001602082028036833780820191505090505b50915060005b8181101561401157613fdc818560000160000161454790919063ffffffff16565b60001c838281518110613ff257613ff1616405565b5b602002602001018181525050808061400990616487565b915050613fbb565b5050919050565b6140338260001b828560000161455e9092919063ffffffff16565b50505050565b60008061404584614599565b9050606660009054906101000a900473ffffffffffffffffffffffffffffffffffffffff1673ffffffffffffffffffffffffffffffffffffffff1663fa31de018583866040518463ffffffff1660e01b81526004016140a693929190616b11565b6020604051808303816000875af11580156140c5573d6000803e3d6000fd5b505050506040513d601f19601f820116820180604052508101906140e99190616b64565b91505092915050565b600061410a828460000161462290919063ffffffff16565b905092915050565b60606141388273ffffffffffffffffffffffffffffffffffffffff16601460ff1661413f565b9050919050565b606060006002836002614152919061628b565b61415c91906148cc565b67ffffffffffffffff81111561417557614174614bbd565b5b6040519080825280601f01601f1916602001820160405280156141a75781602001600182028036833780820191505090505b5090507f3000000000000000000000000000000000000000000000000000000000000000816000815181106141df576141de616405565b5b60200101907effffffffffffffffffffffffffffffffffffffffffffffffffffffffffffff1916908160001a9053507f78000000000000000000000000000000000000000000000000000000000000008160018151811061424357614242616405565b5b60200101907effffffffffffffffffffffffffffffffffffffffffffffffffffffffffffff1916908160001a90535060006001846002614283919061628b565b61428d91906148cc565b90505b600181111561432d577f3031323334353637383961626364656600000000000000000000000000000000600f8616601081106142cf576142ce616405565b5b1a60f81b8282815181106142e6576142e5616405565b5b60200101907effffffffffffffffffffffffffffffffffffffffffffffffffffffffffffff1916908160001a905350600485901c94508061432690616b91565b9050614290565b5060008414614371576040517f08c379a000000000000000000000000000000000000000000000000000000000815260040161436890616c06565b60405180910390fd5b8091505092915050565b60008060418351036143bc5760008060006020860151925060408601519150606086015160001a90506143b087828585614639565b945094505050506143c5565b60006002915091505b9250929050565b600060048111156143e0576143df616c26565b5b8160048111156143f3576143f2616c26565b5b031561452f576001600481111561440d5761440c616c26565b5b8160048111156144205761441f616c26565b5b03614460576040517f08c379a000000000000000000000000000000000000000000000000000000000815260040161445790616ca1565b60405180910390fd5b6002600481111561447457614473616c26565b5b81600481111561448757614486616c26565b5b036144c7576040517f08c379a00000000000000000000000000000000000000000000000000000000081526004016144be90616d0d565b60405180910390fd5b600360048111156144db576144da616c26565b5b8160048111156144ee576144ed616c26565b5b0361452e576040517f08c379a000000000000000000000000000000000000000000000000000000000815260040161452590616d9f565b60405180910390fd5b5b50565b60006145408260000161471b565b9050919050565b60006145568360000183614730565b905092915050565b60008184600201600085815260200190815260200160002081905550614590838560000161475b90919063ffffffff16565b90509392505050565b60008060006145b88463ffffffff16609961369090919063ffffffff16565b9150915081604051806080016040528060438152602001616e216043913990614617576040517f08c379a000000000000000000000000000000000000000000000000000000000815260040161460e919061609f565b60405180910390fd5b508092505050919050565b60006146318360000183614772565b905092915050565b6000807f7fffffffffffffffffffffffffffffff5d576e7357a4501ddfe92f46681b20a08360001c1115614674576000600391509150614712565b6000600187878787604051600081526020016040526040516146999493929190616ddb565b6020604051602081039080840390855afa1580156146bb573d6000803e3d6000fd5b505050602060405103519050600073ffffffffffffffffffffffffffffffffffffffff168173ffffffffffffffffffffffffffffffffffffffff160361470957600060019250925050614712565b80600092509250505b94509492505050565b600061472982600001614795565b9050919050565b600082600001828154811061474857614747616405565b5b9060005260206000200154905092915050565b600061476a83600001836147a6565b905092915050565b600080836001016000848152602001908152602001600020541415905092915050565b600081600001805490509050919050565b60006147b28383614772565b61480b578260000182908060018154018082558091505060019003906000526020600020016000909190919091505582600001805490508360010160008481526020019081526020016000208190555060019050614810565b600090505b92915050565b600082825260208201905092915050565b7f416d6f756e74206d7573742062652067726561746572207468616e2030000000600082015250565b600061485d601d83614816565b915061486882614827565b602082019050919050565b6000602082019050818103600083015261488c81614850565b9050919050565b6000819050919050565b7f4e487b7100000000000000000000000000000000000000000000000000000000600052601160045260246000fd5b60006148d782614893565b91506148e283614893565b92508282019050808211156148fa576148f961489d565b5b92915050565b6000604051905090565b600080fd5b600080fd5b60007fffffffff0000000000000000000000000000000000000000000000000000000082169050919050565b61494981614914565b811461495457600080fd5b50565b60008135905061496681614940565b92915050565b6000602082840312156149825761498161490a565b5b600061499084828501614957565b91505092915050565b60008115159050919050565b6149ae81614999565b82525050565b60006020820190506149c960008301846149a5565b92915050565b600073ffffffffffffffffffffffffffffffffffffffff82169050919050565b60006149fa826149cf565b9050919050565b614a0a816149ef565b8114614a1557600080fd5b50565b600081359050614a2781614a01565b92915050565b614a3681614999565b8114614a4157600080fd5b50565b600081359050614a5381614a2d565b92915050565b614a6281614893565b8114614a6d57600080fd5b50565b600081359050614a7f81614a59565b92915050565b600061ffff82169050919050565b614a9c81614a85565b8114614aa757600080fd5b50565b600081359050614ab981614a93565b92915050565b600080600080600060a08688031215614adb57614ada61490a565b5b6000614ae988828901614a18565b9550506020614afa88828901614a44565b9450506040614b0b88828901614a70565b9350506060614b1c88828901614aaa565b9250506080614b2d88828901614a70565b9150509295509295909350565b600060208284031215614b5057614b4f61490a565b5b6000614b5e84828501614a18565b91505092915050565b60008060408385031215614b7e57614b7d61490a565b5b6000614b8c85828601614a18565b9250506020614b9d85828601614a70565b9150509250929050565b600080fd5b6000601f19601f8301169050919050565b7f4e487b7100000000000000000000000000000000000000000000000000000000600052604160045260246000fd5b614bf582614bac565b810181811067ffffffffffffffff82111715614c1457614c13614bbd565b5b80604052505050565b6000614c27614900565b9050614c338282614bec565b919050565b600067ffffffffffffffff821115614c5357614c52614bbd565b5b602082029050602081019050919050565b600080fd5b600080fd5b600067ffffffffffffffff821115614c8957614c88614bbd565b5b614c9282614bac565b9050602081019050919050565b82818337600083830152505050565b6000614cc1614cbc84614c6e565b614c1d565b905082815260208101848484011115614cdd57614cdc614c69565b5b614ce8848285614c9f565b509392505050565b600082601f830112614d0557614d04614ba7565b5b8135614d15848260208601614cae565b91505092915050565b6000614d31614d2c84614c38565b614c1d565b90508083825260208201905060208402830185811115614d5457614d53614c64565b5b835b81811015614d9b57803567ffffffffffffffff811115614d7957614d78614ba7565b5b808601614d868982614cf0565b85526020850194505050602081019050614d56565b5050509392505050565b600082601f830112614dba57614db9614ba7565b5b8135614dca848260208601614d1e565b91505092915050565b600067ffffffffffffffff821115614dee57614ded614bbd565b5b602082029050602081019050919050565b6000819050919050565b614e1281614dff565b8114614e1d57600080fd5b50565b600081359050614e2f81614e09565b92915050565b6000614e48614e4384614dd3565b614c1d565b90508083825260208201905060208402830185811115614e6b57614e6a614c64565b5b835b81811015614e945780614e808882614e20565b845260208401935050602081019050614e6d565b5050509392505050565b600082601f830112614eb357614eb2614ba7565b5b8135614ec3848260208601614e35565b91505092915050565b600080600080600060a08688031215614ee857614ee761490a565b5b6000614ef688828901614a18565b9550506020614f0788828901614a18565b945050604086013567ffffffffffffffff811115614f2857614f2761490f565b5b614f3488828901614da5565b935050606086013567ffffffffffffffff811115614f5557614f5461490f565b5b614f6188828901614e9e565b9250506080614f7288828901614a70565b9150509295509295909350565b600060208284031215614f9557614f9461490a565b5b6000614fa384828501614e20565b91505092915050565b614fb581614dff565b82525050565b6000602082019050614fd06000830184614fac565b92915050565b600063ffffffff82169050919050565b614fef81614fd6565b8114614ffa57600080fd5b50565b60008135905061500c81614fe6565b92915050565b6000602082840312156150285761502761490a565b5b600061503684828501614ffd565b91505092915050565b600080604083850312156150565761505561490a565b5b600061506485828601614e20565b925050602061507585828601614a18565b9150509250929050565b600080600080608085870312156150995761509861490a565b5b60006150a787828801614a18565b94505060206150b887828801614a18565b93505060406150c987828801614a70565b925050606085013567ffffffffffffffff8111156150ea576150e961490f565b5b6150f687828801614cf0565b91505092959194509250565b6000819050919050565b600061512761512261511d846149cf565b615102565b6149cf565b9050919050565b60006151398261510c565b9050919050565b600061514b8261512e565b9050919050565b61515b81615140565b82525050565b60006020820190506151766000830184615152565b92915050565b600080604083850312156151935761519261490a565b5b60006151a185828601614a18565b92505060206151b285828601614a18565b9150509250929050565b6151c581614893565b82525050565b6151d481614a85565b82525050565b600060e0820190506151ef600083018a6151bc565b6151fc60208301896151bc565b61520960408301886151bc565b61521660608301876149a5565b61522360808301866151cb565b61523060a08301856151bc565b61523d60c08301846151bc565b98975050505050505050565b600081519050919050565b600082825260208201905092915050565b6000819050602082019050919050565b61527e81614fd6565b82525050565b60006152908383615275565b60208301905092915050565b6000602082019050919050565b60006152b482615249565b6152be8185615254565b93506152c983615265565b8060005b838110156152fa5781516152e18882615284565b97506152ec8361529c565b9250506001810190506152cd565b5085935050505092915050565b6000602082019050818103600083015261532181846152a9565b905092915050565b600080fd5b60008083601f84011261534457615343614ba7565b5b8235905067ffffffffffffffff81111561536157615360615329565b5b60208301915083600182028301111561537d5761537c614c64565b5b9250929050565b6000806000806060858703121561539e5761539d61490a565b5b60006153ac87828801614ffd565b94505060206153bd87828801614e20565b935050604085013567ffffffffffffffff8111156153de576153dd61490f565b5b6153ea8782880161532e565b925092505092959194509250565b600080600080600060a086880312156154145761541361490a565b5b600061542288828901614a18565b955050602061543388828901614a70565b945050604061544488828901614a70565b935050606061545588828901614aaa565b925050608061546688828901614a70565b9150509295509295909350565b600080600080600060a0868803121561548f5761548e61490a565b5b600061549d88828901614a18565b95505060206154ae88828901614a70565b94505060406154bf88828901614a70565b93505060606154d088828901614a70565b92505060806154e188828901614a70565b9150509295509295909350565b600060208201905061550360008301846151bc565b92915050565b6000806000606084860312156155225761552161490a565b5b600061553086828701614a18565b935050602084013567ffffffffffffffff8111156155515761555061490f565b5b61555d86828701614da5565b925050604084013567ffffffffffffffff81111561557e5761557d61490f565b5b61558a86828701614e9e565b9150509250925092565b600081519050919050565b600082825260208201905092915050565b6000819050602082019050919050565b600081519050919050565b600082825260208201905092915050565b60005b838110156155fa5780820151818401526020810190506155df565b60008484015250505050565b6000615611826155c0565b61561b81856155cb565b935061562b8185602086016155dc565b61563481614bac565b840191505092915050565b600061564b8383615606565b905092915050565b6000602082019050919050565b600061566b82615594565b615675818561559f565b935083602082028501615687856155b0565b8060005b858110156156c357848403895281516156a4858261563f565b94506156af83615653565b925060208a0199505060018101905061568b565b50829750879550505050505092915050565b600060208201905081810360008301526156ef8184615660565b905092915050565b615700816149ef565b82525050565b600060208201905061571b60008301846156f7565b92915050565b60008083601f84011261573757615736614ba7565b5b8235905067ffffffffffffffff81111561575457615753615329565b5b6020830191508360408202830111156157705761576f614c64565b5b9250929050565b6000806020838503121561578e5761578d61490a565b5b600083013567ffffffffffffffff8111156157ac576157ab61490f565b5b6157b885828601615721565b92509250509250929050565b600080604083850312156157db576157da61490a565b5b60006157e985828601614ffd565b92505060206157fa85828601614e20565b9150509250929050565b600061580f8261512e565b9050919050565b61581f81615804565b82525050565b600060208201905061583a6000830184615816565b92915050565b600061584b8261512e565b9050919050565b61585b81615840565b82525050565b60006020820190506158766000830184615852565b92915050565b60008083601f84011261589257615891614ba7565b5b8235905067ffffffffffffffff8111156158af576158ae615329565b5b6020830191508360208202830111156158cb576158ca614c64565b5b9250929050565b60008083601f8401126158e8576158e7614ba7565b5b8235905067ffffffffffffffff81111561590557615904615329565b5b60208301915083602082028301111561592157615920614c64565b5b9250929050565b600080600080604085870312156159425761594161490a565b5b600085013567ffffffffffffffff8111156159605761595f61490f565b5b61596c8782880161587c565b9450945050602085013567ffffffffffffffff81111561598f5761598e61490f565b5b61599b878288016158d2565b925092505092959194509250565b60006159b48261512e565b9050919050565b6159c4816159a9565b82525050565b60006020820190506159df60008301846159bb565b92915050565b600060a0820190506159fa60008301886156f7565b615a0760208301876156f7565b615a1460408301866151bc565b615a2160608301856151bc565b615a2e60808301846151bc565b9695505050505050565b7f4e6f20746f6b656e73206465706f736974656400000000000000000000000000600082015250565b6000615a6e601383614816565b9150615a7982615a38565b602082019050919050565b60006020820190508181036000830152615a9d81615a61565b9050919050565b7f4475726174696f6e2063616e6e6f7420626520696e2074686520706173740000600082015250565b6000615ada601e83614816565b9150615ae582615aa4565b602082019050919050565b60006020820190508181036000830152615b0981615acd565b9050919050565b7f43616c6c6572206973206e6f74206170706f76656420666f722074686973206360008201527f616c6c0000000000000000000000000000000000000000000000000000000000602082015250565b6000615b6c602383614816565b9150615b7782615b10565b604082019050919050565b60006020820190508181036000830152615b9b81615b5f565b9050919050565b7f416363657373436f6e74726f6c3a2063616e206f6e6c792072656e6f756e636560008201527f20726f6c657320666f722073656c660000000000000000000000000000000000602082015250565b6000615bfe602f83614816565b9150615c0982615ba2565b604082019050919050565b60006020820190508181036000830152615c2d81615bf1565b9050919050565b7f4e6f20746f6b656e7320746f2077697468647261770000000000000000000000600082015250565b6000615c6a601583614816565b9150615c7582615c34565b602082019050919050565b60006020820190508181036000830152615c9981615c5d565b9050919050565b7f546f6b656e732063616e27742062652077697468647261776e206265666f726560008201527f2074686520756e6c6f636b2074696d6500000000000000000000000000000000602082015250565b6000615cfc603083614816565b9150615d0782615ca0565b604082019050919050565b60006020820190508181036000830152615d2b81615cef565b9050919050565b60008160601b9050919050565b6000615d4a82615d32565b9050919050565b6000615d5c82615d3f565b9050919050565b615d74615d6f826149ef565b615d51565b82525050565b6000819050919050565b615d95615d9082614893565b615d7a565b82525050565b6000615da78286615d63565b601482019150615db78285615d63565b601482019150615dc78284615d84565b602082019150819050949350505050565b7f496e76616c6964207369676e6174757265000000000000000000000000000000600082015250565b6000615e0e601183614816565b9150615e1982615dd8565b602082019050919050565b60006020820190508181036000830152615e3d81615e01565b9050919050565b600081519050615e5381614a59565b92915050565b600060208284031215615e6f57615e6e61490a565b5b6000615e7d84828501615e44565b91505092915050565b7f496e73756666696369656e742062616c616e636520696e20746865207661756c60008201527f7400000000000000000000000000000000000000000000000000000000000000602082015250565b6000615ee2602183614816565b9150615eed82615e86565b604082019050919050565b60006020820190508181036000830152615f1181615ed5565b9050919050565b7f496e73756666696369656e742062616c616e636520666f722075736572000000600082015250565b6000615f4e601d83614816565b9150615f5982615f18565b602082019050919050565b60006020820190508181036000830152615f7d81615f41565b9050919050565b6000604082019050615f9960008301856156f7565b615fa660208301846151bc565b9392505050565b600081519050615fbc81614a2d565b92915050565b600060208284031215615fd857615fd761490a565b5b6000615fe684828501615fad565b91505092915050565b7f216d61696c626f78000000000000000000000000000000000000000000000000600082015250565b6000616025600883614816565b915061603082615fef565b602082019050919050565b6000602082019050818103600083015261605481616018565b9050919050565b600081519050919050565b60006160718261605b565b61607b8185614816565b935061608b8185602086016155dc565b61609481614bac565b840191505092915050565b600060208201905081810360008301526160b98184616066565b905092915050565b7f546f6b656e732063616e2774206265206465706f73697465642061667465722060008201527f74686520756e6c6f636b2074696d650000000000000000000000000000000000602082015250565b600061611d602f83614816565b9150616128826160c1565b604082019050919050565b6000602082019050818103600083015261614c81616110565b9050919050565b600060408201905061616860008301856156f7565b61617560208301846156f7565b9392505050565b7f416c6c6f77616e6365206e6f742073756666696369656e740000000000000000600082015250565b60006161b2601883614816565b91506161bd8261617c565b602082019050919050565b600060208201905081810360008301526161e1816161a5565b9050919050565b60006060820190506161fd60008301866156f7565b61620a60208301856156f7565b61621760408301846151bc565b949350505050565b7f4e6f74207965742074696d6520746f2064697370656e73650000000000000000600082015250565b6000616255601883614816565b91506162608261621f565b602082019050919050565b6000602082019050818103600083015261628481616248565b9050919050565b600061629682614893565b91506162a183614893565b92508282026162af81614893565b915082820484148315176162c6576162c561489d565b5b5092915050565b7f4e487b7100000000000000000000000000000000000000000000000000000000600052601260045260246000fd5b600061630782614893565b915061631283614893565b925082616322576163216162cd565b5b828204905092915050565b7f4e6f2066756e647320746f20636c656172000000000000000000000000000000600082015250565b6000616363601183614816565b915061636e8261632d565b602082019050919050565b6000602082019050818103600083015261639281616356565b9050919050565b7f4172726179206c656e677468206265206174206d6f7374203300000000000000600082015250565b60006163cf601983614816565b91506163da82616399565b602082019050919050565b600060208201905081810360008301526163fe816163c2565b9050919050565b7f4e487b7100000000000000000000000000000000000000000000000000000000600052603260045260246000fd5b600081905092915050565b600061644a826155c0565b6164548185616434565b93506164648185602086016155dc565b80840191505092915050565b600061647c828461643f565b915081905092915050565b600061649282614893565b91507fffffffffffffffffffffffffffffffffffffffffffffffffffffffffffffffff82036164c4576164c361489d565b5b600182019050919050565b7f216c656e67746800000000000000000000000000000000000000000000000000600082015250565b6000616505600783614816565b9150616510826164cf565b602082019050919050565b60006020820190508181036000830152616534816164f8565b9050919050565b61654481614fd6565b82525050565b600060408201905061655f600083018561653b565b61656c60208301846151bc565b9392505050565b7f4f776e61626c653a206e6577206f776e657220697320746865207a65726f206160008201527f6464726573730000000000000000000000000000000000000000000000000000602082015250565b60006165cf602683614816565b91506165da82616573565b604082019050919050565b600060208201905081810360008301526165fe816165c2565b9050919050565b7f5061757361626c653a2070617573656400000000000000000000000000000000600082015250565b600061663b601083614816565b915061664682616605565b602082019050919050565b6000602082019050818103600083015261666a8161662e565b9050919050565b7f4f776e61626c653a2063616c6c6572206973206e6f7420746865206f776e6572600082015250565b60006166a7602083614816565b91506166b282616671565b602082019050919050565b600060208201905081810360008301526166d68161669a565b9050919050565b7f21636f6e74726163740000000000000000000000000000000000000000000000600082015250565b6000616713600983614816565b915061671e826166dd565b602082019050919050565b6000602082019050818103600083015261674281616706565b9050919050565b7f5265656e7472616e637947756172643a207265656e7472616e742063616c6c00600082015250565b600061677f601f83614816565b915061678a82616749565b602082019050919050565b600060208201905081810360008301526167ae81616772565b9050919050565b600081905092915050565b7f19457468657265756d205369676e6564204d6573736167653a0a333200000000600082015250565b60006167f6601c836167b5565b9150616801826167c0565b601c82019050919050565b6000819050919050565b61682761682282614dff565b61680c565b82525050565b6000616838826167e9565b91506168448284616816565b60208201915081905092915050565b600061685e82614893565b915061686983614893565b92508282039050818111156168815761688061489d565b5b92915050565b6000616892826149cf565b9050919050565b6168a281616887565b81146168ad57600080fd5b50565b6000813590506168bf81616899565b92915050565b600080600080608085870312156168df576168de61490a565b5b60006168ed878288016168b0565b94505060206168fe87828801614a70565b935050604061690f87828801614a70565b925050606061692087828801614a70565b91505092959194509250565b600060a082019050616941600083018861653b565b61694e60208301876156f7565b61695b60408301866151bc565b61696860608301856151bc565b61697560808301846151bc565b9695505050505050565b60006080820190506169946000830187614fac565b6169a1602083018661653b565b6169ae60408301856151bc565b6169bb60608301846156f7565b95945050505050565b7f416363657373436f6e74726f6c3a206163636f756e7420000000000000000000600082015250565b60006169fa6017836167b5565b9150616a05826169c4565b601782019050919050565b6000616a1b8261605b565b616a2581856167b5565b9350616a358185602086016155dc565b80840191505092915050565b7f206973206d697373696e6720726f6c6520000000000000000000000000000000600082015250565b6000616a776011836167b5565b9150616a8282616a41565b601182019050919050565b6000616a98826169ed565b9150616aa48285616a10565b9150616aaf82616a6a565b9150616abb8284616a10565b91508190509392505050565b600082825260208201905092915050565b6000616ae3826155c0565b616aed8185616ac7565b9350616afd8185602086016155dc565b616b0681614bac565b840191505092915050565b6000606082019050616b26600083018661653b565b616b336020830185614fac565b8181036040830152616b458184616ad8565b9050949350505050565b600081519050616b5e81614e09565b92915050565b600060208284031215616b7a57616b7961490a565b5b6000616b8884828501616b4f565b91505092915050565b6000616b9c82614893565b915060008203616baf57616bae61489d565b5b600182039050919050565b7f537472696e67733a20686578206c656e67746820696e73756666696369656e74600082015250565b6000616bf0602083614816565b9150616bfb82616bba565b602082019050919050565b60006020820190508181036000830152616c1f81616be3565b9050919050565b7f4e487b7100000000000000000000000000000000000000000000000000000000600052602160045260246000fd5b7f45434453413a20696e76616c6964207369676e61747572650000000000000000600082015250565b6000616c8b601883614816565b9150616c9682616c55565b602082019050919050565b60006020820190508181036000830152616cba81616c7e565b9050919050565b7f45434453413a20696e76616c6964207369676e6174757265206c656e67746800600082015250565b6000616cf7601f83614816565b9150616d0282616cc1565b602082019050919050565b60006020820190508181036000830152616d2681616cea565b9050919050565b7f45434453413a20696e76616c6964207369676e6174757265202773272076616c60008201527f7565000000000000000000000000000000000000000000000000000000000000602082015250565b6000616d89602283614816565b9150616d9482616d2d565b604082019050919050565b60006020820190508181036000830152616db881616d7c565b9050919050565b600060ff82169050919050565b616dd581616dbf565b82525050565b6000608082019050616df06000830187614fac565b616dfd6020830186616dcc565b616e0a6040830185614fac565b616e176060830184614fac565b9594505050505056fe4e6f20726f7574657220656e726f6c6c656420666f7220646f6d61696e2e2044696420796f7520737065636966792074686520726967687420646f6d61696e2049443fa26469706673582212209282a35ec8f456f3395bc6b8d363bee8b7bfb2e86965a2c710d20a2ed784261764736f6c63430008140033",
  "linkReferences": {},
  "deployedLinkReferences": {}
}