{
  "_format": "hh-sol-artifact-1",
  "contractName": "TokenVault",
  "sourceName": "contracts/DispensingVault.sol",
  "abi": [
    {
      "inputs": [
        {
          "internalType": "uint32",
          "name": "_destination",
          "type": "uint32"
        }
      ],
      "stateMutability": "nonpayable",
      "type": "constructor"
    },
    {
      "anonymous": false,
      "inputs": [
        {
          "indexed": true,
          "internalType": "uint32",
          "name": "domain",
          "type": "uint32"
        },
        {
          "indexed": false,
          "internalType": "uint256",
          "name": "gas",
          "type": "uint256"
        }
      ],
      "name": "DestinationGasSet",
      "type": "event"
    },
    {
      "anonymous": false,
      "inputs": [
        {
          "indexed": false,
          "internalType": "uint8",
          "name": "version",
          "type": "uint8"
        }
      ],
      "name": "Initialized",
      "type": "event"
    },
    {
      "anonymous": false,
      "inputs": [
        {
          "indexed": true,
          "internalType": "address",
          "name": "interchainGasPaymaster",
          "type": "address"
        }
      ],
      "name": "InterchainGasPaymasterSet",
      "type": "event"
    },
    {
      "anonymous": false,
      "inputs": [
        {
          "indexed": true,
          "internalType": "address",
          "name": "module",
          "type": "address"
        }
      ],
      "name": "InterchainSecurityModuleSet",
      "type": "event"
    },
    {
      "anonymous": false,
      "inputs": [
        {
          "indexed": true,
          "internalType": "address",
          "name": "mailbox",
          "type": "address"
        }
      ],
      "name": "MailboxSet",
      "type": "event"
    },
    {
      "anonymous": false,
      "inputs": [
        {
          "indexed": true,
          "internalType": "address",
          "name": "previousOwner",
          "type": "address"
        },
        {
          "indexed": true,
          "internalType": "address",
          "name": "newOwner",
          "type": "address"
        }
      ],
      "name": "OwnershipTransferred",
      "type": "event"
    },
    {
      "anonymous": false,
      "inputs": [
        {
          "indexed": false,
          "internalType": "address",
          "name": "account",
          "type": "address"
        }
      ],
      "name": "Paused",
      "type": "event"
    },
    {
      "anonymous": false,
      "inputs": [
        {
          "indexed": false,
          "internalType": "uint32",
          "name": "origin",
          "type": "uint32"
        },
        {
          "indexed": false,
          "internalType": "address",
          "name": "user",
          "type": "address"
        },
        {
          "indexed": false,
          "internalType": "uint256",
          "name": "addedValue",
          "type": "uint256"
        },
        {
          "indexed": false,
          "internalType": "uint256",
          "name": "addedWithdrawn",
          "type": "uint256"
        },
        {
          "indexed": false,
          "internalType": "uint256",
          "name": "addedDebt",
          "type": "uint256"
        }
      ],
      "name": "ProfileUpdated",
      "type": "event"
    },
    {
      "anonymous": false,
      "inputs": [
        {
          "indexed": true,
          "internalType": "uint32",
          "name": "domain",
          "type": "uint32"
        },
        {
          "indexed": false,
          "internalType": "bytes32",
          "name": "router",
          "type": "bytes32"
        }
      ],
      "name": "RemoteRouterEnrolled",
      "type": "event"
    },
    {
      "anonymous": false,
      "inputs": [
        {
          "indexed": true,
          "internalType": "bytes32",
          "name": "role",
          "type": "bytes32"
        },
        {
          "indexed": true,
          "internalType": "bytes32",
          "name": "previousAdminRole",
          "type": "bytes32"
        },
        {
          "indexed": true,
          "internalType": "bytes32",
          "name": "newAdminRole",
          "type": "bytes32"
        }
      ],
      "name": "RoleAdminChanged",
      "type": "event"
    },
    {
      "anonymous": false,
      "inputs": [
        {
          "indexed": true,
          "internalType": "bytes32",
          "name": "role",
          "type": "bytes32"
        },
        {
          "indexed": true,
          "internalType": "address",
          "name": "account",
          "type": "address"
        },
        {
          "indexed": true,
          "internalType": "address",
          "name": "sender",
          "type": "address"
        }
      ],
      "name": "RoleGranted",
      "type": "event"
    },
    {
      "anonymous": false,
      "inputs": [
        {
          "indexed": true,
          "internalType": "bytes32",
          "name": "role",
          "type": "bytes32"
        },
        {
          "indexed": true,
          "internalType": "address",
          "name": "account",
          "type": "address"
        },
        {
          "indexed": true,
          "internalType": "address",
          "name": "sender",
          "type": "address"
        }
      ],
      "name": "RoleRevoked",
      "type": "event"
    },
    {
      "anonymous": false,
      "inputs": [
        {
          "indexed": false,
          "internalType": "address",
          "name": "account",
          "type": "address"
        }
      ],
      "name": "Unpaused",
      "type": "event"
    },
    {
      "inputs": [],
      "name": "DEFAULT_ADMIN_ROLE",
      "outputs": [
        {
          "internalType": "bytes32",
          "name": "",
          "type": "bytes32"
        }
      ],
      "stateMutability": "view",
      "type": "function"
    },
    {
      "inputs": [],
      "name": "RELAYER_ROLE",
      "outputs": [
        {
          "internalType": "bytes32",
          "name": "",
          "type": "bytes32"
        }
      ],
      "stateMutability": "view",
      "type": "function"
    },
    {
      "inputs": [
        {
          "internalType": "address",
          "name": "_tokenAddress",
          "type": "address"
        },
        {
          "internalType": "bool",
          "name": "_amountDispenser",
          "type": "bool"
        },
        {
          "internalType": "uint256",
          "name": "_dispensingPeriod",
          "type": "uint256"
        },
        {
          "internalType": "uint16",
          "name": "_percentageToDispense",
          "type": "uint16"
        },
        {
          "internalType": "uint256",
          "name": "_amountToDispense",
          "type": "uint256"
        }
      ],
      "name": "changeDispensingSetting",
      "outputs": [],
      "stateMutability": "nonpayable",
      "type": "function"
    },
    {
      "inputs": [
        {
          "internalType": "address",
          "name": "_tokenAddress",
          "type": "address"
        },
        {
          "internalType": "uint256",
          "name": "_newLockDuration",
          "type": "uint256"
        }
      ],
      "name": "changeLockDuration",
      "outputs": [],
      "stateMutability": "nonpayable",
      "type": "function"
    },
    {
      "inputs": [
        {
          "internalType": "address",
          "name": "_tokenAddress",
          "type": "address"
        },
        {
          "internalType": "address",
          "name": "_recipient",
          "type": "address"
        }
      ],
      "name": "clearStuckFunds",
      "outputs": [],
      "stateMutability": "nonpayable",
      "type": "function"
    },
    {
      "inputs": [],
      "name": "defaultUnlock",
      "outputs": [
        {
          "internalType": "uint256",
          "name": "",
          "type": "uint256"
        }
      ],
      "stateMutability": "view",
      "type": "function"
    },
    {
      "inputs": [
        {
          "internalType": "address",
          "name": "_tokenAddress",
          "type": "address"
        },
        {
          "internalType": "uint256",
          "name": "_amount",
          "type": "uint256"
        },
        {
          "internalType": "uint256",
          "name": "_lockDuration",
          "type": "uint256"
        },
        {
          "internalType": "uint16",
          "name": "_percentageToDispense",
          "type": "uint16"
        },
        {
          "internalType": "uint256",
          "name": "_dispensingPeriod",
          "type": "uint256"
        }
      ],
      "name": "deposit",
      "outputs": [],
      "stateMutability": "nonpayable",
      "type": "function"
    },
    {
      "inputs": [
        {
          "internalType": "address",
          "name": "_tokenAddress",
          "type": "address"
        },
        {
          "internalType": "uint256",
          "name": "_amount",
          "type": "uint256"
        },
        {
          "internalType": "uint256",
          "name": "_lockDuration",
          "type": "uint256"
        },
        {
          "internalType": "uint256",
          "name": "_amountToDispense",
          "type": "uint256"
        },
        {
          "internalType": "uint256",
          "name": "_dispensingPeriod",
          "type": "uint256"
        }
      ],
      "name": "deposit",
      "outputs": [],
      "stateMutability": "nonpayable",
      "type": "function"
    },
    {
      "inputs": [
        {
          "internalType": "uint32",
          "name": "",
          "type": "uint32"
        }
      ],
      "name": "destinationGas",
      "outputs": [
        {
          "internalType": "uint256",
          "name": "",
          "type": "uint256"
        }
      ],
      "stateMutability": "view",
      "type": "function"
    },
    {
      "inputs": [
        {
          "internalType": "address",
          "name": "_tokenAddress",
          "type": "address"
        }
      ],
      "name": "dispenseFund",
      "outputs": [],
      "stateMutability": "nonpayable",
      "type": "function"
    },
    {
      "inputs": [],
      "name": "domains",
      "outputs": [
        {
          "internalType": "uint32[]",
          "name": "",
          "type": "uint32[]"
        }
      ],
      "stateMutability": "view",
      "type": "function"
    },
    {
      "inputs": [
        {
          "internalType": "uint32",
          "name": "_domain",
          "type": "uint32"
        },
        {
          "internalType": "bytes32",
          "name": "_router",
          "type": "bytes32"
        }
      ],
      "name": "enrollRemoteRouter",
      "outputs": [],
      "stateMutability": "nonpayable",
      "type": "function"
    },
    {
      "inputs": [
        {
          "internalType": "uint32[]",
          "name": "_domains",
          "type": "uint32[]"
        },
        {
          "internalType": "bytes32[]",
          "name": "_addresses",
          "type": "bytes32[]"
        }
      ],
      "name": "enrollRemoteRouters",
      "outputs": [],
      "stateMutability": "nonpayable",
      "type": "function"
    },
    {
      "inputs": [
        {
          "internalType": "bytes32",
          "name": "role",
          "type": "bytes32"
        }
      ],
      "name": "getRoleAdmin",
      "outputs": [
        {
          "internalType": "bytes32",
          "name": "",
          "type": "bytes32"
        }
      ],
      "stateMutability": "view",
      "type": "function"
    },
    {
      "inputs": [
        {
          "internalType": "bytes32",
          "name": "role",
          "type": "bytes32"
        },
        {
          "internalType": "address",
          "name": "account",
          "type": "address"
        }
      ],
      "name": "grantRole",
      "outputs": [],
      "stateMutability": "nonpayable",
      "type": "function"
    },
    {
      "inputs": [
        {
          "internalType": "uint32",
          "name": "_origin",
          "type": "uint32"
        },
        {
          "internalType": "bytes32",
          "name": "_sender",
          "type": "bytes32"
        },
        {
          "internalType": "bytes",
          "name": "_message",
          "type": "bytes"
        }
      ],
      "name": "handle",
      "outputs": [],
      "stateMutability": "nonpayable",
      "type": "function"
    },
    {
      "inputs": [
        {
          "internalType": "bytes32",
          "name": "role",
          "type": "bytes32"
        },
        {
          "internalType": "address",
          "name": "account",
          "type": "address"
        }
      ],
      "name": "hasRole",
      "outputs": [
        {
          "internalType": "bool",
          "name": "",
          "type": "bool"
        }
      ],
      "stateMutability": "view",
      "type": "function"
    },
    {
      "inputs": [],
      "name": "interchainGasPaymaster",
      "outputs": [
        {
          "internalType": "contract IInterchainGasPaymaster",
          "name": "",
          "type": "address"
        }
      ],
      "stateMutability": "view",
      "type": "function"
    },
    {
      "inputs": [],
      "name": "interchainSecurityModule",
      "outputs": [
        {
          "internalType": "contract IInterchainSecurityModule",
          "name": "",
          "type": "address"
        }
      ],
      "stateMutability": "view",
      "type": "function"
    },
    {
      "inputs": [],
      "name": "mailbox",
      "outputs": [
        {
          "internalType": "contract IMailbox",
          "name": "",
          "type": "address"
        }
      ],
      "stateMutability": "view",
      "type": "function"
    },
    {
      "inputs": [],
      "name": "owner",
      "outputs": [
        {
          "internalType": "address",
          "name": "",
          "type": "address"
        }
      ],
      "stateMutability": "view",
      "type": "function"
    },
    {
      "inputs": [],
      "name": "paused",
      "outputs": [
        {
          "internalType": "bool",
          "name": "",
          "type": "bool"
        }
      ],
      "stateMutability": "view",
      "type": "function"
    },
    {
      "inputs": [
        {
          "internalType": "uint32",
          "name": "_destinationDomain",
          "type": "uint32"
        }
      ],
      "name": "quoteGasPayment",
      "outputs": [
        {
          "internalType": "uint256",
          "name": "_gasPayment",
          "type": "uint256"
        }
      ],
      "stateMutability": "view",
      "type": "function"
    },
    {
      "inputs": [],
      "name": "renounceOwnership",
      "outputs": [],
      "stateMutability": "nonpayable",
      "type": "function"
    },
    {
      "inputs": [
        {
          "internalType": "bytes32",
          "name": "role",
          "type": "bytes32"
        },
        {
          "internalType": "address",
          "name": "account",
          "type": "address"
        }
      ],
      "name": "renounceRole",
      "outputs": [],
      "stateMutability": "nonpayable",
      "type": "function"
    },
    {
      "inputs": [
        {
          "internalType": "bytes32",
          "name": "role",
          "type": "bytes32"
        },
        {
          "internalType": "address",
          "name": "account",
          "type": "address"
        }
      ],
      "name": "revokeRole",
      "outputs": [],
      "stateMutability": "nonpayable",
      "type": "function"
    },
    {
      "inputs": [
        {
          "internalType": "uint32",
          "name": "_domain",
          "type": "uint32"
        }
      ],
      "name": "routers",
      "outputs": [
        {
          "internalType": "bytes32",
          "name": "",
          "type": "bytes32"
        }
      ],
      "stateMutability": "view",
      "type": "function"
    },
    {
      "inputs": [
        {
          "components": [
            {
              "internalType": "uint32",
              "name": "domain",
              "type": "uint32"
            },
            {
              "internalType": "uint256",
              "name": "gas",
              "type": "uint256"
            }
          ],
          "internalType": "struct GasRouter.GasRouterConfig[]",
          "name": "gasConfigs",
          "type": "tuple[]"
        }
      ],
      "name": "setDestinationGas",
      "outputs": [],
      "stateMutability": "nonpayable",
      "type": "function"
    },
    {
      "inputs": [
        {
          "internalType": "address",
          "name": "_interchainGasPaymaster",
          "type": "address"
        }
      ],
      "name": "setInterchainGasPaymaster",
      "outputs": [],
      "stateMutability": "nonpayable",
      "type": "function"
    },
    {
      "inputs": [
        {
          "internalType": "address",
          "name": "_module",
          "type": "address"
        }
      ],
      "name": "setInterchainSecurityModule",
      "outputs": [],
      "stateMutability": "nonpayable",
      "type": "function"
    },
    {
      "inputs": [
        {
          "internalType": "address",
          "name": "_mailbox",
          "type": "address"
        }
      ],
      "name": "setMailbox",
      "outputs": [],
      "stateMutability": "nonpayable",
      "type": "function"
    },
    {
      "inputs": [
        {
          "internalType": "bytes4",
          "name": "interfaceId",
          "type": "bytes4"
        }
      ],
      "name": "supportsInterface",
      "outputs": [
        {
          "internalType": "bool",
          "name": "",
          "type": "bool"
        }
      ],
      "stateMutability": "view",
      "type": "function"
    },
    {
      "inputs": [],
      "name": "token",
      "outputs": [
        {
          "internalType": "contract IERC20",
          "name": "",
          "type": "address"
        }
      ],
      "stateMutability": "view",
      "type": "function"
    },
    {
      "inputs": [
        {
          "internalType": "address",
          "name": "newOwner",
          "type": "address"
        }
      ],
      "name": "transferOwnership",
      "outputs": [],
      "stateMutability": "nonpayable",
      "type": "function"
    },
    {
      "inputs": [
        {
          "internalType": "address",
          "name": "",
          "type": "address"
        },
        {
          "internalType": "address",
          "name": "",
          "type": "address"
        }
      ],
      "name": "userDeposits",
      "outputs": [
        {
          "internalType": "uint256",
          "name": "amount",
          "type": "uint256"
        },
        {
          "internalType": "uint256",
          "name": "lockDuration",
          "type": "uint256"
        },
        {
          "internalType": "uint256",
          "name": "dispensingPeriod",
          "type": "uint256"
        },
        {
          "internalType": "bool",
          "name": "amountDispenser",
          "type": "bool"
        },
        {
          "internalType": "uint16",
          "name": "percentageToDispense",
          "type": "uint16"
        },
        {
          "internalType": "uint256",
          "name": "amountToDispense",
          "type": "uint256"
        },
        {
          "internalType": "uint256",
          "name": "lastDispensedTime",
          "type": "uint256"
        }
      ],
      "stateMutability": "view",
      "type": "function"
    },
    {
      "inputs": [
        {
          "internalType": "address",
          "name": "_tokenAddress",
          "type": "address"
        },
        {
          "internalType": "uint256",
          "name": "_amount",
          "type": "uint256"
        }
      ],
      "name": "withdraw",
      "outputs": [],
      "stateMutability": "nonpayable",
      "type": "function"
    },
    {
      "inputs": [
        {
          "internalType": "address",
          "name": "_user",
          "type": "address"
        },
        {
          "internalType": "address",
          "name": "_tokenAddress",
          "type": "address"
        },
        {
          "internalType": "uint256",
          "name": "_amount",
          "type": "uint256"
        },
        {
          "internalType": "bytes",
          "name": "signature",
          "type": "bytes"
        }
      ],
      "name": "withdrawWithSignature",
      "outputs": [],
      "stateMutability": "nonpayable",
      "type": "function"
    },
    {
      "stateMutability": "payable",
      "type": "receive"
    }
  ],
  "bytecode": "0x6080604052620186a06101335562a8c000610135553480156200002157600080fd5b5060405162006823380380620068238339818101604052810190620000479190620002cb565b6001600081905550600061013260006101000a81548160ff0219169083151502179055506200009d7fe2b7fb3b832174769106daebcfd6d1970523240dda11281102db9363b83b0dc4336200010860201b60201c565b3361013660006101000a81548173ffffffffffffffffffffffffffffffffffffffff021916908373ffffffffffffffffffffffffffffffffffffffff1602179055508061013660146101000a81548163ffffffff021916908363ffffffff16021790555050620002fd565b6200011a82826200011e60201b60201c565b5050565b6200013082826200021160201b60201c565b6200020d576001610100600084815260200190815260200160002060000160008373ffffffffffffffffffffffffffffffffffffffff1673ffffffffffffffffffffffffffffffffffffffff16815260200190815260200160002060006101000a81548160ff021916908315150217905550620001b26200027d60201b60201c565b73ffffffffffffffffffffffffffffffffffffffff168173ffffffffffffffffffffffffffffffffffffffff16837f2f8788117e7eff1d82e926ec794901d17c78024a50270940304540a733656f0d60405160405180910390a45b5050565b6000610100600084815260200190815260200160002060000160008373ffffffffffffffffffffffffffffffffffffffff1673ffffffffffffffffffffffffffffffffffffffff16815260200190815260200160002060009054906101000a900460ff16905092915050565b600033905090565b600080fd5b600063ffffffff82169050919050565b620002a5816200028a565b8114620002b157600080fd5b50565b600081519050620002c5816200029a565b92915050565b600060208284031215620002e457620002e362000285565b5b6000620002f484828501620002b4565b91505092915050565b616516806200030d6000396000f3fe60806040526004361061021e5760003560e01c8063715018a611610123578063d5438eae116100ab578063f2ed8c531161006f578063f2ed8c5314610b75578063f2fde38b14610bb2578063f3c61d6b14610bdb578063f3fef3a314610c04578063fc0c546a14610c2d576105d2565b8063d5438eae14610aa4578063d547741f14610acf578063de523cf314610af8578063e9198bf914610b23578063f1bd6f0a14610b4c576105d2565b806392627d9f116100f257806392627d9f146109d1578063926d7d7f146109fc578063a217fddf14610a27578063b1bd643614610a52578063b49c53a714610a7b576105d2565b8063715018a614610915578063775313a11461092c5780638da5cb5b1461096957806391d1485414610994576105d2565b806339bb4ad9116101a65780635c0e1b56116101755780635c0e1b56146108465780635c975abb1461086f5780635f0f91fd1461089a57806360f813ed146108c357806368936809146108ec576105d2565b806339bb4ad914610784578063436d8039146107af578063440df4f4146107f257806356d5d4751461081d576105d2565b8063248a9ca3116101ed578063248a9ca31461068f5780632ead72f6146106cc5780632f2ff15d1461070957806336568abe1461073257806337d63c761461075b576105d2565b806301ffc9a7146105d75780630af864fb146106145780630e72cc061461063d5780631659dec114610666576105d2565b366105d25760006103e990506000341161026d576040517f08c379a0000000000000000000000000000000000000000000000000000000008152600401610264906143bf565b60405180910390fd5b600061013760003373ffffffffffffffffffffffffffffffffffffffff1673ffffffffffffffffffffffffffffffffffffffff16815260200190815260200160002060008373ffffffffffffffffffffffffffffffffffffffff1673ffffffffffffffffffffffffffffffffffffffff16815260200190815260200160002090506000816000015403610437576040518060e0016040528034815260200161013554815260200162278d00815260200160001515815260200161208d61ffff168152602001600081526020014281525061013760003373ffffffffffffffffffffffffffffffffffffffff1673ffffffffffffffffffffffffffffffffffffffff16815260200190815260200160002060008473ffffffffffffffffffffffffffffffffffffffff1673ffffffffffffffffffffffffffffffffffffffff16815260200190815260200160002060008201518160000155602082015181600101556040820151816002015560608201518160030160006101000a81548160ff02191690831515021790555060808201518160030160016101000a81548161ffff021916908361ffff16021790555060a0820151816004015560c08201518160050155905050610586565b6101355481600101600082825461044e9190614418565b9250508190555061046c348260000154610c5890919063ffffffff16565b81600001819055508061013760003373ffffffffffffffffffffffffffffffffffffffff1673ffffffffffffffffffffffffffffffffffffffff16815260200190815260200160002060008473ffffffffffffffffffffffffffffffffffffffff1673ffffffffffffffffffffffffffffffffffffffff1681526020019081526020016000206000820154816000015560018201548160010155600282015481600201556003820160009054906101000a900460ff168160030160006101000a81548160ff0219169083151502179055506003820160019054906101000a900461ffff168160030160016101000a81548161ffff021916908361ffff16021790555060048201548160040155600582015481600501559050505b6105d061013660009054906101000a900473ffffffffffffffffffffffffffffffffffffffff1661013660149054906101000a900463ffffffff16620186a0338634600080610c6e565b005b600080fd5b3480156105e357600080fd5b506105fe60048036038101906105f991906144b8565b610cb1565b60405161060b9190614500565b60405180910390f35b34801561062057600080fd5b5061063b6004803603810190610636919061460b565b610d2b565b005b34801561064957600080fd5b50610664600480360381019061065f9190614686565b610f61565b005b34801561067257600080fd5b5061068d600480360381019061068891906146b3565b610f75565b005b34801561069b57600080fd5b506106b660048036038101906106b19190614729565b6111a6565b6040516106c39190614765565b60405180910390f35b3480156106d857600080fd5b506106f360048036038101906106ee91906147bc565b6111c7565b6040516107009190614765565b60405180910390f35b34801561071557600080fd5b50610730600480360381019061072b91906147e9565b6111f0565b005b34801561073e57600080fd5b50610759600480360381019061075491906147e9565b611211565b005b34801561076757600080fd5b50610782600480360381019061077d919061496f565b611294565b005b34801561079057600080fd5b50610799611680565b6040516107a69190614a51565b60405180910390f35b3480156107bb57600080fd5b506107d660048036038101906107d19190614a6c565b6116a6565b6040516107e99796959493929190614aca565b60405180910390f35b3480156107fe57600080fd5b50610807611711565b6040516108149190614bf7565b60405180910390f35b34801561082957600080fd5b50610844600480360381019061083f9190614c79565b611722565b005b34801561085257600080fd5b5061086d60048036038101906108689190614ced565b61182d565b005b34801561087b57600080fd5b50610884611d76565b6040516108919190614500565b60405180910390f35b3480156108a657600080fd5b506108c160048036038101906108bc9190614686565b611d8e565b005b3480156108cf57600080fd5b506108ea60048036038101906108e59190614a6c565b6120f7565b005b3480156108f857600080fd5b50610913600480360381019061090e9190614d68565b61224a565b005b34801561092157600080fd5b5061092a612793565b005b34801561093857600080fd5b50610953600480360381019061094e91906147bc565b6127a7565b6040516109609190614de3565b60405180910390f35b34801561097557600080fd5b5061097e6127bf565b60405161098b9190614e0d565b60405180910390f35b3480156109a057600080fd5b506109bb60048036038101906109b691906147e9565b6127e9565b6040516109c89190614500565b60405180910390f35b3480156109dd57600080fd5b506109e6612855565b6040516109f39190614de3565b60405180910390f35b348015610a0857600080fd5b50610a1161285c565b604051610a1e9190614765565b60405180910390f35b348015610a3357600080fd5b50610a3c612880565b604051610a499190614765565b60405180910390f35b348015610a5e57600080fd5b50610a796004803603810190610a749190614e7e565b612887565b005b348015610a8757600080fd5b50610aa26004803603810190610a9d9190614ecb565b612906565b005b348015610ab057600080fd5b50610ab961291c565b604051610ac69190614f2c565b60405180910390f35b348015610adb57600080fd5b50610af66004803603810190610af191906147e9565b612942565b005b348015610b0457600080fd5b50610b0d612963565b604051610b1a9190614f68565b60405180910390f35b348015610b2f57600080fd5b50610b4a6004803603810190610b45919061502f565b612989565b005b348015610b5857600080fd5b50610b736004803603810190610b6e9190614686565b612a52565b005b348015610b8157600080fd5b50610b9c6004803603810190610b9791906147bc565b612a66565b604051610ba99190614de3565b60405180910390f35b348015610bbe57600080fd5b50610bd96004803603810190610bd49190614686565b612b2c565b005b348015610be757600080fd5b50610c026004803603810190610bfd9190614686565b612baf565b005b348015610c1057600080fd5b50610c2b6004803603810190610c2691906146b3565b612bc3565b005b348015610c3957600080fd5b50610c42612eec565b604051610c4f91906150d1565b60405180910390f35b60008183610c669190614418565b905092915050565b6000610ca3888787878787604051602001610c8d9594939291906150ec565b604051602081830303815290604052898c612f13565b905098975050505050505050565b60007f7965db0b000000000000000000000000000000000000000000000000000000007bffffffffffffffffffffffffffffffffffffffffffffffffffffffff1916827bffffffffffffffffffffffffffffffffffffffffffffffffffffffff19161480610d245750610d2382612f4b565b5b9050919050565b610d33612fb5565b600061013760003373ffffffffffffffffffffffffffffffffffffffff1673ffffffffffffffffffffffffffffffffffffffff16815260200190815260200160002060008773ffffffffffffffffffffffffffffffffffffffff1673ffffffffffffffffffffffffffffffffffffffff16815260200190815260200160002090506000816000015411610dfb576040517f08c379a0000000000000000000000000000000000000000000000000000000008152600401610df29061518b565b60405180910390fd5b848160030160006101000a81548160ff021916908315150217905550838160020181905550828160030160016101000a81548161ffff021916908361ffff1602179055508181600401819055508061013760003373ffffffffffffffffffffffffffffffffffffffff1673ffffffffffffffffffffffffffffffffffffffff16815260200190815260200160002060008873ffffffffffffffffffffffffffffffffffffffff1673ffffffffffffffffffffffffffffffffffffffff1681526020019081526020016000206000820154816000015560018201548160010155600282015481600201556003820160009054906101000a900460ff168160030160006101000a81548160ff0219169083151502179055506003820160019054906101000a900461ffff168160030160016101000a81548161ffff021916908361ffff1602179055506004820154816004015560058201548160050155905050505050505050565b610f69612fff565b610f728161307d565b50565b610f7d612fb5565b600061013760003373ffffffffffffffffffffffffffffffffffffffff1673ffffffffffffffffffffffffffffffffffffffff16815260200190815260200160002060008473ffffffffffffffffffffffffffffffffffffffff1673ffffffffffffffffffffffffffffffffffffffff16815260200190815260200160002090506000816000015411611045576040517f08c379a000000000000000000000000000000000000000000000000000000000815260040161103c9061518b565b60405180910390fd5b428211611087576040517f08c379a000000000000000000000000000000000000000000000000000000000815260040161107e906151f7565b60405180910390fd5b8181600101819055508061013760003373ffffffffffffffffffffffffffffffffffffffff1673ffffffffffffffffffffffffffffffffffffffff16815260200190815260200160002060008573ffffffffffffffffffffffffffffffffffffffff1673ffffffffffffffffffffffffffffffffffffffff1681526020019081526020016000206000820154816000015560018201548160010155600282015481600201556003820160009054906101000a900460ff168160030160006101000a81548160ff0219169083151502179055506003820160019054906101000a900461ffff168160030160016101000a81548161ffff021916908361ffff1602179055506004820154816004015560058201548160050155905050505050565b60006101006000838152602001908152602001600020600101549050919050565b6000806111e48363ffffffff16609961318390919063ffffffff16565b91505080915050919050565b6111f9826111a6565b611202816131aa565b61120c83836131be565b505050565b6112196132a0565b73ffffffffffffffffffffffffffffffffffffffff168173ffffffffffffffffffffffffffffffffffffffff1614611286576040517f08c379a000000000000000000000000000000000000000000000000000000000815260040161127d90615289565b60405180910390fd5b61129082826132a8565b5050565b61129c612fb5565b6112a461338b565b600061013760008673ffffffffffffffffffffffffffffffffffffffff1673ffffffffffffffffffffffffffffffffffffffff16815260200190815260200160002060008573ffffffffffffffffffffffffffffffffffffffff1673ffffffffffffffffffffffffffffffffffffffff1681526020019081526020016000209050600081600001541161136c576040517f08c379a0000000000000000000000000000000000000000000000000000000008152600401611363906152f5565b60405180910390fd5b80600101544210156113b3576040517f08c379a00000000000000000000000000000000000000000000000000000000081526004016113aa90615387565b60405180910390fd5b60008585856040516020016113ca93929190615410565b6040516020818303038152906040528051906020012090506113ed8184886133da565b61142c576040517f08c379a000000000000000000000000000000000000000000000000000000000815260040161142390615499565b60405180910390fd5b6000826000015411611473576040517f08c379a000000000000000000000000000000000000000000000000000000000815260040161146a906152f5565b60405180910390fd5b600085905060008173ffffffffffffffffffffffffffffffffffffffff166370a08231306040518263ffffffff1660e01b81526004016114b39190614e0d565b602060405180830381865afa1580156114d0573d6000803e3d6000fd5b505050506040513d601f19601f820116820180604052508101906114f491906154ce565b9050836000015481101561153d576040517f08c379a00000000000000000000000000000000000000000000000000000000081526004016115349061556d565b60405180910390fd5b8360000154861115611584576040517f08c379a000000000000000000000000000000000000000000000000000000000815260040161157b906155d9565b60405180910390fd5b61159b86856000015461344e90919063ffffffff16565b84600001819055508173ffffffffffffffffffffffffffffffffffffffff1663a9059cbb89886040518363ffffffff1660e01b81526004016115de9291906155f9565b6020604051808303816000875af11580156115fd573d6000803e3d6000fd5b505050506040513d601f19601f820116820180604052508101906116219190615637565b5061166d61013660009054906101000a900473ffffffffffffffffffffffffffffffffffffffff1661013660149054906101000a900463ffffffff16620186a08b8b60008c6000610c6e565b505050505061167a613464565b50505050565b606760009054906101000a900473ffffffffffffffffffffffffffffffffffffffff1681565b610137602052816000526040600020602052806000526040600020600091509150508060000154908060010154908060020154908060030160009054906101000a900460ff16908060030160019054906101000a900461ffff16908060040154908060050154905087565b606061171d609961346e565b905090565b606660009054906101000a900473ffffffffffffffffffffffffffffffffffffffff1673ffffffffffffffffffffffffffffffffffffffff163373ffffffffffffffffffffffffffffffffffffffff16146117b2576040517f08c379a00000000000000000000000000000000000000000000000000000000081526004016117a9906156b0565b60405180910390fd5b83836117be8282613537565b60405180608001604052806043815260200161649e6043913990611818576040517f08c379a000000000000000000000000000000000000000000000000000000000815260040161180f919061573e565b60405180910390fd5b506118258686868661354c565b505050505050565b611835612fb5565b61183d61338b565b82421061187f576040517f08c379a0000000000000000000000000000000000000000000000000000000008152600401611876906157d2565b60405180910390fd5b600084116118c2576040517f08c379a00000000000000000000000000000000000000000000000000000000081526004016118b9906143bf565b60405180910390fd5b600085905060008173ffffffffffffffffffffffffffffffffffffffff1663dd62ed3e33306040518363ffffffff1660e01b81526004016119049291906157f2565b602060405180830381865afa158015611921573d6000803e3d6000fd5b505050506040513d601f19601f8201168201806040525081019061194591906154ce565b90508581101561198a576040517f08c379a000000000000000000000000000000000000000000000000000000000815260040161198190615867565b60405180910390fd5b8173ffffffffffffffffffffffffffffffffffffffff166323b872dd3330896040518463ffffffff1660e01b81526004016119c793929190615887565b6020604051808303816000875af11580156119e6573d6000803e3d6000fd5b505050506040513d601f19601f82011682018060405250810190611a0a9190615637565b50600061013760003373ffffffffffffffffffffffffffffffffffffffff1673ffffffffffffffffffffffffffffffffffffffff16815260200190815260200160002060008973ffffffffffffffffffffffffffffffffffffffff1673ffffffffffffffffffffffffffffffffffffffff16815260200190815260200160002090506000816000015403611bcd576040518060e001604052808881526020018781526020018581526020016000151581526020018661ffff168152602001600081526020014281525061013760003373ffffffffffffffffffffffffffffffffffffffff1673ffffffffffffffffffffffffffffffffffffffff16815260200190815260200160002060008a73ffffffffffffffffffffffffffffffffffffffff1673ffffffffffffffffffffffffffffffffffffffff16815260200190815260200160002060008201518160000155602082015181600101556040820151816002015560608201518160030160006101000a81548160ff02191690831515021790555060808201518160030160016101000a81548161ffff021916908361ffff16021790555060a0820151816004015560c08201518160050155905050611d19565b85816001016000828254611be19190614418565b92505081905550611bff878260000154610c5890919063ffffffff16565b81600001819055508061013760003373ffffffffffffffffffffffffffffffffffffffff1673ffffffffffffffffffffffffffffffffffffffff16815260200190815260200160002060008a73ffffffffffffffffffffffffffffffffffffffff1673ffffffffffffffffffffffffffffffffffffffff1681526020019081526020016000206000820154816000015560018201548160010155600282015481600201556003820160009054906101000a900460ff168160030160006101000a81548160ff0219169083151502179055506003820160019054906101000a900461ffff168160030160016101000a81548161ffff021916908361ffff16021790555060048201548160040155600582015481600501559050505b611d6361013660009054906101000a900473ffffffffffffffffffffffffffffffffffffffff1661013660149054906101000a900463ffffffff16620186a0338c8c600080610c6e565b50505050611d6f613464565b5050505050565b600061013260009054906101000a900460ff16905090565b611d96612fb5565b611d9e61338b565b611dc87fe2b7fb3b832174769106daebcfd6d1970523240dda11281102db9363b83b0dc4336127e9565b611e07576040517f08c379a0000000000000000000000000000000000000000000000000000000008152600401611dfe90615930565b60405180910390fd5b600061013760003373ffffffffffffffffffffffffffffffffffffffff1673ffffffffffffffffffffffffffffffffffffffff16815260200190815260200160002060008373ffffffffffffffffffffffffffffffffffffffff1673ffffffffffffffffffffffffffffffffffffffff16815260200190815260200160002090504281600201548260050154611e9d9190614418565b1115611ede576040517f08c379a0000000000000000000000000000000000000000000000000000000008152600401611ed59061599c565b60405180910390fd5b600082905060008173ffffffffffffffffffffffffffffffffffffffff166370a08231306040518263ffffffff1660e01b8152600401611f1e9190614e0d565b602060405180830381865afa158015611f3b573d6000803e3d6000fd5b505050506040513d601f19601f82011682018060405250810190611f5f91906154ce565b90508260000154811015611fa8576040517f08c379a0000000000000000000000000000000000000000000000000000000008152600401611f9f9061556d565b60405180910390fd5b6000836004015490508360030160009054906101000a900460ff16611ffe57610133548460030160019054906101000a900461ffff1661ffff168560000154611ff191906159bc565b611ffb9190615a2d565b90505b61201581856000015461344e90919063ffffffff16565b84600001819055508273ffffffffffffffffffffffffffffffffffffffff1663a9059cbb33836040518363ffffffff1660e01b81526004016120589291906155f9565b6020604051808303816000875af1158015612077573d6000803e3d6000fd5b505050506040513d601f19601f8201168201806040525081019061209b9190615637565b506120e761013660009054906101000a900473ffffffffffffffffffffffffffffffffffffffff1661013660149054906101000a900463ffffffff16620186a033896000876000610c6e565b50505050506120f4613464565b50565b6120ff612fff565b600082905060008173ffffffffffffffffffffffffffffffffffffffff166370a08231306040518263ffffffff1660e01b815260040161213f9190614e0d565b602060405180830381865afa15801561215c573d6000803e3d6000fd5b505050506040513d601f19601f8201168201806040525081019061218091906154ce565b9050600081116121c5576040517f08c379a00000000000000000000000000000000000000000000000000000000081526004016121bc90615aaa565b60405180910390fd5b8173ffffffffffffffffffffffffffffffffffffffff1663a9059cbb84836040518363ffffffff1660e01b81526004016122009291906155f9565b6020604051808303816000875af115801561221f573d6000803e3d6000fd5b505050506040513d601f19601f820116820180604052508101906122439190615637565b5050505050565b612252612fb5565b61225a61338b565b82421061229c576040517f08c379a0000000000000000000000000000000000000000000000000000000008152600401612293906157d2565b60405180910390fd5b600084116122df576040517f08c379a00000000000000000000000000000000000000000000000000000000081526004016122d6906143bf565b60405180910390fd5b600085905060008173ffffffffffffffffffffffffffffffffffffffff1663dd62ed3e33306040518363ffffffff1660e01b81526004016123219291906157f2565b602060405180830381865afa15801561233e573d6000803e3d6000fd5b505050506040513d601f19601f8201168201806040525081019061236291906154ce565b9050858110156123a7576040517f08c379a000000000000000000000000000000000000000000000000000000000815260040161239e90615867565b60405180910390fd5b8173ffffffffffffffffffffffffffffffffffffffff166323b872dd3330896040518463ffffffff1660e01b81526004016123e493929190615887565b6020604051808303816000875af1158015612403573d6000803e3d6000fd5b505050506040513d601f19601f820116820180604052508101906124279190615637565b50600061013760003373ffffffffffffffffffffffffffffffffffffffff1673ffffffffffffffffffffffffffffffffffffffff16815260200190815260200160002060008973ffffffffffffffffffffffffffffffffffffffff1673ffffffffffffffffffffffffffffffffffffffff168152602001908152602001600020905060008160000154036125ea576040518060e00160405280888152602001878152602001858152602001600115158152602001600061ffff1681526020018681526020014281525061013760003373ffffffffffffffffffffffffffffffffffffffff1673ffffffffffffffffffffffffffffffffffffffff16815260200190815260200160002060008a73ffffffffffffffffffffffffffffffffffffffff1673ffffffffffffffffffffffffffffffffffffffff16815260200190815260200160002060008201518160000155602082015181600101556040820151816002015560608201518160030160006101000a81548160ff02191690831515021790555060808201518160030160016101000a81548161ffff021916908361ffff16021790555060a0820151816004015560c08201518160050155905050612736565b858160010160008282546125fe9190614418565b9250508190555061261c878260000154610c5890919063ffffffff16565b81600001819055508061013760003373ffffffffffffffffffffffffffffffffffffffff1673ffffffffffffffffffffffffffffffffffffffff16815260200190815260200160002060008a73ffffffffffffffffffffffffffffffffffffffff1673ffffffffffffffffffffffffffffffffffffffff1681526020019081526020016000206000820154816000015560018201548160010155600282015481600201556003820160009054906101000a900460ff168160030160006101000a81548160ff0219169083151502179055506003820160019054906101000a900461ffff168160030160016101000a81548161ffff021916908361ffff16021790555060048201548160040155600582015481600501559050505b61278061013660009054906101000a900473ffffffffffffffffffffffffffffffffffffffff1661013660149054906101000a900463ffffffff16620186a0338c8c600080610c6e565b5050505061278c613464565b5050505050565b61279b612fff565b6127a560006135b2565b565b60cd6020528060005260406000206000915090505481565b6000603460009054906101000a900473ffffffffffffffffffffffffffffffffffffffff16905090565b6000610100600084815260200190815260200160002060000160008373ffffffffffffffffffffffffffffffffffffffff1673ffffffffffffffffffffffffffffffffffffffff16815260200190815260200160002060009054906101000a900460ff16905092915050565b6101355481565b7fe2b7fb3b832174769106daebcfd6d1970523240dda11281102db9363b83b0dc481565b6000801b81565b61288f612fff565b60005b82829050811015612901576128ed8383838181106128b3576128b2615aca565b5b90506040020160000160208101906128cb91906147bc565b8484848181106128de576128dd615aca565b5b90506040020160200135613678565b6001816128fa9190614418565b9050612892565b505050565b61290e612fff565b61291882826136de565b5050565b606660009054906101000a900473ffffffffffffffffffffffffffffffffffffffff1681565b61294b826111a6565b612954816131aa565b61295e83836132a8565b505050565b606860009054906101000a900473ffffffffffffffffffffffffffffffffffffffff1681565b612991612fff565b8181905084849050146129d9576040517f08c379a00000000000000000000000000000000000000000000000000000000081526004016129d090615b45565b60405180910390fd5b600084849050905060005b81811015612a4a57612a36868683818110612a0257612a01615aca565b5b9050602002016020810190612a1791906147bc565b858584818110612a2a57612a29615aca565b5b905060200201356136de565b600181612a439190614418565b90506129e4565b505050505050565b612a5a612fff565b612a638161373c565b50565b6000606760009054906101000a900473ffffffffffffffffffffffffffffffffffffffff1673ffffffffffffffffffffffffffffffffffffffff1663a69297938360cd60008663ffffffff1663ffffffff168152602001908152602001600020546040518363ffffffff1660e01b8152600401612ae4929190615b74565b602060405180830381865afa158015612b01573d6000803e3d6000fd5b505050506040513d601f19601f82011682018060405250810190612b2591906154ce565b9050919050565b612b34612fff565b600073ffffffffffffffffffffffffffffffffffffffff168173ffffffffffffffffffffffffffffffffffffffff1603612ba3576040517f08c379a0000000000000000000000000000000000000000000000000000000008152600401612b9a90615c0f565b60405180910390fd5b612bac816135b2565b50565b612bb7612fff565b612bc08161380d565b50565b612bcb612fb5565b612bd361338b565b600061013760003373ffffffffffffffffffffffffffffffffffffffff1673ffffffffffffffffffffffffffffffffffffffff16815260200190815260200160002060008473ffffffffffffffffffffffffffffffffffffffff1673ffffffffffffffffffffffffffffffffffffffff16815260200190815260200160002090506000816000015411612c9b576040517f08c379a0000000000000000000000000000000000000000000000000000000008152600401612c92906152f5565b60405180910390fd5b8060010154421015612ce2576040517f08c379a0000000000000000000000000000000000000000000000000000000008152600401612cd990615387565b60405180910390fd5b600083905060008173ffffffffffffffffffffffffffffffffffffffff166370a08231306040518263ffffffff1660e01b8152600401612d229190614e0d565b602060405180830381865afa158015612d3f573d6000803e3d6000fd5b505050506040513d601f19601f82011682018060405250810190612d6391906154ce565b90508260000154811015612dac576040517f08c379a0000000000000000000000000000000000000000000000000000000008152600401612da39061556d565b60405180910390fd5b8260000154841115612df3576040517f08c379a0000000000000000000000000000000000000000000000000000000008152600401612dea906155d9565b60405180910390fd5b612e0a84846000015461344e90919063ffffffff16565b83600001819055508173ffffffffffffffffffffffffffffffffffffffff1663a9059cbb33866040518363ffffffff1660e01b8152600401612e4d9291906155f9565b6020604051808303816000875af1158015612e6c573d6000803e3d6000fd5b505050506040513d601f19601f82011682018060405250810190612e909190615637565b50612edc61013660009054906101000a900473ffffffffffffffffffffffffffffffffffffffff1661013660149054906101000a900463ffffffff16620186a0338960008a6000610c6e565b50505050612ee8613464565b5050565b61013460009054906101000a900473ffffffffffffffffffffffffffffffffffffffff1681565b6000612f41858560cd60008963ffffffff1663ffffffff1681526020019081526020016000205486866138de565b9050949350505050565b60007f01ffc9a7000000000000000000000000000000000000000000000000000000007bffffffffffffffffffffffffffffffffffffffffffffffffffffffff1916827bffffffffffffffffffffffffffffffffffffffffffffffffffffffff1916149050919050565b612fbd611d76565b15612ffd576040517f08c379a0000000000000000000000000000000000000000000000000000000008152600401612ff490615c7b565b60405180910390fd5b565b6130076132a0565b73ffffffffffffffffffffffffffffffffffffffff166130256127bf565b73ffffffffffffffffffffffffffffffffffffffff161461307b576040517f08c379a000000000000000000000000000000000000000000000000000000000815260040161307290615ce7565b60405180910390fd5b565b600073ffffffffffffffffffffffffffffffffffffffff168173ffffffffffffffffffffffffffffffffffffffff1614806130bd57506130bc81613989565b5b6130fc576040517f08c379a00000000000000000000000000000000000000000000000000000000081526004016130f390615d53565b60405180910390fd5b80606860006101000a81548173ffffffffffffffffffffffffffffffffffffffff021916908373ffffffffffffffffffffffffffffffffffffffff1602179055508073ffffffffffffffffffffffffffffffffffffffff167ffec811ed4e60aebdaf7a79cad8a97196bf56e35362f039705598226d30c9d24860405160405180910390a250565b60008061319f8360001b856000016139ac90919063ffffffff16565b915091509250929050565b6131bb816131b66132a0565b6139fb565b50565b6131c882826127e9565b61329c576001610100600084815260200190815260200160002060000160008373ffffffffffffffffffffffffffffffffffffffff1673ffffffffffffffffffffffffffffffffffffffff16815260200190815260200160002060006101000a81548160ff0219169083151502179055506132416132a0565b73ffffffffffffffffffffffffffffffffffffffff168173ffffffffffffffffffffffffffffffffffffffff16837f2f8788117e7eff1d82e926ec794901d17c78024a50270940304540a733656f0d60405160405180910390a45b5050565b600033905090565b6132b282826127e9565b15613387576000610100600084815260200190815260200160002060000160008373ffffffffffffffffffffffffffffffffffffffff1673ffffffffffffffffffffffffffffffffffffffff16815260200190815260200160002060006101000a81548160ff02191690831515021790555061332c6132a0565b73ffffffffffffffffffffffffffffffffffffffff168173ffffffffffffffffffffffffffffffffffffffff16837ff6391f5c32d9c69d2a47ea670b442974b53935d1edc7fd64eb21e047a839171b60405160405180910390a45b5050565b6002600054036133d0576040517f08c379a00000000000000000000000000000000000000000000000000000000081526004016133c790615dbf565b60405180910390fd5b6002600081905550565b600080846040516020016133ee9190615e57565b60405160208183030381529060405280519060200120905060006134128286613a80565b90508373ffffffffffffffffffffffffffffffffffffffff168173ffffffffffffffffffffffffffffffffffffffff1614925050509392505050565b6000818361345c9190615e7d565b905092915050565b6001600081905550565b6060600061347b83613aa7565b9050805167ffffffffffffffff81111561349857613497614844565b5b6040519080825280602002602001820160405280156134c65781602001602082028036833780820191505090505b50915060005b8151811015613530578181815181106134e8576134e7615aca565b5b602002602001015183828151811061350357613502615aca565b5b602002602001019063ffffffff16908163ffffffff1681525050808061352890615eb1565b9150506134cc565b5050919050565b600081613543846111c7565b14905092915050565b60008060008085858101906135619190615f37565b93509350935093507f3f434d0241237079abe605e51bb14a5d74c7ef567d2c6930dba299dcc648178788858585856040516135a0959493929190615f9e565b60405180910390a15050505050505050565b6000603460009054906101000a900473ffffffffffffffffffffffffffffffffffffffff16905081603460006101000a81548173ffffffffffffffffffffffffffffffffffffffff021916908373ffffffffffffffffffffffffffffffffffffffff1602179055508173ffffffffffffffffffffffffffffffffffffffff168173ffffffffffffffffffffffffffffffffffffffff167f8be0079c531659141344cd1fd0a4f28419497f9722a3daafe3b4186f6b6457e060405160405180910390a35050565b8060cd60008463ffffffff1663ffffffff168152602001908152602001600020819055508163ffffffff167f90563f253ecb04527a6a7ae1a8cbe2bdc6caefb39d5f7b06a973cf5e7f8035a4826040516136d29190614de3565b60405180910390a25050565b6136fa8263ffffffff16826099613b649092919063ffffffff16565b8163ffffffff167f97fd51fef1f80c854cbd0150c248e8b2ac4ecdc97cc05e742b5f61c9f4dc6458826040516137309190614765565b60405180910390a25050565b8061374681613989565b613785576040517f08c379a000000000000000000000000000000000000000000000000000000000815260040161377c90615d53565b60405180910390fd5b81606760006101000a81548173ffffffffffffffffffffffffffffffffffffffff021916908373ffffffffffffffffffffffffffffffffffffffff1602179055508173ffffffffffffffffffffffffffffffffffffffff167fb87f5a0bface22cde699143559fb99f990ae54eea236995fc54178af91af859f60405160405180910390a25050565b8061381781613989565b613856576040517f08c379a000000000000000000000000000000000000000000000000000000000815260040161384d90615d53565b60405180910390fd5b81606660006101000a81548173ffffffffffffffffffffffffffffffffffffffff021916908373ffffffffffffffffffffffffffffffffffffffff1602179055508173ffffffffffffffffffffffffffffffffffffffff167f7a61e573722ff8b205c8962b59d37e7d30573f368965597a844a94872204ebd760405160405180910390a25050565b60006138ea8686613b85565b9050606760009054906101000a900473ffffffffffffffffffffffffffffffffffffffff1673ffffffffffffffffffffffffffffffffffffffff166311bf2c1884838988876040518663ffffffff1660e01b815260040161394e9493929190615ff1565b6000604051808303818588803b15801561396757600080fd5b505af115801561397b573d6000803e3d6000fd5b505050505095945050505050565b6000808273ffffffffffffffffffffffffffffffffffffffff163b119050919050565b60008060008460020160008581526020019081526020016000205490506000801b81036139eb576139dd8585613c3e565b6000801b92509250506139f4565b60018192509250505b9250929050565b613a0582826127e9565b613a7c57613a1281613c5e565b613a208360001c6020613c8b565b604051602001613a319291906160ff565b6040516020818303038152906040526040517f08c379a0000000000000000000000000000000000000000000000000000000008152600401613a73919061573e565b60405180910390fd5b5050565b6000806000613a8f8585613ec7565b91509150613a9c81613f18565b819250505092915050565b60606000613ab78360000161407e565b90508067ffffffffffffffff811115613ad357613ad2614844565b5b604051908082528060200260200182016040528015613b015781602001602082028036833780820191505090505b50915060005b81811015613b5d57613b28818560000160000161409390919063ffffffff16565b60001c838281518110613b3e57613b3d615aca565b5b6020026020010181815250508080613b5590615eb1565b915050613b07565b5050919050565b613b7f8260001b82856000016140aa9092919063ffffffff16565b50505050565b600080613b91846140e5565b9050606660009054906101000a900473ffffffffffffffffffffffffffffffffffffffff1673ffffffffffffffffffffffffffffffffffffffff1663fa31de018583866040518463ffffffff1660e01b8152600401613bf29392919061618e565b6020604051808303816000875af1158015613c11573d6000803e3d6000fd5b505050506040513d601f19601f82011682018060405250810190613c3591906161e1565b91505092915050565b6000613c56828460000161416e90919063ffffffff16565b905092915050565b6060613c848273ffffffffffffffffffffffffffffffffffffffff16601460ff16613c8b565b9050919050565b606060006002836002613c9e91906159bc565b613ca89190614418565b67ffffffffffffffff811115613cc157613cc0614844565b5b6040519080825280601f01601f191660200182016040528015613cf35781602001600182028036833780820191505090505b5090507f300000000000000000000000000000000000000000000000000000000000000081600081518110613d2b57613d2a615aca565b5b60200101907effffffffffffffffffffffffffffffffffffffffffffffffffffffffffffff1916908160001a9053507f780000000000000000000000000000000000000000000000000000000000000081600181518110613d8f57613d8e615aca565b5b60200101907effffffffffffffffffffffffffffffffffffffffffffffffffffffffffffff1916908160001a90535060006001846002613dcf91906159bc565b613dd99190614418565b90505b6001811115613e79577f3031323334353637383961626364656600000000000000000000000000000000600f861660108110613e1b57613e1a615aca565b5b1a60f81b828281518110613e3257613e31615aca565b5b60200101907effffffffffffffffffffffffffffffffffffffffffffffffffffffffffffff1916908160001a905350600485901c945080613e729061620e565b9050613ddc565b5060008414613ebd576040517f08c379a0000000000000000000000000000000000000000000000000000000008152600401613eb490616283565b60405180910390fd5b8091505092915050565b6000806041835103613f085760008060006020860151925060408601519150606086015160001a9050613efc87828585614185565b94509450505050613f11565b60006002915091505b9250929050565b60006004811115613f2c57613f2b6162a3565b5b816004811115613f3f57613f3e6162a3565b5b031561407b5760016004811115613f5957613f586162a3565b5b816004811115613f6c57613f6b6162a3565b5b03613fac576040517f08c379a0000000000000000000000000000000000000000000000000000000008152600401613fa39061631e565b60405180910390fd5b60026004811115613fc057613fbf6162a3565b5b816004811115613fd357613fd26162a3565b5b03614013576040517f08c379a000000000000000000000000000000000000000000000000000000000815260040161400a9061638a565b60405180910390fd5b60036004811115614027576140266162a3565b5b81600481111561403a576140396162a3565b5b0361407a576040517f08c379a00000000000000000000000000000000000000000000000000000000081526004016140719061641c565b60405180910390fd5b5b50565b600061408c82600001614267565b9050919050565b60006140a2836000018361427c565b905092915050565b600081846002016000858152602001908152602001600020819055506140dc83856000016142a790919063ffffffff16565b90509392505050565b60008060006141048463ffffffff16609961318390919063ffffffff16565b915091508160405180608001604052806043815260200161649e6043913990614163576040517f08c379a000000000000000000000000000000000000000000000000000000000815260040161415a919061573e565b60405180910390fd5b508092505050919050565b600061417d83600001836142be565b905092915050565b6000807f7fffffffffffffffffffffffffffffff5d576e7357a4501ddfe92f46681b20a08360001c11156141c057600060039150915061425e565b6000600187878787604051600081526020016040526040516141e59493929190616458565b6020604051602081039080840390855afa158015614207573d6000803e3d6000fd5b505050602060405103519050600073ffffffffffffffffffffffffffffffffffffffff168173ffffffffffffffffffffffffffffffffffffffff16036142555760006001925092505061425e565b80600092509250505b94509492505050565b6000614275826000016142e1565b9050919050565b600082600001828154811061429457614293615aca565b5b9060005260206000200154905092915050565b60006142b683600001836142f2565b905092915050565b600080836001016000848152602001908152602001600020541415905092915050565b600081600001805490509050919050565b60006142fe83836142be565b61435757826000018290806001815401808255809150506001900390600052602060002001600090919091909150558260000180549050836001016000848152602001908152602001600020819055506001905061435c565b600090505b92915050565b600082825260208201905092915050565b7f416d6f756e74206d7573742062652067726561746572207468616e2030000000600082015250565b60006143a9601d83614362565b91506143b482614373565b602082019050919050565b600060208201905081810360008301526143d88161439c565b9050919050565b6000819050919050565b7f4e487b7100000000000000000000000000000000000000000000000000000000600052601160045260246000fd5b6000614423826143df565b915061442e836143df565b9250828201905080821115614446576144456143e9565b5b92915050565b6000604051905090565b600080fd5b600080fd5b60007fffffffff0000000000000000000000000000000000000000000000000000000082169050919050565b61449581614460565b81146144a057600080fd5b50565b6000813590506144b28161448c565b92915050565b6000602082840312156144ce576144cd614456565b5b60006144dc848285016144a3565b91505092915050565b60008115159050919050565b6144fa816144e5565b82525050565b600060208201905061451560008301846144f1565b92915050565b600073ffffffffffffffffffffffffffffffffffffffff82169050919050565b60006145468261451b565b9050919050565b6145568161453b565b811461456157600080fd5b50565b6000813590506145738161454d565b92915050565b614582816144e5565b811461458d57600080fd5b50565b60008135905061459f81614579565b92915050565b6145ae816143df565b81146145b957600080fd5b50565b6000813590506145cb816145a5565b92915050565b600061ffff82169050919050565b6145e8816145d1565b81146145f357600080fd5b50565b600081359050614605816145df565b92915050565b600080600080600060a0868803121561462757614626614456565b5b600061463588828901614564565b955050602061464688828901614590565b9450506040614657888289016145bc565b9350506060614668888289016145f6565b9250506080614679888289016145bc565b9150509295509295909350565b60006020828403121561469c5761469b614456565b5b60006146aa84828501614564565b91505092915050565b600080604083850312156146ca576146c9614456565b5b60006146d885828601614564565b92505060206146e9858286016145bc565b9150509250929050565b6000819050919050565b614706816146f3565b811461471157600080fd5b50565b600081359050614723816146fd565b92915050565b60006020828403121561473f5761473e614456565b5b600061474d84828501614714565b91505092915050565b61475f816146f3565b82525050565b600060208201905061477a6000830184614756565b92915050565b600063ffffffff82169050919050565b61479981614780565b81146147a457600080fd5b50565b6000813590506147b681614790565b92915050565b6000602082840312156147d2576147d1614456565b5b60006147e0848285016147a7565b91505092915050565b60008060408385031215614800576147ff614456565b5b600061480e85828601614714565b925050602061481f85828601614564565b9150509250929050565b600080fd5b600080fd5b6000601f19601f8301169050919050565b7f4e487b7100000000000000000000000000000000000000000000000000000000600052604160045260246000fd5b61487c82614833565b810181811067ffffffffffffffff8211171561489b5761489a614844565b5b80604052505050565b60006148ae61444c565b90506148ba8282614873565b919050565b600067ffffffffffffffff8211156148da576148d9614844565b5b6148e382614833565b9050602081019050919050565b82818337600083830152505050565b600061491261490d846148bf565b6148a4565b90508281526020810184848401111561492e5761492d61482e565b5b6149398482856148f0565b509392505050565b600082601f83011261495657614955614829565b5b81356149668482602086016148ff565b91505092915050565b6000806000806080858703121561498957614988614456565b5b600061499787828801614564565b94505060206149a887828801614564565b93505060406149b9878288016145bc565b925050606085013567ffffffffffffffff8111156149da576149d961445b565b5b6149e687828801614941565b91505092959194509250565b6000819050919050565b6000614a17614a12614a0d8461451b565b6149f2565b61451b565b9050919050565b6000614a29826149fc565b9050919050565b6000614a3b82614a1e565b9050919050565b614a4b81614a30565b82525050565b6000602082019050614a666000830184614a42565b92915050565b60008060408385031215614a8357614a82614456565b5b6000614a9185828601614564565b9250506020614aa285828601614564565b9150509250929050565b614ab5816143df565b82525050565b614ac4816145d1565b82525050565b600060e082019050614adf600083018a614aac565b614aec6020830189614aac565b614af96040830188614aac565b614b0660608301876144f1565b614b136080830186614abb565b614b2060a0830185614aac565b614b2d60c0830184614aac565b98975050505050505050565b600081519050919050565b600082825260208201905092915050565b6000819050602082019050919050565b614b6e81614780565b82525050565b6000614b808383614b65565b60208301905092915050565b6000602082019050919050565b6000614ba482614b39565b614bae8185614b44565b9350614bb983614b55565b8060005b83811015614bea578151614bd18882614b74565b9750614bdc83614b8c565b925050600181019050614bbd565b5085935050505092915050565b60006020820190508181036000830152614c118184614b99565b905092915050565b600080fd5b600080fd5b60008083601f840112614c3957614c38614829565b5b8235905067ffffffffffffffff811115614c5657614c55614c19565b5b602083019150836001820283011115614c7257614c71614c1e565b5b9250929050565b60008060008060608587031215614c9357614c92614456565b5b6000614ca1878288016147a7565b9450506020614cb287828801614714565b935050604085013567ffffffffffffffff811115614cd357614cd261445b565b5b614cdf87828801614c23565b925092505092959194509250565b600080600080600060a08688031215614d0957614d08614456565b5b6000614d1788828901614564565b9550506020614d28888289016145bc565b9450506040614d39888289016145bc565b9350506060614d4a888289016145f6565b9250506080614d5b888289016145bc565b9150509295509295909350565b600080600080600060a08688031215614d8457614d83614456565b5b6000614d9288828901614564565b9550506020614da3888289016145bc565b9450506040614db4888289016145bc565b9350506060614dc5888289016145bc565b9250506080614dd6888289016145bc565b9150509295509295909350565b6000602082019050614df86000830184614aac565b92915050565b614e078161453b565b82525050565b6000602082019050614e226000830184614dfe565b92915050565b60008083601f840112614e3e57614e3d614829565b5b8235905067ffffffffffffffff811115614e5b57614e5a614c19565b5b602083019150836040820283011115614e7757614e76614c1e565b5b9250929050565b60008060208385031215614e9557614e94614456565b5b600083013567ffffffffffffffff811115614eb357614eb261445b565b5b614ebf85828601614e28565b92509250509250929050565b60008060408385031215614ee257614ee1614456565b5b6000614ef0858286016147a7565b9250506020614f0185828601614714565b9150509250929050565b6000614f1682614a1e565b9050919050565b614f2681614f0b565b82525050565b6000602082019050614f416000830184614f1d565b92915050565b6000614f5282614a1e565b9050919050565b614f6281614f47565b82525050565b6000602082019050614f7d6000830184614f59565b92915050565b60008083601f840112614f9957614f98614829565b5b8235905067ffffffffffffffff811115614fb657614fb5614c19565b5b602083019150836020820283011115614fd257614fd1614c1e565b5b9250929050565b60008083601f840112614fef57614fee614829565b5b8235905067ffffffffffffffff81111561500c5761500b614c19565b5b60208301915083602082028301111561502857615027614c1e565b5b9250929050565b6000806000806040858703121561504957615048614456565b5b600085013567ffffffffffffffff8111156150675761506661445b565b5b61507387828801614f83565b9450945050602085013567ffffffffffffffff8111156150965761509561445b565b5b6150a287828801614fd9565b925092505092959194509250565b60006150bb82614a1e565b9050919050565b6150cb816150b0565b82525050565b60006020820190506150e660008301846150c2565b92915050565b600060a0820190506151016000830188614dfe565b61510e6020830187614dfe565b61511b6040830186614aac565b6151286060830185614aac565b6151356080830184614aac565b9695505050505050565b7f4e6f20746f6b656e73206465706f736974656400000000000000000000000000600082015250565b6000615175601383614362565b91506151808261513f565b602082019050919050565b600060208201905081810360008301526151a481615168565b9050919050565b7f4475726174696f6e2063616e6e6f7420626520696e2074686520706173740000600082015250565b60006151e1601e83614362565b91506151ec826151ab565b602082019050919050565b60006020820190508181036000830152615210816151d4565b9050919050565b7f416363657373436f6e74726f6c3a2063616e206f6e6c792072656e6f756e636560008201527f20726f6c657320666f722073656c660000000000000000000000000000000000602082015250565b6000615273602f83614362565b915061527e82615217565b604082019050919050565b600060208201905081810360008301526152a281615266565b9050919050565b7f4e6f20746f6b656e7320746f2077697468647261770000000000000000000000600082015250565b60006152df601583614362565b91506152ea826152a9565b602082019050919050565b6000602082019050818103600083015261530e816152d2565b9050919050565b7f546f6b656e732063616e27742062652077697468647261776e206265666f726560008201527f2074686520756e6c6f636b2074696d6500000000000000000000000000000000602082015250565b6000615371603083614362565b915061537c82615315565b604082019050919050565b600060208201905081810360008301526153a081615364565b9050919050565b60008160601b9050919050565b60006153bf826153a7565b9050919050565b60006153d1826153b4565b9050919050565b6153e96153e48261453b565b6153c6565b82525050565b6000819050919050565b61540a615405826143df565b6153ef565b82525050565b600061541c82866153d8565b60148201915061542c82856153d8565b60148201915061543c82846153f9565b602082019150819050949350505050565b7f496e76616c6964207369676e6174757265000000000000000000000000000000600082015250565b6000615483601183614362565b915061548e8261544d565b602082019050919050565b600060208201905081810360008301526154b281615476565b9050919050565b6000815190506154c8816145a5565b92915050565b6000602082840312156154e4576154e3614456565b5b60006154f2848285016154b9565b91505092915050565b7f496e73756666696369656e742062616c616e636520696e20746865207661756c60008201527f7400000000000000000000000000000000000000000000000000000000000000602082015250565b6000615557602183614362565b9150615562826154fb565b604082019050919050565b600060208201905081810360008301526155868161554a565b9050919050565b7f496e73756666696369656e742062616c616e636520666f722075736572000000600082015250565b60006155c3601d83614362565b91506155ce8261558d565b602082019050919050565b600060208201905081810360008301526155f2816155b6565b9050919050565b600060408201905061560e6000830185614dfe565b61561b6020830184614aac565b9392505050565b60008151905061563181614579565b92915050565b60006020828403121561564d5761564c614456565b5b600061565b84828501615622565b91505092915050565b7f216d61696c626f78000000000000000000000000000000000000000000000000600082015250565b600061569a600883614362565b91506156a582615664565b602082019050919050565b600060208201905081810360008301526156c98161568d565b9050919050565b600081519050919050565b60005b838110156156f95780820151818401526020810190506156de565b60008484015250505050565b6000615710826156d0565b61571a8185614362565b935061572a8185602086016156db565b61573381614833565b840191505092915050565b600060208201905081810360008301526157588184615705565b905092915050565b7f546f6b656e732063616e2774206265206465706f73697465642061667465722060008201527f74686520756e6c6f636b2074696d650000000000000000000000000000000000602082015250565b60006157bc602f83614362565b91506157c782615760565b604082019050919050565b600060208201905081810360008301526157eb816157af565b9050919050565b60006040820190506158076000830185614dfe565b6158146020830184614dfe565b9392505050565b7f416c6c6f77616e6365206e6f742073756666696369656e740000000000000000600082015250565b6000615851601883614362565b915061585c8261581b565b602082019050919050565b6000602082019050818103600083015261588081615844565b9050919050565b600060608201905061589c6000830186614dfe565b6158a96020830185614dfe565b6158b66040830184614aac565b949350505050565b7f43616c6c6572206973206e6f74206170706f76656420666f722074686973206360008201527f616c6c0000000000000000000000000000000000000000000000000000000000602082015250565b600061591a602383614362565b9150615925826158be565b604082019050919050565b600060208201905081810360008301526159498161590d565b9050919050565b7f4e6f74207965742074696d6520746f2064697370656e73650000000000000000600082015250565b6000615986601883614362565b915061599182615950565b602082019050919050565b600060208201905081810360008301526159b581615979565b9050919050565b60006159c7826143df565b91506159d2836143df565b92508282026159e0816143df565b915082820484148315176159f7576159f66143e9565b5b5092915050565b7f4e487b7100000000000000000000000000000000000000000000000000000000600052601260045260246000fd5b6000615a38826143df565b9150615a43836143df565b925082615a5357615a526159fe565b5b828204905092915050565b7f4e6f2066756e647320746f20636c656172000000000000000000000000000000600082015250565b6000615a94601183614362565b9150615a9f82615a5e565b602082019050919050565b60006020820190508181036000830152615ac381615a87565b9050919050565b7f4e487b7100000000000000000000000000000000000000000000000000000000600052603260045260246000fd5b7f216c656e67746800000000000000000000000000000000000000000000000000600082015250565b6000615b2f600783614362565b9150615b3a82615af9565b602082019050919050565b60006020820190508181036000830152615b5e81615b22565b9050919050565b615b6e81614780565b82525050565b6000604082019050615b896000830185615b65565b615b966020830184614aac565b9392505050565b7f4f776e61626c653a206e6577206f776e657220697320746865207a65726f206160008201527f6464726573730000000000000000000000000000000000000000000000000000602082015250565b6000615bf9602683614362565b9150615c0482615b9d565b604082019050919050565b60006020820190508181036000830152615c2881615bec565b9050919050565b7f5061757361626c653a2070617573656400000000000000000000000000000000600082015250565b6000615c65601083614362565b9150615c7082615c2f565b602082019050919050565b60006020820190508181036000830152615c9481615c58565b9050919050565b7f4f776e61626c653a2063616c6c6572206973206e6f7420746865206f776e6572600082015250565b6000615cd1602083614362565b9150615cdc82615c9b565b602082019050919050565b60006020820190508181036000830152615d0081615cc4565b9050919050565b7f21636f6e74726163740000000000000000000000000000000000000000000000600082015250565b6000615d3d600983614362565b9150615d4882615d07565b602082019050919050565b60006020820190508181036000830152615d6c81615d30565b9050919050565b7f5265656e7472616e637947756172643a207265656e7472616e742063616c6c00600082015250565b6000615da9601f83614362565b9150615db482615d73565b602082019050919050565b60006020820190508181036000830152615dd881615d9c565b9050919050565b600081905092915050565b7f19457468657265756d205369676e6564204d6573736167653a0a333200000000600082015250565b6000615e20601c83615ddf565b9150615e2b82615dea565b601c82019050919050565b6000819050919050565b615e51615e4c826146f3565b615e36565b82525050565b6000615e6282615e13565b9150615e6e8284615e40565b60208201915081905092915050565b6000615e88826143df565b9150615e93836143df565b9250828203905081811115615eab57615eaa6143e9565b5b92915050565b6000615ebc826143df565b91507fffffffffffffffffffffffffffffffffffffffffffffffffffffffffffffffff8203615eee57615eed6143e9565b5b600182019050919050565b6000615f048261451b565b9050919050565b615f1481615ef9565b8114615f1f57600080fd5b50565b600081359050615f3181615f0b565b92915050565b60008060008060808587031215615f5157615f50614456565b5b6000615f5f87828801615f22565b9450506020615f70878288016145bc565b9350506040615f81878288016145bc565b9250506060615f92878288016145bc565b91505092959194509250565b600060a082019050615fb36000830188615b65565b615fc06020830187614dfe565b615fcd6040830186614aac565b615fda6060830185614aac565b615fe76080830184614aac565b9695505050505050565b60006080820190506160066000830187614756565b6160136020830186615b65565b6160206040830185614aac565b61602d6060830184614dfe565b95945050505050565b7f416363657373436f6e74726f6c3a206163636f756e7420000000000000000000600082015250565b600061606c601783615ddf565b915061607782616036565b601782019050919050565b600061608d826156d0565b6160978185615ddf565b93506160a78185602086016156db565b80840191505092915050565b7f206973206d697373696e6720726f6c6520000000000000000000000000000000600082015250565b60006160e9601183615ddf565b91506160f4826160b3565b601182019050919050565b600061610a8261605f565b91506161168285616082565b9150616121826160dc565b915061612d8284616082565b91508190509392505050565b600081519050919050565b600082825260208201905092915050565b600061616082616139565b61616a8185616144565b935061617a8185602086016156db565b61618381614833565b840191505092915050565b60006060820190506161a36000830186615b65565b6161b06020830185614756565b81810360408301526161c28184616155565b9050949350505050565b6000815190506161db816146fd565b92915050565b6000602082840312156161f7576161f6614456565b5b6000616205848285016161cc565b91505092915050565b6000616219826143df565b91506000820361622c5761622b6143e9565b5b600182039050919050565b7f537472696e67733a20686578206c656e67746820696e73756666696369656e74600082015250565b600061626d602083614362565b915061627882616237565b602082019050919050565b6000602082019050818103600083015261629c81616260565b9050919050565b7f4e487b7100000000000000000000000000000000000000000000000000000000600052602160045260246000fd5b7f45434453413a20696e76616c6964207369676e61747572650000000000000000600082015250565b6000616308601883614362565b9150616313826162d2565b602082019050919050565b60006020820190508181036000830152616337816162fb565b9050919050565b7f45434453413a20696e76616c6964207369676e6174757265206c656e67746800600082015250565b6000616374601f83614362565b915061637f8261633e565b602082019050919050565b600060208201905081810360008301526163a381616367565b9050919050565b7f45434453413a20696e76616c6964207369676e6174757265202773272076616c60008201527f7565000000000000000000000000000000000000000000000000000000000000602082015250565b6000616406602283614362565b9150616411826163aa565b604082019050919050565b60006020820190508181036000830152616435816163f9565b9050919050565b600060ff82169050919050565b6164528161643c565b82525050565b600060808201905061646d6000830187614756565b61647a6020830186616449565b6164876040830185614756565b6164946060830184614756565b9594505050505056fe4e6f20726f7574657220656e726f6c6c656420666f7220646f6d61696e2e2044696420796f7520737065636966792074686520726967687420646f6d61696e2049443fa26469706673582212209f69e5c197d0c335ba86cf0e61e47865fc72ca7ba7c74b43ac3964e152ec82f864736f6c63430008140033",
  "linkReferences": {},
  "deployedLinkReferences": {}
}