{
  "_format": "hh-sol-artifact-1",
  "contractName": "UserProfile",
  "sourceName": "contracts/CentralUserProfile.sol",
  "abi": [
    {
      "inputs": [],
      "stateMutability": "nonpayable",
      "type": "constructor"
    },
    {
      "anonymous": false,
      "inputs": [
        {
          "indexed": true,
          "internalType": "uint32",
          "name": "domain",
          "type": "uint32"
        },
        {
          "indexed": false,
          "internalType": "uint256",
          "name": "gas",
          "type": "uint256"
        }
      ],
      "name": "DestinationGasSet",
      "type": "event"
    },
    {
      "anonymous": false,
      "inputs": [
        {
          "indexed": false,
          "internalType": "uint8",
          "name": "version",
          "type": "uint8"
        }
      ],
      "name": "Initialized",
      "type": "event"
    },
    {
      "anonymous": false,
      "inputs": [
        {
          "indexed": true,
          "internalType": "address",
          "name": "interchainGasPaymaster",
          "type": "address"
        }
      ],
      "name": "InterchainGasPaymasterSet",
      "type": "event"
    },
    {
      "anonymous": false,
      "inputs": [
        {
          "indexed": true,
          "internalType": "address",
          "name": "module",
          "type": "address"
        }
      ],
      "name": "InterchainSecurityModuleSet",
      "type": "event"
    },
    {
      "anonymous": false,
      "inputs": [
        {
          "indexed": true,
          "internalType": "address",
          "name": "mailbox",
          "type": "address"
        }
      ],
      "name": "MailboxSet",
      "type": "event"
    },
    {
      "anonymous": false,
      "inputs": [
        {
          "indexed": true,
          "internalType": "address",
          "name": "previousOwner",
          "type": "address"
        },
        {
          "indexed": true,
          "internalType": "address",
          "name": "newOwner",
          "type": "address"
        }
      ],
      "name": "OwnershipTransferred",
      "type": "event"
    },
    {
      "anonymous": false,
      "inputs": [
        {
          "indexed": false,
          "internalType": "address",
          "name": "account",
          "type": "address"
        }
      ],
      "name": "Paused",
      "type": "event"
    },
    {
      "anonymous": false,
      "inputs": [
        {
          "indexed": false,
          "internalType": "uint32",
          "name": "origin",
          "type": "uint32"
        },
        {
          "indexed": false,
          "internalType": "address",
          "name": "user",
          "type": "address"
        },
        {
          "indexed": false,
          "internalType": "uint256",
          "name": "addedValue",
          "type": "uint256"
        },
        {
          "indexed": false,
          "internalType": "uint256",
          "name": "addedWithdrawn",
          "type": "uint256"
        },
        {
          "indexed": false,
          "internalType": "uint256",
          "name": "addedDebt",
          "type": "uint256"
        }
      ],
      "name": "ProfileUpdated",
      "type": "event"
    },
    {
      "anonymous": false,
      "inputs": [
        {
          "indexed": true,
          "internalType": "uint32",
          "name": "domain",
          "type": "uint32"
        },
        {
          "indexed": false,
          "internalType": "bytes32",
          "name": "router",
          "type": "bytes32"
        }
      ],
      "name": "RemoteRouterEnrolled",
      "type": "event"
    },
    {
      "anonymous": false,
      "inputs": [
        {
          "indexed": true,
          "internalType": "bytes32",
          "name": "role",
          "type": "bytes32"
        },
        {
          "indexed": true,
          "internalType": "bytes32",
          "name": "previousAdminRole",
          "type": "bytes32"
        },
        {
          "indexed": true,
          "internalType": "bytes32",
          "name": "newAdminRole",
          "type": "bytes32"
        }
      ],
      "name": "RoleAdminChanged",
      "type": "event"
    },
    {
      "anonymous": false,
      "inputs": [
        {
          "indexed": true,
          "internalType": "bytes32",
          "name": "role",
          "type": "bytes32"
        },
        {
          "indexed": true,
          "internalType": "address",
          "name": "account",
          "type": "address"
        },
        {
          "indexed": true,
          "internalType": "address",
          "name": "sender",
          "type": "address"
        }
      ],
      "name": "RoleGranted",
      "type": "event"
    },
    {
      "anonymous": false,
      "inputs": [
        {
          "indexed": true,
          "internalType": "bytes32",
          "name": "role",
          "type": "bytes32"
        },
        {
          "indexed": true,
          "internalType": "address",
          "name": "account",
          "type": "address"
        },
        {
          "indexed": true,
          "internalType": "address",
          "name": "sender",
          "type": "address"
        }
      ],
      "name": "RoleRevoked",
      "type": "event"
    },
    {
      "anonymous": false,
      "inputs": [
        {
          "indexed": false,
          "internalType": "address",
          "name": "account",
          "type": "address"
        }
      ],
      "name": "Unpaused",
      "type": "event"
    },
    {
      "anonymous": false,
      "inputs": [
        {
          "indexed": false,
          "internalType": "address",
          "name": "user",
          "type": "address"
        },
        {
          "indexed": false,
          "internalType": "address",
          "name": "token",
          "type": "address"
        },
        {
          "indexed": false,
          "internalType": "uint256",
          "name": "value",
          "type": "uint256"
        },
        {
          "indexed": false,
          "internalType": "uint256",
          "name": "invested",
          "type": "uint256"
        },
        {
          "indexed": false,
          "internalType": "uint256",
          "name": "debt",
          "type": "uint256"
        }
      ],
      "name": "UserProfileUpdated",
      "type": "event"
    },
    {
      "inputs": [],
      "name": "COMPOUNDER_ROLE",
      "outputs": [
        {
          "internalType": "bytes32",
          "name": "",
          "type": "bytes32"
        }
      ],
      "stateMutability": "view",
      "type": "function"
    },
    {
      "inputs": [],
      "name": "DEFAULT_ADMIN_ROLE",
      "outputs": [
        {
          "internalType": "bytes32",
          "name": "",
          "type": "bytes32"
        }
      ],
      "stateMutability": "view",
      "type": "function"
    },
    {
      "inputs": [
        {
          "internalType": "uint32",
          "name": "",
          "type": "uint32"
        }
      ],
      "name": "destinationGas",
      "outputs": [
        {
          "internalType": "uint256",
          "name": "",
          "type": "uint256"
        }
      ],
      "stateMutability": "view",
      "type": "function"
    },
    {
      "inputs": [],
      "name": "domains",
      "outputs": [
        {
          "internalType": "uint32[]",
          "name": "",
          "type": "uint32[]"
        }
      ],
      "stateMutability": "view",
      "type": "function"
    },
    {
      "inputs": [
        {
          "internalType": "uint32",
          "name": "_domain",
          "type": "uint32"
        },
        {
          "internalType": "bytes32",
          "name": "_router",
          "type": "bytes32"
        }
      ],
      "name": "enrollRemoteRouter",
      "outputs": [],
      "stateMutability": "nonpayable",
      "type": "function"
    },
    {
      "inputs": [
        {
          "internalType": "uint32[]",
          "name": "_domains",
          "type": "uint32[]"
        },
        {
          "internalType": "bytes32[]",
          "name": "_addresses",
          "type": "bytes32[]"
        }
      ],
      "name": "enrollRemoteRouters",
      "outputs": [],
      "stateMutability": "nonpayable",
      "type": "function"
    },
    {
      "inputs": [
        {
          "internalType": "bytes32",
          "name": "role",
          "type": "bytes32"
        }
      ],
      "name": "getRoleAdmin",
      "outputs": [
        {
          "internalType": "bytes32",
          "name": "",
          "type": "bytes32"
        }
      ],
      "stateMutability": "view",
      "type": "function"
    },
    {
      "inputs": [
        {
          "internalType": "address",
          "name": "_user",
          "type": "address"
        }
      ],
      "name": "getUserProfile",
      "outputs": [
        {
          "components": [
            {
              "internalType": "uint256",
              "name": "currentValue",
              "type": "uint256"
            },
            {
              "internalType": "uint256",
              "name": "totalInvested",
              "type": "uint256"
            },
            {
              "internalType": "uint256",
              "name": "totalWithdrawn",
              "type": "uint256"
            },
            {
              "internalType": "uint256",
              "name": "debt",
              "type": "uint256"
            },
            {
              "internalType": "uint256",
              "name": "numberOfTokens",
              "type": "uint256"
            },
            {
              "internalType": "bool",
              "name": "active",
              "type": "bool"
            }
          ],
          "internalType": "struct UserProfile.UserData",
          "name": "user",
          "type": "tuple"
        }
      ],
      "stateMutability": "view",
      "type": "function"
    },
    {
      "inputs": [
        {
          "internalType": "bytes32",
          "name": "role",
          "type": "bytes32"
        },
        {
          "internalType": "address",
          "name": "account",
          "type": "address"
        }
      ],
      "name": "grantRole",
      "outputs": [],
      "stateMutability": "nonpayable",
      "type": "function"
    },
    {
      "inputs": [
        {
          "internalType": "uint32",
          "name": "_origin",
          "type": "uint32"
        },
        {
          "internalType": "bytes32",
          "name": "_sender",
          "type": "bytes32"
        },
        {
          "internalType": "bytes",
          "name": "_message",
          "type": "bytes"
        }
      ],
      "name": "handle",
      "outputs": [],
      "stateMutability": "nonpayable",
      "type": "function"
    },
    {
      "inputs": [
        {
          "internalType": "bytes32",
          "name": "role",
          "type": "bytes32"
        },
        {
          "internalType": "address",
          "name": "account",
          "type": "address"
        }
      ],
      "name": "hasRole",
      "outputs": [
        {
          "internalType": "bool",
          "name": "",
          "type": "bool"
        }
      ],
      "stateMutability": "view",
      "type": "function"
    },
    {
      "inputs": [],
      "name": "interchainGasPaymaster",
      "outputs": [
        {
          "internalType": "contract IInterchainGasPaymaster",
          "name": "",
          "type": "address"
        }
      ],
      "stateMutability": "view",
      "type": "function"
    },
    {
      "inputs": [],
      "name": "interchainSecurityModule",
      "outputs": [
        {
          "internalType": "contract IInterchainSecurityModule",
          "name": "",
          "type": "address"
        }
      ],
      "stateMutability": "view",
      "type": "function"
    },
    {
      "inputs": [],
      "name": "mailbox",
      "outputs": [
        {
          "internalType": "contract IMailbox",
          "name": "",
          "type": "address"
        }
      ],
      "stateMutability": "view",
      "type": "function"
    },
    {
      "inputs": [],
      "name": "owner",
      "outputs": [
        {
          "internalType": "address",
          "name": "",
          "type": "address"
        }
      ],
      "stateMutability": "view",
      "type": "function"
    },
    {
      "inputs": [],
      "name": "paused",
      "outputs": [
        {
          "internalType": "bool",
          "name": "",
          "type": "bool"
        }
      ],
      "stateMutability": "view",
      "type": "function"
    },
    {
      "inputs": [
        {
          "internalType": "uint32",
          "name": "_destinationDomain",
          "type": "uint32"
        }
      ],
      "name": "quoteGasPayment",
      "outputs": [
        {
          "internalType": "uint256",
          "name": "_gasPayment",
          "type": "uint256"
        }
      ],
      "stateMutability": "view",
      "type": "function"
    },
    {
      "inputs": [],
      "name": "renounceOwnership",
      "outputs": [],
      "stateMutability": "nonpayable",
      "type": "function"
    },
    {
      "inputs": [
        {
          "internalType": "bytes32",
          "name": "role",
          "type": "bytes32"
        },
        {
          "internalType": "address",
          "name": "account",
          "type": "address"
        }
      ],
      "name": "renounceRole",
      "outputs": [],
      "stateMutability": "nonpayable",
      "type": "function"
    },
    {
      "inputs": [
        {
          "internalType": "bytes32",
          "name": "role",
          "type": "bytes32"
        },
        {
          "internalType": "address",
          "name": "account",
          "type": "address"
        }
      ],
      "name": "revokeRole",
      "outputs": [],
      "stateMutability": "nonpayable",
      "type": "function"
    },
    {
      "inputs": [
        {
          "internalType": "uint32",
          "name": "_domain",
          "type": "uint32"
        }
      ],
      "name": "routers",
      "outputs": [
        {
          "internalType": "bytes32",
          "name": "",
          "type": "bytes32"
        }
      ],
      "stateMutability": "view",
      "type": "function"
    },
    {
      "inputs": [
        {
          "components": [
            {
              "internalType": "uint32",
              "name": "domain",
              "type": "uint32"
            },
            {
              "internalType": "uint256",
              "name": "gas",
              "type": "uint256"
            }
          ],
          "internalType": "struct GasRouter.GasRouterConfig[]",
          "name": "gasConfigs",
          "type": "tuple[]"
        }
      ],
      "name": "setDestinationGas",
      "outputs": [],
      "stateMutability": "nonpayable",
      "type": "function"
    },
    {
      "inputs": [
        {
          "internalType": "address",
          "name": "_interchainGasPaymaster",
          "type": "address"
        }
      ],
      "name": "setInterchainGasPaymaster",
      "outputs": [],
      "stateMutability": "nonpayable",
      "type": "function"
    },
    {
      "inputs": [
        {
          "internalType": "address",
          "name": "_module",
          "type": "address"
        }
      ],
      "name": "setInterchainSecurityModule",
      "outputs": [],
      "stateMutability": "nonpayable",
      "type": "function"
    },
    {
      "inputs": [
        {
          "internalType": "address",
          "name": "_mailbox",
          "type": "address"
        }
      ],
      "name": "setMailbox",
      "outputs": [],
      "stateMutability": "nonpayable",
      "type": "function"
    },
    {
      "inputs": [
        {
          "internalType": "bytes4",
          "name": "interfaceId",
          "type": "bytes4"
        }
      ],
      "name": "supportsInterface",
      "outputs": [
        {
          "internalType": "bool",
          "name": "",
          "type": "bool"
        }
      ],
      "stateMutability": "view",
      "type": "function"
    },
    {
      "inputs": [
        {
          "internalType": "address",
          "name": "newOwner",
          "type": "address"
        }
      ],
      "name": "transferOwnership",
      "outputs": [],
      "stateMutability": "nonpayable",
      "type": "function"
    },
    {
      "inputs": [
        {
          "internalType": "address",
          "name": "_user",
          "type": "address"
        },
        {
          "internalType": "address",
          "name": "_token",
          "type": "address"
        },
        {
          "internalType": "uint256",
          "name": "addedValue",
          "type": "uint256"
        },
        {
          "internalType": "uint256",
          "name": "addedWithdrawn",
          "type": "uint256"
        },
        {
          "internalType": "uint256",
          "name": "addedDebt",
          "type": "uint256"
        }
      ],
      "name": "updateUserProfile",
      "outputs": [],
      "stateMutability": "nonpayable",
      "type": "function"
    },
    {
      "inputs": [
        {
          "internalType": "address",
          "name": "_user",
          "type": "address"
        },
        {
          "internalType": "address",
          "name": "_token",
          "type": "address"
        },
        {
          "internalType": "uint256",
          "name": "addedValue",
          "type": "uint256"
        },
        {
          "internalType": "uint256",
          "name": "addedWithdrawn",
          "type": "uint256"
        },
        {
          "internalType": "uint256",
          "name": "addedDebt",
          "type": "uint256"
        }
      ],
      "name": "updateUserProfilePerToken",
      "outputs": [],
      "stateMutability": "nonpayable",
      "type": "function"
    },
    {
      "inputs": [
        {
          "internalType": "address",
          "name": "",
          "type": "address"
        }
      ],
      "name": "userData",
      "outputs": [
        {
          "internalType": "uint256",
          "name": "currentValue",
          "type": "uint256"
        },
        {
          "internalType": "uint256",
          "name": "totalInvested",
          "type": "uint256"
        },
        {
          "internalType": "uint256",
          "name": "totalWithdrawn",
          "type": "uint256"
        },
        {
          "internalType": "uint256",
          "name": "debt",
          "type": "uint256"
        },
        {
          "internalType": "uint256",
          "name": "numberOfTokens",
          "type": "uint256"
        },
        {
          "internalType": "bool",
          "name": "active",
          "type": "bool"
        }
      ],
      "stateMutability": "view",
      "type": "function"
    },
    {
      "inputs": [
        {
          "internalType": "address",
          "name": "",
          "type": "address"
        },
        {
          "internalType": "address",
          "name": "",
          "type": "address"
        }
      ],
      "name": "userDataPerToken",
      "outputs": [
        {
          "internalType": "uint256",
          "name": "currentValue",
          "type": "uint256"
        },
        {
          "internalType": "uint256",
          "name": "totalInvested",
          "type": "uint256"
        },
        {
          "internalType": "uint256",
          "name": "totalWithdrawn",
          "type": "uint256"
        },
        {
          "internalType": "uint256",
          "name": "debt",
          "type": "uint256"
        },
        {
          "internalType": "bool",
          "name": "active",
          "type": "bool"
        }
      ],
      "stateMutability": "view",
      "type": "function"
    }
  ],
  "bytecode": "0x60806040523480156200001157600080fd5b50600061013160006101000a81548160ff021916908315150217905550620000607f29944e936a0f6e1cbaa227df218d7d6025c2a2785db840e42a3425f24e9e68ac336200006660201b60201c565b620001e1565b6200007882826200007c60201b60201c565b5050565b6200008e82826200016e60201b60201c565b6200016a57600160ff600084815260200190815260200160002060000160008373ffffffffffffffffffffffffffffffffffffffff1673ffffffffffffffffffffffffffffffffffffffff16815260200190815260200160002060006101000a81548160ff0219169083151502179055506200010f620001d960201b60201c565b73ffffffffffffffffffffffffffffffffffffffff168173ffffffffffffffffffffffffffffffffffffffff16837f2f8788117e7eff1d82e926ec794901d17c78024a50270940304540a733656f0d60405160405180910390a45b5050565b600060ff600084815260200190815260200160002060000160008373ffffffffffffffffffffffffffffffffffffffff1673ffffffffffffffffffffffffffffffffffffffff16815260200190815260200160002060009054906101000a900460ff16905092915050565b600033905090565b61364e80620001f16000396000f3fe608060405234801561001057600080fd5b50600436106101e55760003560e01c80638da5cb5b1161010f578063d547741f116100a2578063f2ed8c5311610071578063f2ed8c5314610585578063f2fde38b146105b5578063f3c61d6b146105d1578063fd3b167c146105ed576101e5565b8063d547741f14610513578063de523cf31461052f578063e9198bf91461054d578063f1bd6f0a14610569576101e5565b8063b1bd6436116100de578063b1bd643614610488578063b49c53a7146104a4578063c8910913146104c0578063d5438eae146104f5576101e5565b80638da5cb5b146103ec57806391d148541461040a578063987ee1561461043a578063a217fddf1461046a576101e5565b806339bb4ad9116101875780635c975abb116101565780635c975abb14610376578063684cb27414610394578063715018a6146103b2578063775313a1146103bc576101e5565b806339bb4ad9146102ea578063440df4f4146103085780634c25deb81461032657806356d5d4751461035a576101e5565b8063248a9ca3116101c3578063248a9ca3146102525780632ead72f6146102825780632f2ff15d146102b257806336568abe146102ce576101e5565b806301ffc9a7146101ea5780630e72cc061461021a5780631121bd9614610236575b600080fd5b61020460048036038101906101ff9190612336565b610609565b604051610211919061237e565b60405180910390f35b610234600480360381019061022f91906123f7565b610683565b005b610250600480360381019061024b919061245a565b610697565b005b61026c6004803603810190610267919061250b565b610917565b6040516102799190612547565b60405180910390f35b61029c6004803603810190610297919061259e565b610937565b6040516102a99190612547565b60405180910390f35b6102cc60048036038101906102c791906125cb565b610960565b005b6102e860048036038101906102e391906125cb565b610981565b005b6102f2610a04565b6040516102ff919061266a565b60405180910390f35b610310610a2a565b60405161031d9190612743565b60405180910390f35b610340600480360381019061033b9190612765565b610a3b565b6040516103519594939291906127b4565b60405180910390f35b610374600480360381019061036f919061286c565b610a8c565b005b61037e610b97565b60405161038b919061237e565b60405180910390f35b61039c610baf565b6040516103a99190612547565b60405180910390f35b6103ba610bd3565b005b6103d660048036038101906103d1919061259e565b610be7565b6040516103e391906128e0565b60405180910390f35b6103f4610bff565b604051610401919061290a565b60405180910390f35b610424600480360381019061041f91906125cb565b610c29565b604051610431919061237e565b60405180910390f35b610454600480360381019061044f91906123f7565b610c94565b60405161046191906129be565b60405180910390f35b610472610da4565b60405161047f9190612547565b60405180910390f35b6104a2600480360381019061049d9190612a2f565b610dab565b005b6104be60048036038101906104b99190612a7c565b610e2a565b005b6104da60048036038101906104d591906123f7565b610e40565b6040516104ec96959493929190612abc565b60405180910390f35b6104fd610e8a565b60405161050a9190612b3e565b60405180910390f35b61052d600480360381019061052891906125cb565b610eb0565b005b610537610ed1565b6040516105449190612b7a565b60405180910390f35b61056760048036038101906105629190612c41565b610ef7565b005b610583600480360381019061057e91906123f7565b610fc0565b005b61059f600480360381019061059a919061259e565b610fd4565b6040516105ac91906128e0565b60405180910390f35b6105cf60048036038101906105ca91906123f7565b61109a565b005b6105eb60048036038101906105e691906123f7565b61111d565b005b6106076004803603810190610602919061245a565b611131565b005b60007f7965db0b000000000000000000000000000000000000000000000000000000007bffffffffffffffffffffffffffffffffffffffffffffffffffffffff1916827bffffffffffffffffffffffffffffffffffffffffffffffffffffffff1916148061067c575061067b8261144f565b5b9050919050565b61068b6114b9565b61069481611537565b50565b6106c17f29944e936a0f6e1cbaa227df218d7d6025c2a2785db840e42a3425f24e9e68ac33610c29565b610700576040517f08c379a00000000000000000000000000000000000000000000000000000000081526004016106f790612d45565b60405180910390fd5b600061013360008773ffffffffffffffffffffffffffffffffffffffff1673ffffffffffffffffffffffffffffffffffffffff16815260200190815260200160002060008673ffffffffffffffffffffffffffffffffffffffff1673ffffffffffffffffffffffffffffffffffffffff1681526020019081526020016000206040518060a0016040529081600082015481526020016001820154815260200160028201548152602001600382015481526020016004820160009054906101000a900460ff161515151581525050905083816020018181516107e19190612d94565b9150818152505082816040018181516107fa9190612d94565b9150818152505081816060018181516108139190612d94565b915081815250508060600151816040015182602001516108339190612dc8565b61083d9190612dc8565b8160000181815250508061013360008873ffffffffffffffffffffffffffffffffffffffff1673ffffffffffffffffffffffffffffffffffffffff16815260200190815260200160002060008773ffffffffffffffffffffffffffffffffffffffff1673ffffffffffffffffffffffffffffffffffffffff1681526020019081526020016000206000820151816000015560208201518160010155604082015181600201556060820151816003015560808201518160040160006101000a81548160ff021916908315150217905550905050505050505050565b600060ff6000838152602001908152602001600020600101549050919050565b6000806109548363ffffffff16609861163d90919063ffffffff16565b91505080915050919050565b61096982610917565b61097281611664565b61097c8383611678565b505050565b610989611759565b73ffffffffffffffffffffffffffffffffffffffff168173ffffffffffffffffffffffffffffffffffffffff16146109f6576040517f08c379a00000000000000000000000000000000000000000000000000000000081526004016109ed90612e6e565b60405180910390fd5b610a008282611761565b5050565b606660009054906101000a900473ffffffffffffffffffffffffffffffffffffffff1681565b6060610a366098611843565b905090565b610133602052816000526040600020602052806000526040600020600091509150508060000154908060010154908060020154908060030154908060040160009054906101000a900460ff16905085565b606560009054906101000a900473ffffffffffffffffffffffffffffffffffffffff1673ffffffffffffffffffffffffffffffffffffffff163373ffffffffffffffffffffffffffffffffffffffff1614610b1c576040517f08c379a0000000000000000000000000000000000000000000000000000000008152600401610b1390612eda565b60405180910390fd5b8383610b28828261190c565b6040518060800160405280604381526020016135d66043913990610b82576040517f08c379a0000000000000000000000000000000000000000000000000000000008152600401610b799190612f79565b60405180910390fd5b50610b8f86868686611921565b505050505050565b600061013160009054906101000a900460ff16905090565b7f29944e936a0f6e1cbaa227df218d7d6025c2a2785db840e42a3425f24e9e68ac81565b610bdb6114b9565b610be56000611999565b565b60cc6020528060005260406000206000915090505481565b6000603360009054906101000a900473ffffffffffffffffffffffffffffffffffffffff16905090565b600060ff600084815260200190815260200160002060000160008373ffffffffffffffffffffffffffffffffffffffff1673ffffffffffffffffffffffffffffffffffffffff16815260200190815260200160002060009054906101000a900460ff16905092915050565b610c9c61229c565b610cc67f29944e936a0f6e1cbaa227df218d7d6025c2a2785db840e42a3425f24e9e68ac33610c29565b610d05576040517f08c379a0000000000000000000000000000000000000000000000000000000008152600401610cfc90612d45565b60405180910390fd5b61013260008373ffffffffffffffffffffffffffffffffffffffff1673ffffffffffffffffffffffffffffffffffffffff1681526020019081526020016000206040518060c001604052908160008201548152602001600182015481526020016002820154815260200160038201548152602001600482015481526020016005820160009054906101000a900460ff1615151515815250509050919050565b6000801b81565b610db36114b9565b60005b82829050811015610e2557610e11838383818110610dd757610dd6612f9b565b5b9050604002016000016020810190610def919061259e565b848484818110610e0257610e01612f9b565b5b90506040020160200135611a5f565b600181610e1e9190612d94565b9050610db6565b505050565b610e326114b9565b610e3c8282611ac5565b5050565b6101326020528060005260406000206000915090508060000154908060010154908060020154908060030154908060040154908060050160009054906101000a900460ff16905086565b606560009054906101000a900473ffffffffffffffffffffffffffffffffffffffff1681565b610eb982610917565b610ec281611664565b610ecc8383611761565b505050565b606760009054906101000a900473ffffffffffffffffffffffffffffffffffffffff1681565b610eff6114b9565b818190508484905014610f47576040517f08c379a0000000000000000000000000000000000000000000000000000000008152600401610f3e90613016565b60405180910390fd5b600084849050905060005b81811015610fb857610fa4868683818110610f7057610f6f612f9b565b5b9050602002016020810190610f85919061259e565b858584818110610f9857610f97612f9b565b5b90506020020135611ac5565b600181610fb19190612d94565b9050610f52565b505050505050565b610fc86114b9565b610fd181611b23565b50565b6000606660009054906101000a900473ffffffffffffffffffffffffffffffffffffffff1673ffffffffffffffffffffffffffffffffffffffff1663a69297938360cc60008663ffffffff1663ffffffff168152602001908152602001600020546040518363ffffffff1660e01b8152600401611052929190613045565b602060405180830381865afa15801561106f573d6000803e3d6000fd5b505050506040513d601f19601f820116820180604052508101906110939190613083565b9050919050565b6110a26114b9565b600073ffffffffffffffffffffffffffffffffffffffff168173ffffffffffffffffffffffffffffffffffffffff1603611111576040517f08c379a000000000000000000000000000000000000000000000000000000000815260040161110890613122565b60405180910390fd5b61111a81611999565b50565b6111256114b9565b61112e81611bf4565b50565b61115b7f29944e936a0f6e1cbaa227df218d7d6025c2a2785db840e42a3425f24e9e68ac33610c29565b61119a576040517f08c379a000000000000000000000000000000000000000000000000000000000815260040161119190612d45565b60405180910390fd5b600061013260008773ffffffffffffffffffffffffffffffffffffffff1673ffffffffffffffffffffffffffffffffffffffff1681526020019081526020016000206040518060c001604052908160008201548152602001600182015481526020016002820154815260200160038201548152602001600482015481526020016005820160009054906101000a900460ff16151515158152505090508060a00151156113fb5783816020018181516112529190612d94565b91508181525050828160400181815161126b9190612d94565b9150818152505081816060018181516112849190612d94565b915081815250508060600151816040015182602001516112a49190612dc8565b6112ae9190612dc8565b81600001818152505061013360008773ffffffffffffffffffffffffffffffffffffffff1673ffffffffffffffffffffffffffffffffffffffff16815260200190815260200160002060008673ffffffffffffffffffffffffffffffffffffffff1673ffffffffffffffffffffffffffffffffffffffff16815260200190815260200160002060040160009054906101000a900460ff166113645760018160800181815161135c9190612d94565b915081815250505b8061013260008873ffffffffffffffffffffffffffffffffffffffff1673ffffffffffffffffffffffffffffffffffffffff168152602001908152602001600020600082015181600001556020820151816001015560408201518160020155606082015181600301556080820151816004015560a08201518160050160006101000a81548160ff0219169083151502179055509050505b6114088686868686610697565b7f44181624acd95575332bef9f31744330941619fcb05780910864a51286a17e36868686868660405161143f959493929190613142565b60405180910390a1505050505050565b60007f01ffc9a7000000000000000000000000000000000000000000000000000000007bffffffffffffffffffffffffffffffffffffffffffffffffffffffff1916827bffffffffffffffffffffffffffffffffffffffffffffffffffffffff1916149050919050565b6114c1611759565b73ffffffffffffffffffffffffffffffffffffffff166114df610bff565b73ffffffffffffffffffffffffffffffffffffffff1614611535576040517f08c379a000000000000000000000000000000000000000000000000000000000815260040161152c906131e1565b60405180910390fd5b565b600073ffffffffffffffffffffffffffffffffffffffff168173ffffffffffffffffffffffffffffffffffffffff161480611577575061157681611cc5565b5b6115b6576040517f08c379a00000000000000000000000000000000000000000000000000000000081526004016115ad9061324d565b60405180910390fd5b80606760006101000a81548173ffffffffffffffffffffffffffffffffffffffff021916908373ffffffffffffffffffffffffffffffffffffffff1602179055508073ffffffffffffffffffffffffffffffffffffffff167ffec811ed4e60aebdaf7a79cad8a97196bf56e35362f039705598226d30c9d24860405160405180910390a250565b6000806116598360001b85600001611ce890919063ffffffff16565b915091509250929050565b61167581611670611759565b611d37565b50565b6116828282610c29565b61175557600160ff600084815260200190815260200160002060000160008373ffffffffffffffffffffffffffffffffffffffff1673ffffffffffffffffffffffffffffffffffffffff16815260200190815260200160002060006101000a81548160ff0219169083151502179055506116fa611759565b73ffffffffffffffffffffffffffffffffffffffff168173ffffffffffffffffffffffffffffffffffffffff16837f2f8788117e7eff1d82e926ec794901d17c78024a50270940304540a733656f0d60405160405180910390a45b5050565b600033905090565b61176b8282610c29565b1561183f57600060ff600084815260200190815260200160002060000160008373ffffffffffffffffffffffffffffffffffffffff1673ffffffffffffffffffffffffffffffffffffffff16815260200190815260200160002060006101000a81548160ff0219169083151502179055506117e4611759565b73ffffffffffffffffffffffffffffffffffffffff168173ffffffffffffffffffffffffffffffffffffffff16837ff6391f5c32d9c69d2a47ea670b442974b53935d1edc7fd64eb21e047a839171b60405160405180910390a45b5050565b6060600061185083611dbc565b9050805167ffffffffffffffff81111561186d5761186c61326d565b5b60405190808252806020026020018201604052801561189b5781602001602082028036833780820191505090505b50915060005b8151811015611905578181815181106118bd576118bc612f9b565b5b60200260200101518382815181106118d8576118d7612f9b565b5b602002602001019063ffffffff16908163ffffffff168152505080806118fd9061329c565b9150506118a1565b5050919050565b60008161191884610937565b14905092915050565b600080600080600086868101906119389190613322565b9450945094509450945061194f8585858585611131565b7f3f434d0241237079abe605e51bb14a5d74c7ef567d2c6930dba299dcc6481787898685858560405161198695949392919061339d565b60405180910390a1505050505050505050565b6000603360009054906101000a900473ffffffffffffffffffffffffffffffffffffffff16905081603360006101000a81548173ffffffffffffffffffffffffffffffffffffffff021916908373ffffffffffffffffffffffffffffffffffffffff1602179055508173ffffffffffffffffffffffffffffffffffffffff168173ffffffffffffffffffffffffffffffffffffffff167f8be0079c531659141344cd1fd0a4f28419497f9722a3daafe3b4186f6b6457e060405160405180910390a35050565b8060cc60008463ffffffff1663ffffffff168152602001908152602001600020819055508163ffffffff167f90563f253ecb04527a6a7ae1a8cbe2bdc6caefb39d5f7b06a973cf5e7f8035a482604051611ab991906128e0565b60405180910390a25050565b611ae18263ffffffff16826098611e799092919063ffffffff16565b8163ffffffff167f97fd51fef1f80c854cbd0150c248e8b2ac4ecdc97cc05e742b5f61c9f4dc645882604051611b179190612547565b60405180910390a25050565b80611b2d81611cc5565b611b6c576040517f08c379a0000000000000000000000000000000000000000000000000000000008152600401611b639061324d565b60405180910390fd5b81606660006101000a81548173ffffffffffffffffffffffffffffffffffffffff021916908373ffffffffffffffffffffffffffffffffffffffff1602179055508173ffffffffffffffffffffffffffffffffffffffff167fb87f5a0bface22cde699143559fb99f990ae54eea236995fc54178af91af859f60405160405180910390a25050565b80611bfe81611cc5565b611c3d576040517f08c379a0000000000000000000000000000000000000000000000000000000008152600401611c349061324d565b60405180910390fd5b81606560006101000a81548173ffffffffffffffffffffffffffffffffffffffff021916908373ffffffffffffffffffffffffffffffffffffffff1602179055508173ffffffffffffffffffffffffffffffffffffffff167f7a61e573722ff8b205c8962b59d37e7d30573f368965597a844a94872204ebd760405160405180910390a25050565b6000808273ffffffffffffffffffffffffffffffffffffffff163b119050919050565b60008060008460020160008581526020019081526020016000205490506000801b8103611d2757611d198585611e9a565b6000801b9250925050611d30565b60018192509250505b9250929050565b611d418282610c29565b611db857611d4e81611eba565b611d5c8360001c6020611ee7565b604051602001611d6d9291906134c4565b6040516020818303038152906040526040517f08c379a0000000000000000000000000000000000000000000000000000000008152600401611daf9190612f79565b60405180910390fd5b5050565b60606000611dcc83600001612123565b90508067ffffffffffffffff811115611de857611de761326d565b5b604051908082528060200260200182016040528015611e165781602001602082028036833780820191505090505b50915060005b81811015611e7257611e3d818560000160000161213890919063ffffffff16565b60001c838281518110611e5357611e52612f9b565b5b6020026020010181815250508080611e6a9061329c565b915050611e1c565b5050919050565b611e948260001b828560000161214f9092919063ffffffff16565b50505050565b6000611eb2828460000161218a90919063ffffffff16565b905092915050565b6060611ee08273ffffffffffffffffffffffffffffffffffffffff16601460ff16611ee7565b9050919050565b606060006002836002611efa91906134fe565b611f049190612d94565b67ffffffffffffffff811115611f1d57611f1c61326d565b5b6040519080825280601f01601f191660200182016040528015611f4f5781602001600182028036833780820191505090505b5090507f300000000000000000000000000000000000000000000000000000000000000081600081518110611f8757611f86612f9b565b5b60200101907effffffffffffffffffffffffffffffffffffffffffffffffffffffffffffff1916908160001a9053507f780000000000000000000000000000000000000000000000000000000000000081600181518110611feb57611fea612f9b565b5b60200101907effffffffffffffffffffffffffffffffffffffffffffffffffffffffffffff1916908160001a9053506000600184600261202b91906134fe565b6120359190612d94565b90505b60018111156120d5577f3031323334353637383961626364656600000000000000000000000000000000600f86166010811061207757612076612f9b565b5b1a60f81b82828151811061208e5761208d612f9b565b5b60200101907effffffffffffffffffffffffffffffffffffffffffffffffffffffffffffff1916908160001a905350600485901c9450806120ce90613540565b9050612038565b5060008414612119576040517f08c379a0000000000000000000000000000000000000000000000000000000008152600401612110906135b5565b60405180910390fd5b8091505092915050565b6000612131826000016121a1565b9050919050565b600061214783600001836121b6565b905092915050565b6000818460020160008581526020019081526020016000208190555061218183856000016121e190919063ffffffff16565b90509392505050565b600061219983600001836121f8565b905092915050565b60006121af8260000161221b565b9050919050565b60008260000182815481106121ce576121cd612f9b565b5b9060005260206000200154905092915050565b60006121f0836000018361222c565b905092915050565b600080836001016000848152602001908152602001600020541415905092915050565b600081600001805490509050919050565b600061223883836121f8565b612291578260000182908060018154018082558091505060019003906000526020600020016000909190919091505582600001805490508360010160008481526020019081526020016000208190555060019050612296565b600090505b92915050565b6040518060c0016040528060008152602001600081526020016000815260200160008152602001600081526020016000151581525090565b600080fd5b600080fd5b60007fffffffff0000000000000000000000000000000000000000000000000000000082169050919050565b612313816122de565b811461231e57600080fd5b50565b6000813590506123308161230a565b92915050565b60006020828403121561234c5761234b6122d4565b5b600061235a84828501612321565b91505092915050565b60008115159050919050565b61237881612363565b82525050565b6000602082019050612393600083018461236f565b92915050565b600073ffffffffffffffffffffffffffffffffffffffff82169050919050565b60006123c482612399565b9050919050565b6123d4816123b9565b81146123df57600080fd5b50565b6000813590506123f1816123cb565b92915050565b60006020828403121561240d5761240c6122d4565b5b600061241b848285016123e2565b91505092915050565b6000819050919050565b61243781612424565b811461244257600080fd5b50565b6000813590506124548161242e565b92915050565b600080600080600060a08688031215612476576124756122d4565b5b6000612484888289016123e2565b9550506020612495888289016123e2565b94505060406124a688828901612445565b93505060606124b788828901612445565b92505060806124c888828901612445565b9150509295509295909350565b6000819050919050565b6124e8816124d5565b81146124f357600080fd5b50565b600081359050612505816124df565b92915050565b600060208284031215612521576125206122d4565b5b600061252f848285016124f6565b91505092915050565b612541816124d5565b82525050565b600060208201905061255c6000830184612538565b92915050565b600063ffffffff82169050919050565b61257b81612562565b811461258657600080fd5b50565b60008135905061259881612572565b92915050565b6000602082840312156125b4576125b36122d4565b5b60006125c284828501612589565b91505092915050565b600080604083850312156125e2576125e16122d4565b5b60006125f0858286016124f6565b9250506020612601858286016123e2565b9150509250929050565b6000819050919050565b600061263061262b61262684612399565b61260b565b612399565b9050919050565b600061264282612615565b9050919050565b600061265482612637565b9050919050565b61266481612649565b82525050565b600060208201905061267f600083018461265b565b92915050565b600081519050919050565b600082825260208201905092915050565b6000819050602082019050919050565b6126ba81612562565b82525050565b60006126cc83836126b1565b60208301905092915050565b6000602082019050919050565b60006126f082612685565b6126fa8185612690565b9350612705836126a1565b8060005b8381101561273657815161271d88826126c0565b9750612728836126d8565b925050600181019050612709565b5085935050505092915050565b6000602082019050818103600083015261275d81846126e5565b905092915050565b6000806040838503121561277c5761277b6122d4565b5b600061278a858286016123e2565b925050602061279b858286016123e2565b9150509250929050565b6127ae81612424565b82525050565b600060a0820190506127c960008301886127a5565b6127d660208301876127a5565b6127e360408301866127a5565b6127f060608301856127a5565b6127fd608083018461236f565b9695505050505050565b600080fd5b600080fd5b600080fd5b60008083601f84011261282c5761282b612807565b5b8235905067ffffffffffffffff8111156128495761284861280c565b5b60208301915083600182028301111561286557612864612811565b5b9250929050565b60008060008060608587031215612886576128856122d4565b5b600061289487828801612589565b94505060206128a5878288016124f6565b935050604085013567ffffffffffffffff8111156128c6576128c56122d9565b5b6128d287828801612816565b925092505092959194509250565b60006020820190506128f560008301846127a5565b92915050565b612904816123b9565b82525050565b600060208201905061291f60008301846128fb565b92915050565b61292e81612424565b82525050565b61293d81612363565b82525050565b60c0820160008201516129596000850182612925565b50602082015161296c6020850182612925565b50604082015161297f6040850182612925565b5060608201516129926060850182612925565b5060808201516129a56080850182612925565b5060a08201516129b860a0850182612934565b50505050565b600060c0820190506129d36000830184612943565b92915050565b60008083601f8401126129ef576129ee612807565b5b8235905067ffffffffffffffff811115612a0c57612a0b61280c565b5b602083019150836040820283011115612a2857612a27612811565b5b9250929050565b60008060208385031215612a4657612a456122d4565b5b600083013567ffffffffffffffff811115612a6457612a636122d9565b5b612a70858286016129d9565b92509250509250929050565b60008060408385031215612a9357612a926122d4565b5b6000612aa185828601612589565b9250506020612ab2858286016124f6565b9150509250929050565b600060c082019050612ad160008301896127a5565b612ade60208301886127a5565b612aeb60408301876127a5565b612af860608301866127a5565b612b0560808301856127a5565b612b1260a083018461236f565b979650505050505050565b6000612b2882612637565b9050919050565b612b3881612b1d565b82525050565b6000602082019050612b536000830184612b2f565b92915050565b6000612b6482612637565b9050919050565b612b7481612b59565b82525050565b6000602082019050612b8f6000830184612b6b565b92915050565b60008083601f840112612bab57612baa612807565b5b8235905067ffffffffffffffff811115612bc857612bc761280c565b5b602083019150836020820283011115612be457612be3612811565b5b9250929050565b60008083601f840112612c0157612c00612807565b5b8235905067ffffffffffffffff811115612c1e57612c1d61280c565b5b602083019150836020820283011115612c3a57612c39612811565b5b9250929050565b60008060008060408587031215612c5b57612c5a6122d4565b5b600085013567ffffffffffffffff811115612c7957612c786122d9565b5b612c8587828801612b95565b9450945050602085013567ffffffffffffffff811115612ca857612ca76122d9565b5b612cb487828801612beb565b925092505092959194509250565b600082825260208201905092915050565b7f43616c6c6572206973206e6f74206170706f76656420666f722074686973206360008201527f616c6c0000000000000000000000000000000000000000000000000000000000602082015250565b6000612d2f602383612cc2565b9150612d3a82612cd3565b604082019050919050565b60006020820190508181036000830152612d5e81612d22565b9050919050565b7f4e487b7100000000000000000000000000000000000000000000000000000000600052601160045260246000fd5b6000612d9f82612424565b9150612daa83612424565b9250828201905080821115612dc257612dc1612d65565b5b92915050565b6000612dd382612424565b9150612dde83612424565b9250828203905081811115612df657612df5612d65565b5b92915050565b7f416363657373436f6e74726f6c3a2063616e206f6e6c792072656e6f756e636560008201527f20726f6c657320666f722073656c660000000000000000000000000000000000602082015250565b6000612e58602f83612cc2565b9150612e6382612dfc565b604082019050919050565b60006020820190508181036000830152612e8781612e4b565b9050919050565b7f216d61696c626f78000000000000000000000000000000000000000000000000600082015250565b6000612ec4600883612cc2565b9150612ecf82612e8e565b602082019050919050565b60006020820190508181036000830152612ef381612eb7565b9050919050565b600081519050919050565b60005b83811015612f23578082015181840152602081019050612f08565b60008484015250505050565b6000601f19601f8301169050919050565b6000612f4b82612efa565b612f558185612cc2565b9350612f65818560208601612f05565b612f6e81612f2f565b840191505092915050565b60006020820190508181036000830152612f938184612f40565b905092915050565b7f4e487b7100000000000000000000000000000000000000000000000000000000600052603260045260246000fd5b7f216c656e67746800000000000000000000000000000000000000000000000000600082015250565b6000613000600783612cc2565b915061300b82612fca565b602082019050919050565b6000602082019050818103600083015261302f81612ff3565b9050919050565b61303f81612562565b82525050565b600060408201905061305a6000830185613036565b61306760208301846127a5565b9392505050565b60008151905061307d8161242e565b92915050565b600060208284031215613099576130986122d4565b5b60006130a78482850161306e565b91505092915050565b7f4f776e61626c653a206e6577206f776e657220697320746865207a65726f206160008201527f6464726573730000000000000000000000000000000000000000000000000000602082015250565b600061310c602683612cc2565b9150613117826130b0565b604082019050919050565b6000602082019050818103600083015261313b816130ff565b9050919050565b600060a08201905061315760008301886128fb565b61316460208301876128fb565b61317160408301866127a5565b61317e60608301856127a5565b61318b60808301846127a5565b9695505050505050565b7f4f776e61626c653a2063616c6c6572206973206e6f7420746865206f776e6572600082015250565b60006131cb602083612cc2565b91506131d682613195565b602082019050919050565b600060208201905081810360008301526131fa816131be565b9050919050565b7f21636f6e74726163740000000000000000000000000000000000000000000000600082015250565b6000613237600983612cc2565b915061324282613201565b602082019050919050565b600060208201905081810360008301526132668161322a565b9050919050565b7f4e487b7100000000000000000000000000000000000000000000000000000000600052604160045260246000fd5b60006132a782612424565b91507fffffffffffffffffffffffffffffffffffffffffffffffffffffffffffffffff82036132d9576132d8612d65565b5b600182019050919050565b60006132ef82612399565b9050919050565b6132ff816132e4565b811461330a57600080fd5b50565b60008135905061331c816132f6565b92915050565b600080600080600060a0868803121561333e5761333d6122d4565b5b600061334c8882890161330d565b955050602061335d8882890161330d565b945050604061336e88828901612445565b935050606061337f88828901612445565b925050608061339088828901612445565b9150509295509295909350565b600060a0820190506133b26000830188613036565b6133bf60208301876128fb565b6133cc60408301866127a5565b6133d960608301856127a5565b6133e660808301846127a5565b9695505050505050565b600081905092915050565b7f416363657373436f6e74726f6c3a206163636f756e7420000000000000000000600082015250565b60006134316017836133f0565b915061343c826133fb565b601782019050919050565b600061345282612efa565b61345c81856133f0565b935061346c818560208601612f05565b80840191505092915050565b7f206973206d697373696e6720726f6c6520000000000000000000000000000000600082015250565b60006134ae6011836133f0565b91506134b982613478565b601182019050919050565b60006134cf82613424565b91506134db8285613447565b91506134e6826134a1565b91506134f28284613447565b91508190509392505050565b600061350982612424565b915061351483612424565b925082820261352281612424565b9150828204841483151761353957613538612d65565b5b5092915050565b600061354b82612424565b91506000820361355e5761355d612d65565b5b600182039050919050565b7f537472696e67733a20686578206c656e67746820696e73756666696369656e74600082015250565b600061359f602083612cc2565b91506135aa82613569565b602082019050919050565b600060208201905081810360008301526135ce81613592565b905091905056fe4e6f20726f7574657220656e726f6c6c656420666f7220646f6d61696e2e2044696420796f7520737065636966792074686520726967687420646f6d61696e2049443fa2646970667358221220c25c2a7dc06fe27834bfa4cc5eb3581808018fd086e454afe4c5801a412b7ae064736f6c63430008140033",
  "linkReferences": {},
  "deployedLinkReferences": {}
}