{
  "_format": "hh-sol-artifact-1",
  "contractName": "HyperLane",
  "sourceName": "contracts/hyperlanerouter.sol",
  "abi": [
    {
      "inputs": [],
      "stateMutability": "nonpayable",
      "type": "constructor"
    },
    {
      "anonymous": false,
      "inputs": [
        {
          "indexed": true,
          "internalType": "uint32",
          "name": "domain",
          "type": "uint32"
        },
        {
          "indexed": false,
          "internalType": "uint256",
          "name": "gas",
          "type": "uint256"
        }
      ],
      "name": "DestinationGasSet",
      "type": "event"
    },
    {
      "anonymous": false,
      "inputs": [
        {
          "indexed": false,
          "internalType": "uint8",
          "name": "version",
          "type": "uint8"
        }
      ],
      "name": "Initialized",
      "type": "event"
    },
    {
      "anonymous": false,
      "inputs": [
        {
          "indexed": true,
          "internalType": "address",
          "name": "interchainGasPaymaster",
          "type": "address"
        }
      ],
      "name": "InterchainGasPaymasterSet",
      "type": "event"
    },
    {
      "anonymous": false,
      "inputs": [
        {
          "indexed": true,
          "internalType": "address",
          "name": "module",
          "type": "address"
        }
      ],
      "name": "InterchainSecurityModuleSet",
      "type": "event"
    },
    {
      "anonymous": false,
      "inputs": [
        {
          "indexed": true,
          "internalType": "address",
          "name": "mailbox",
          "type": "address"
        }
      ],
      "name": "MailboxSet",
      "type": "event"
    },
    {
      "anonymous": false,
      "inputs": [
        {
          "indexed": true,
          "internalType": "address",
          "name": "previousOwner",
          "type": "address"
        },
        {
          "indexed": true,
          "internalType": "address",
          "name": "newOwner",
          "type": "address"
        }
      ],
      "name": "OwnershipTransferred",
      "type": "event"
    },
    {
      "anonymous": false,
      "inputs": [
        {
          "indexed": false,
          "internalType": "address",
          "name": "account",
          "type": "address"
        }
      ],
      "name": "Paused",
      "type": "event"
    },
    {
      "anonymous": false,
      "inputs": [
        {
          "indexed": false,
          "internalType": "uint32",
          "name": "origin",
          "type": "uint32"
        },
        {
          "indexed": false,
          "internalType": "address",
          "name": "user",
          "type": "address"
        },
        {
          "indexed": false,
          "internalType": "uint256",
          "name": "addedValue",
          "type": "uint256"
        },
        {
          "indexed": false,
          "internalType": "uint256",
          "name": "addedWithdrawn",
          "type": "uint256"
        },
        {
          "indexed": false,
          "internalType": "uint256",
          "name": "addedDebt",
          "type": "uint256"
        }
      ],
      "name": "ProfileUpdated",
      "type": "event"
    },
    {
      "anonymous": false,
      "inputs": [
        {
          "indexed": true,
          "internalType": "uint32",
          "name": "domain",
          "type": "uint32"
        },
        {
          "indexed": false,
          "internalType": "bytes32",
          "name": "router",
          "type": "bytes32"
        }
      ],
      "name": "RemoteRouterEnrolled",
      "type": "event"
    },
    {
      "anonymous": false,
      "inputs": [
        {
          "indexed": true,
          "internalType": "bytes32",
          "name": "role",
          "type": "bytes32"
        },
        {
          "indexed": true,
          "internalType": "bytes32",
          "name": "previousAdminRole",
          "type": "bytes32"
        },
        {
          "indexed": true,
          "internalType": "bytes32",
          "name": "newAdminRole",
          "type": "bytes32"
        }
      ],
      "name": "RoleAdminChanged",
      "type": "event"
    },
    {
      "anonymous": false,
      "inputs": [
        {
          "indexed": true,
          "internalType": "bytes32",
          "name": "role",
          "type": "bytes32"
        },
        {
          "indexed": true,
          "internalType": "address",
          "name": "account",
          "type": "address"
        },
        {
          "indexed": true,
          "internalType": "address",
          "name": "sender",
          "type": "address"
        }
      ],
      "name": "RoleGranted",
      "type": "event"
    },
    {
      "anonymous": false,
      "inputs": [
        {
          "indexed": true,
          "internalType": "bytes32",
          "name": "role",
          "type": "bytes32"
        },
        {
          "indexed": true,
          "internalType": "address",
          "name": "account",
          "type": "address"
        },
        {
          "indexed": true,
          "internalType": "address",
          "name": "sender",
          "type": "address"
        }
      ],
      "name": "RoleRevoked",
      "type": "event"
    },
    {
      "anonymous": false,
      "inputs": [
        {
          "indexed": false,
          "internalType": "address",
          "name": "account",
          "type": "address"
        }
      ],
      "name": "Unpaused",
      "type": "event"
    },
    {
      "inputs": [],
      "name": "DEFAULT_ADMIN_ROLE",
      "outputs": [
        {
          "internalType": "bytes32",
          "name": "",
          "type": "bytes32"
        }
      ],
      "stateMutability": "view",
      "type": "function"
    },
    {
      "inputs": [
        {
          "internalType": "uint32",
          "name": "",
          "type": "uint32"
        }
      ],
      "name": "destinationGas",
      "outputs": [
        {
          "internalType": "uint256",
          "name": "",
          "type": "uint256"
        }
      ],
      "stateMutability": "view",
      "type": "function"
    },
    {
      "inputs": [],
      "name": "domains",
      "outputs": [
        {
          "internalType": "uint32[]",
          "name": "",
          "type": "uint32[]"
        }
      ],
      "stateMutability": "view",
      "type": "function"
    },
    {
      "inputs": [
        {
          "internalType": "uint32",
          "name": "_domain",
          "type": "uint32"
        },
        {
          "internalType": "bytes32",
          "name": "_router",
          "type": "bytes32"
        }
      ],
      "name": "enrollRemoteRouter",
      "outputs": [],
      "stateMutability": "nonpayable",
      "type": "function"
    },
    {
      "inputs": [
        {
          "internalType": "uint32[]",
          "name": "_domains",
          "type": "uint32[]"
        },
        {
          "internalType": "bytes32[]",
          "name": "_addresses",
          "type": "bytes32[]"
        }
      ],
      "name": "enrollRemoteRouters",
      "outputs": [],
      "stateMutability": "nonpayable",
      "type": "function"
    },
    {
      "inputs": [
        {
          "internalType": "bytes32",
          "name": "role",
          "type": "bytes32"
        }
      ],
      "name": "getRoleAdmin",
      "outputs": [
        {
          "internalType": "bytes32",
          "name": "",
          "type": "bytes32"
        }
      ],
      "stateMutability": "view",
      "type": "function"
    },
    {
      "inputs": [
        {
          "internalType": "bytes32",
          "name": "role",
          "type": "bytes32"
        },
        {
          "internalType": "address",
          "name": "account",
          "type": "address"
        }
      ],
      "name": "grantRole",
      "outputs": [],
      "stateMutability": "nonpayable",
      "type": "function"
    },
    {
      "inputs": [
        {
          "internalType": "uint32",
          "name": "_origin",
          "type": "uint32"
        },
        {
          "internalType": "bytes32",
          "name": "_sender",
          "type": "bytes32"
        },
        {
          "internalType": "bytes",
          "name": "_message",
          "type": "bytes"
        }
      ],
      "name": "handle",
      "outputs": [],
      "stateMutability": "nonpayable",
      "type": "function"
    },
    {
      "inputs": [
        {
          "internalType": "bytes32",
          "name": "role",
          "type": "bytes32"
        },
        {
          "internalType": "address",
          "name": "account",
          "type": "address"
        }
      ],
      "name": "hasRole",
      "outputs": [
        {
          "internalType": "bool",
          "name": "",
          "type": "bool"
        }
      ],
      "stateMutability": "view",
      "type": "function"
    },
    {
      "inputs": [],
      "name": "interchainGasPaymaster",
      "outputs": [
        {
          "internalType": "contract IInterchainGasPaymaster",
          "name": "",
          "type": "address"
        }
      ],
      "stateMutability": "view",
      "type": "function"
    },
    {
      "inputs": [],
      "name": "interchainSecurityModule",
      "outputs": [
        {
          "internalType": "contract IInterchainSecurityModule",
          "name": "",
          "type": "address"
        }
      ],
      "stateMutability": "view",
      "type": "function"
    },
    {
      "inputs": [],
      "name": "mailbox",
      "outputs": [
        {
          "internalType": "contract IMailbox",
          "name": "",
          "type": "address"
        }
      ],
      "stateMutability": "view",
      "type": "function"
    },
    {
      "inputs": [],
      "name": "owner",
      "outputs": [
        {
          "internalType": "address",
          "name": "",
          "type": "address"
        }
      ],
      "stateMutability": "view",
      "type": "function"
    },
    {
      "inputs": [],
      "name": "paused",
      "outputs": [
        {
          "internalType": "bool",
          "name": "",
          "type": "bool"
        }
      ],
      "stateMutability": "view",
      "type": "function"
    },
    {
      "inputs": [
        {
          "internalType": "uint32",
          "name": "_destinationDomain",
          "type": "uint32"
        }
      ],
      "name": "quoteGasPayment",
      "outputs": [
        {
          "internalType": "uint256",
          "name": "_gasPayment",
          "type": "uint256"
        }
      ],
      "stateMutability": "view",
      "type": "function"
    },
    {
      "inputs": [],
      "name": "renounceOwnership",
      "outputs": [],
      "stateMutability": "nonpayable",
      "type": "function"
    },
    {
      "inputs": [
        {
          "internalType": "bytes32",
          "name": "role",
          "type": "bytes32"
        },
        {
          "internalType": "address",
          "name": "account",
          "type": "address"
        }
      ],
      "name": "renounceRole",
      "outputs": [],
      "stateMutability": "nonpayable",
      "type": "function"
    },
    {
      "inputs": [
        {
          "internalType": "bytes32",
          "name": "role",
          "type": "bytes32"
        },
        {
          "internalType": "address",
          "name": "account",
          "type": "address"
        }
      ],
      "name": "revokeRole",
      "outputs": [],
      "stateMutability": "nonpayable",
      "type": "function"
    },
    {
      "inputs": [
        {
          "internalType": "uint32",
          "name": "_domain",
          "type": "uint32"
        }
      ],
      "name": "routers",
      "outputs": [
        {
          "internalType": "bytes32",
          "name": "",
          "type": "bytes32"
        }
      ],
      "stateMutability": "view",
      "type": "function"
    },
    {
      "inputs": [
        {
          "components": [
            {
              "internalType": "uint32",
              "name": "domain",
              "type": "uint32"
            },
            {
              "internalType": "uint256",
              "name": "gas",
              "type": "uint256"
            }
          ],
          "internalType": "struct GasRouter.GasRouterConfig[]",
          "name": "gasConfigs",
          "type": "tuple[]"
        }
      ],
      "name": "setDestinationGas",
      "outputs": [],
      "stateMutability": "nonpayable",
      "type": "function"
    },
    {
      "inputs": [
        {
          "internalType": "address",
          "name": "_interchainGasPaymaster",
          "type": "address"
        }
      ],
      "name": "setInterchainGasPaymaster",
      "outputs": [],
      "stateMutability": "nonpayable",
      "type": "function"
    },
    {
      "inputs": [
        {
          "internalType": "address",
          "name": "_module",
          "type": "address"
        }
      ],
      "name": "setInterchainSecurityModule",
      "outputs": [],
      "stateMutability": "nonpayable",
      "type": "function"
    },
    {
      "inputs": [
        {
          "internalType": "address",
          "name": "_mailbox",
          "type": "address"
        }
      ],
      "name": "setMailbox",
      "outputs": [],
      "stateMutability": "nonpayable",
      "type": "function"
    },
    {
      "inputs": [
        {
          "internalType": "bytes4",
          "name": "interfaceId",
          "type": "bytes4"
        }
      ],
      "name": "supportsInterface",
      "outputs": [
        {
          "internalType": "bool",
          "name": "",
          "type": "bool"
        }
      ],
      "stateMutability": "view",
      "type": "function"
    },
    {
      "inputs": [
        {
          "internalType": "address",
          "name": "newOwner",
          "type": "address"
        }
      ],
      "name": "transferOwnership",
      "outputs": [],
      "stateMutability": "nonpayable",
      "type": "function"
    }
  ],
  "bytecode": "0x608060405234801561001057600080fd5b50600061013160006101000a81548160ff0219169083151502179055506129e68061003c6000396000f3fe608060405234801561001057600080fd5b50600436106101735760003560e01c80638da5cb5b116100de578063d547741f11610097578063f1bd6f0a11610071578063f1bd6f0a14610424578063f2ed8c5314610440578063f2fde38b14610470578063f3c61d6b1461048c57610173565b8063d547741f146103ce578063de523cf3146103ea578063e9198bf91461040857610173565b80638da5cb5b1461030c57806391d148541461032a578063a217fddf1461035a578063b1bd643614610378578063b49c53a714610394578063d5438eae146103b057610173565b806339bb4ad91161013057806339bb4ad91461025c578063440df4f41461027a57806356d5d475146102985780635c975abb146102b4578063715018a6146102d2578063775313a1146102dc57610173565b806301ffc9a7146101785780630e72cc06146101a8578063248a9ca3146101c45780632ead72f6146101f45780632f2ff15d1461022457806336568abe14610240575b600080fd5b610192600480360381019061018d9190611a1e565b6104a8565b60405161019f9190611a66565b60405180910390f35b6101c260048036038101906101bd9190611adf565b610522565b005b6101de60048036038101906101d99190611b42565b610536565b6040516101eb9190611b7e565b60405180910390f35b61020e60048036038101906102099190611bd5565b610556565b60405161021b9190611b7e565b60405180910390f35b61023e60048036038101906102399190611c02565b61057f565b005b61025a60048036038101906102559190611c02565b6105a0565b005b610264610623565b6040516102719190611ca1565b60405180910390f35b610282610649565b60405161028f9190611d7a565b60405180910390f35b6102b260048036038101906102ad9190611e01565b61065a565b005b6102bc610765565b6040516102c99190611a66565b60405180910390f35b6102da61077d565b005b6102f660048036038101906102f19190611bd5565b610791565b6040516103039190611e8e565b60405180910390f35b6103146107a9565b6040516103219190611eb8565b60405180910390f35b610344600480360381019061033f9190611c02565b6107d3565b6040516103519190611a66565b60405180910390f35b61036261083e565b60405161036f9190611b7e565b60405180910390f35b610392600480360381019061038d9190611f29565b610845565b005b6103ae60048036038101906103a99190611f76565b6108c4565b005b6103b86108da565b6040516103c59190611fd7565b60405180910390f35b6103e860048036038101906103e39190611c02565b610900565b005b6103f2610921565b6040516103ff9190612013565b60405180910390f35b610422600480360381019061041d91906120da565b610947565b005b61043e60048036038101906104399190611adf565b610a10565b005b61045a60048036038101906104559190611bd5565b610a24565b6040516104679190611e8e565b60405180910390f35b61048a60048036038101906104859190611adf565b610aea565b005b6104a660048036038101906104a19190611adf565b610b6d565b005b60007f7965db0b000000000000000000000000000000000000000000000000000000007bffffffffffffffffffffffffffffffffffffffffffffffffffffffff1916827bffffffffffffffffffffffffffffffffffffffffffffffffffffffff1916148061051b575061051a82610b81565b5b9050919050565b61052a610beb565b61053381610c69565b50565b600060ff6000838152602001908152602001600020600101549050919050565b6000806105738363ffffffff166098610d6f90919063ffffffff16565b91505080915050919050565b61058882610536565b61059181610d96565b61059b8383610daa565b505050565b6105a8610e8b565b73ffffffffffffffffffffffffffffffffffffffff168173ffffffffffffffffffffffffffffffffffffffff1614610615576040517f08c379a000000000000000000000000000000000000000000000000000000000815260040161060c906121de565b60405180910390fd5b61061f8282610e93565b5050565b606660009054906101000a900473ffffffffffffffffffffffffffffffffffffffff1681565b60606106556098610f75565b905090565b606560009054906101000a900473ffffffffffffffffffffffffffffffffffffffff1673ffffffffffffffffffffffffffffffffffffffff163373ffffffffffffffffffffffffffffffffffffffff16146106ea576040517f08c379a00000000000000000000000000000000000000000000000000000000081526004016106e19061224a565b60405180910390fd5b83836106f6828261103e565b60405180608001604052806043815260200161296e6043913990610750576040517f08c379a000000000000000000000000000000000000000000000000000000000815260040161074791906122e9565b60405180910390fd5b5061075d86868686611053565b505050505050565b600061013160009054906101000a900460ff16905090565b610785610beb565b61078f60006110b9565b565b60cc6020528060005260406000206000915090505481565b6000603360009054906101000a900473ffffffffffffffffffffffffffffffffffffffff16905090565b600060ff600084815260200190815260200160002060000160008373ffffffffffffffffffffffffffffffffffffffff1673ffffffffffffffffffffffffffffffffffffffff16815260200190815260200160002060009054906101000a900460ff16905092915050565b6000801b81565b61084d610beb565b60005b828290508110156108bf576108ab8383838181106108715761087061230b565b5b90506040020160000160208101906108899190611bd5565b84848481811061089c5761089b61230b565b5b9050604002016020013561117f565b6001816108b89190612369565b9050610850565b505050565b6108cc610beb565b6108d682826111e5565b5050565b606560009054906101000a900473ffffffffffffffffffffffffffffffffffffffff1681565b61090982610536565b61091281610d96565b61091c8383610e93565b505050565b606760009054906101000a900473ffffffffffffffffffffffffffffffffffffffff1681565b61094f610beb565b818190508484905014610997576040517f08c379a000000000000000000000000000000000000000000000000000000000815260040161098e906123e9565b60405180910390fd5b600084849050905060005b81811015610a08576109f48686838181106109c0576109bf61230b565b5b90506020020160208101906109d59190611bd5565b8585848181106109e8576109e761230b565b5b905060200201356111e5565b600181610a019190612369565b90506109a2565b505050505050565b610a18610beb565b610a2181611243565b50565b6000606660009054906101000a900473ffffffffffffffffffffffffffffffffffffffff1673ffffffffffffffffffffffffffffffffffffffff1663a69297938360cc60008663ffffffff1663ffffffff168152602001908152602001600020546040518363ffffffff1660e01b8152600401610aa2929190612418565b602060405180830381865afa158015610abf573d6000803e3d6000fd5b505050506040513d601f19601f82011682018060405250810190610ae3919061246d565b9050919050565b610af2610beb565b600073ffffffffffffffffffffffffffffffffffffffff168173ffffffffffffffffffffffffffffffffffffffff1603610b61576040517f08c379a0000000000000000000000000000000000000000000000000000000008152600401610b589061250c565b60405180910390fd5b610b6a816110b9565b50565b610b75610beb565b610b7e81611314565b50565b60007f01ffc9a7000000000000000000000000000000000000000000000000000000007bffffffffffffffffffffffffffffffffffffffffffffffffffffffff1916827bffffffffffffffffffffffffffffffffffffffffffffffffffffffff1916149050919050565b610bf3610e8b565b73ffffffffffffffffffffffffffffffffffffffff16610c116107a9565b73ffffffffffffffffffffffffffffffffffffffff1614610c67576040517f08c379a0000000000000000000000000000000000000000000000000000000008152600401610c5e90612578565b60405180910390fd5b565b600073ffffffffffffffffffffffffffffffffffffffff168173ffffffffffffffffffffffffffffffffffffffff161480610ca95750610ca8816113e5565b5b610ce8576040517f08c379a0000000000000000000000000000000000000000000000000000000008152600401610cdf906125e4565b60405180910390fd5b80606760006101000a81548173ffffffffffffffffffffffffffffffffffffffff021916908373ffffffffffffffffffffffffffffffffffffffff1602179055508073ffffffffffffffffffffffffffffffffffffffff167ffec811ed4e60aebdaf7a79cad8a97196bf56e35362f039705598226d30c9d24860405160405180910390a250565b600080610d8b8360001b8560000161140890919063ffffffff16565b915091509250929050565b610da781610da2610e8b565b611457565b50565b610db482826107d3565b610e8757600160ff600084815260200190815260200160002060000160008373ffffffffffffffffffffffffffffffffffffffff1673ffffffffffffffffffffffffffffffffffffffff16815260200190815260200160002060006101000a81548160ff021916908315150217905550610e2c610e8b565b73ffffffffffffffffffffffffffffffffffffffff168173ffffffffffffffffffffffffffffffffffffffff16837f2f8788117e7eff1d82e926ec794901d17c78024a50270940304540a733656f0d60405160405180910390a45b5050565b600033905090565b610e9d82826107d3565b15610f7157600060ff600084815260200190815260200160002060000160008373ffffffffffffffffffffffffffffffffffffffff1673ffffffffffffffffffffffffffffffffffffffff16815260200190815260200160002060006101000a81548160ff021916908315150217905550610f16610e8b565b73ffffffffffffffffffffffffffffffffffffffff168173ffffffffffffffffffffffffffffffffffffffff16837ff6391f5c32d9c69d2a47ea670b442974b53935d1edc7fd64eb21e047a839171b60405160405180910390a45b5050565b60606000610f82836114dc565b9050805167ffffffffffffffff811115610f9f57610f9e612604565b5b604051908082528060200260200182016040528015610fcd5781602001602082028036833780820191505090505b50915060005b815181101561103757818181518110610fef57610fee61230b565b5b602002602001015183828151811061100a5761100961230b565b5b602002602001019063ffffffff16908163ffffffff1681525050808061102f90612633565b915050610fd3565b5050919050565b60008161104a84610556565b14905092915050565b600080600080858581019061106891906126ce565b93509350935093507f3f434d0241237079abe605e51bb14a5d74c7ef567d2c6930dba299dcc648178788858585856040516110a7959493929190612735565b60405180910390a15050505050505050565b6000603360009054906101000a900473ffffffffffffffffffffffffffffffffffffffff16905081603360006101000a81548173ffffffffffffffffffffffffffffffffffffffff021916908373ffffffffffffffffffffffffffffffffffffffff1602179055508173ffffffffffffffffffffffffffffffffffffffff168173ffffffffffffffffffffffffffffffffffffffff167f8be0079c531659141344cd1fd0a4f28419497f9722a3daafe3b4186f6b6457e060405160405180910390a35050565b8060cc60008463ffffffff1663ffffffff168152602001908152602001600020819055508163ffffffff167f90563f253ecb04527a6a7ae1a8cbe2bdc6caefb39d5f7b06a973cf5e7f8035a4826040516111d99190611e8e565b60405180910390a25050565b6112018263ffffffff168260986115999092919063ffffffff16565b8163ffffffff167f97fd51fef1f80c854cbd0150c248e8b2ac4ecdc97cc05e742b5f61c9f4dc6458826040516112379190611b7e565b60405180910390a25050565b8061124d816113e5565b61128c576040517f08c379a0000000000000000000000000000000000000000000000000000000008152600401611283906125e4565b60405180910390fd5b81606660006101000a81548173ffffffffffffffffffffffffffffffffffffffff021916908373ffffffffffffffffffffffffffffffffffffffff1602179055508173ffffffffffffffffffffffffffffffffffffffff167fb87f5a0bface22cde699143559fb99f990ae54eea236995fc54178af91af859f60405160405180910390a25050565b8061131e816113e5565b61135d576040517f08c379a0000000000000000000000000000000000000000000000000000000008152600401611354906125e4565b60405180910390fd5b81606560006101000a81548173ffffffffffffffffffffffffffffffffffffffff021916908373ffffffffffffffffffffffffffffffffffffffff1602179055508173ffffffffffffffffffffffffffffffffffffffff167f7a61e573722ff8b205c8962b59d37e7d30573f368965597a844a94872204ebd760405160405180910390a25050565b6000808273ffffffffffffffffffffffffffffffffffffffff163b119050919050565b60008060008460020160008581526020019081526020016000205490506000801b81036114475761143985856115ba565b6000801b9250925050611450565b60018192509250505b9250929050565b61146182826107d3565b6114d85761146e816115da565b61147c8360001c6020611607565b60405160200161148d92919061285c565b6040516020818303038152906040526040517f08c379a00000000000000000000000000000000000000000000000000000000081526004016114cf91906122e9565b60405180910390fd5b5050565b606060006114ec83600001611843565b90508067ffffffffffffffff81111561150857611507612604565b5b6040519080825280602002602001820160405280156115365781602001602082028036833780820191505090505b50915060005b818110156115925761155d818560000160000161185890919063ffffffff16565b60001c8382815181106115735761157261230b565b5b602002602001018181525050808061158a90612633565b91505061153c565b5050919050565b6115b48260001b828560000161186f9092919063ffffffff16565b50505050565b60006115d282846000016118aa90919063ffffffff16565b905092915050565b60606116008273ffffffffffffffffffffffffffffffffffffffff16601460ff16611607565b9050919050565b60606000600283600261161a9190612896565b6116249190612369565b67ffffffffffffffff81111561163d5761163c612604565b5b6040519080825280601f01601f19166020018201604052801561166f5781602001600182028036833780820191505090505b5090507f3000000000000000000000000000000000000000000000000000000000000000816000815181106116a7576116a661230b565b5b60200101907effffffffffffffffffffffffffffffffffffffffffffffffffffffffffffff1916908160001a9053507f78000000000000000000000000000000000000000000000000000000000000008160018151811061170b5761170a61230b565b5b60200101907effffffffffffffffffffffffffffffffffffffffffffffffffffffffffffff1916908160001a9053506000600184600261174b9190612896565b6117559190612369565b90505b60018111156117f5577f3031323334353637383961626364656600000000000000000000000000000000600f8616601081106117975761179661230b565b5b1a60f81b8282815181106117ae576117ad61230b565b5b60200101907effffffffffffffffffffffffffffffffffffffffffffffffffffffffffffff1916908160001a905350600485901c9450806117ee906128d8565b9050611758565b5060008414611839576040517f08c379a00000000000000000000000000000000000000000000000000000000081526004016118309061294d565b60405180910390fd5b8091505092915050565b6000611851826000016118c1565b9050919050565b600061186783600001836118d6565b905092915050565b600081846002016000858152602001908152602001600020819055506118a1838560000161190190919063ffffffff16565b90509392505050565b60006118b98360000183611918565b905092915050565b60006118cf8260000161193b565b9050919050565b60008260000182815481106118ee576118ed61230b565b5b9060005260206000200154905092915050565b6000611910836000018361194c565b905092915050565b600080836001016000848152602001908152602001600020541415905092915050565b600081600001805490509050919050565b60006119588383611918565b6119b15782600001829080600181540180825580915050600190039060005260206000200160009091909190915055826000018054905083600101600084815260200190815260200160002081905550600190506119b6565b600090505b92915050565b600080fd5b600080fd5b60007fffffffff0000000000000000000000000000000000000000000000000000000082169050919050565b6119fb816119c6565b8114611a0657600080fd5b50565b600081359050611a18816119f2565b92915050565b600060208284031215611a3457611a336119bc565b5b6000611a4284828501611a09565b91505092915050565b60008115159050919050565b611a6081611a4b565b82525050565b6000602082019050611a7b6000830184611a57565b92915050565b600073ffffffffffffffffffffffffffffffffffffffff82169050919050565b6000611aac82611a81565b9050919050565b611abc81611aa1565b8114611ac757600080fd5b50565b600081359050611ad981611ab3565b92915050565b600060208284031215611af557611af46119bc565b5b6000611b0384828501611aca565b91505092915050565b6000819050919050565b611b1f81611b0c565b8114611b2a57600080fd5b50565b600081359050611b3c81611b16565b92915050565b600060208284031215611b5857611b576119bc565b5b6000611b6684828501611b2d565b91505092915050565b611b7881611b0c565b82525050565b6000602082019050611b936000830184611b6f565b92915050565b600063ffffffff82169050919050565b611bb281611b99565b8114611bbd57600080fd5b50565b600081359050611bcf81611ba9565b92915050565b600060208284031215611beb57611bea6119bc565b5b6000611bf984828501611bc0565b91505092915050565b60008060408385031215611c1957611c186119bc565b5b6000611c2785828601611b2d565b9250506020611c3885828601611aca565b9150509250929050565b6000819050919050565b6000611c67611c62611c5d84611a81565b611c42565b611a81565b9050919050565b6000611c7982611c4c565b9050919050565b6000611c8b82611c6e565b9050919050565b611c9b81611c80565b82525050565b6000602082019050611cb66000830184611c92565b92915050565b600081519050919050565b600082825260208201905092915050565b6000819050602082019050919050565b611cf181611b99565b82525050565b6000611d038383611ce8565b60208301905092915050565b6000602082019050919050565b6000611d2782611cbc565b611d318185611cc7565b9350611d3c83611cd8565b8060005b83811015611d6d578151611d548882611cf7565b9750611d5f83611d0f565b925050600181019050611d40565b5085935050505092915050565b60006020820190508181036000830152611d948184611d1c565b905092915050565b600080fd5b600080fd5b600080fd5b60008083601f840112611dc157611dc0611d9c565b5b8235905067ffffffffffffffff811115611dde57611ddd611da1565b5b602083019150836001820283011115611dfa57611df9611da6565b5b9250929050565b60008060008060608587031215611e1b57611e1a6119bc565b5b6000611e2987828801611bc0565b9450506020611e3a87828801611b2d565b935050604085013567ffffffffffffffff811115611e5b57611e5a6119c1565b5b611e6787828801611dab565b925092505092959194509250565b6000819050919050565b611e8881611e75565b82525050565b6000602082019050611ea36000830184611e7f565b92915050565b611eb281611aa1565b82525050565b6000602082019050611ecd6000830184611ea9565b92915050565b60008083601f840112611ee957611ee8611d9c565b5b8235905067ffffffffffffffff811115611f0657611f05611da1565b5b602083019150836040820283011115611f2257611f21611da6565b5b9250929050565b60008060208385031215611f4057611f3f6119bc565b5b600083013567ffffffffffffffff811115611f5e57611f5d6119c1565b5b611f6a85828601611ed3565b92509250509250929050565b60008060408385031215611f8d57611f8c6119bc565b5b6000611f9b85828601611bc0565b9250506020611fac85828601611b2d565b9150509250929050565b6000611fc182611c6e565b9050919050565b611fd181611fb6565b82525050565b6000602082019050611fec6000830184611fc8565b92915050565b6000611ffd82611c6e565b9050919050565b61200d81611ff2565b82525050565b60006020820190506120286000830184612004565b92915050565b60008083601f84011261204457612043611d9c565b5b8235905067ffffffffffffffff81111561206157612060611da1565b5b60208301915083602082028301111561207d5761207c611da6565b5b9250929050565b60008083601f84011261209a57612099611d9c565b5b8235905067ffffffffffffffff8111156120b7576120b6611da1565b5b6020830191508360208202830111156120d3576120d2611da6565b5b9250929050565b600080600080604085870312156120f4576120f36119bc565b5b600085013567ffffffffffffffff811115612112576121116119c1565b5b61211e8782880161202e565b9450945050602085013567ffffffffffffffff811115612141576121406119c1565b5b61214d87828801612084565b925092505092959194509250565b600082825260208201905092915050565b7f416363657373436f6e74726f6c3a2063616e206f6e6c792072656e6f756e636560008201527f20726f6c657320666f722073656c660000000000000000000000000000000000602082015250565b60006121c8602f8361215b565b91506121d38261216c565b604082019050919050565b600060208201905081810360008301526121f7816121bb565b9050919050565b7f216d61696c626f78000000000000000000000000000000000000000000000000600082015250565b600061223460088361215b565b915061223f826121fe565b602082019050919050565b6000602082019050818103600083015261226381612227565b9050919050565b600081519050919050565b60005b83811015612293578082015181840152602081019050612278565b60008484015250505050565b6000601f19601f8301169050919050565b60006122bb8261226a565b6122c5818561215b565b93506122d5818560208601612275565b6122de8161229f565b840191505092915050565b6000602082019050818103600083015261230381846122b0565b905092915050565b7f4e487b7100000000000000000000000000000000000000000000000000000000600052603260045260246000fd5b7f4e487b7100000000000000000000000000000000000000000000000000000000600052601160045260246000fd5b600061237482611e75565b915061237f83611e75565b92508282019050808211156123975761239661233a565b5b92915050565b7f216c656e67746800000000000000000000000000000000000000000000000000600082015250565b60006123d360078361215b565b91506123de8261239d565b602082019050919050565b60006020820190508181036000830152612402816123c6565b9050919050565b61241281611b99565b82525050565b600060408201905061242d6000830185612409565b61243a6020830184611e7f565b9392505050565b61244a81611e75565b811461245557600080fd5b50565b60008151905061246781612441565b92915050565b600060208284031215612483576124826119bc565b5b600061249184828501612458565b91505092915050565b7f4f776e61626c653a206e6577206f776e657220697320746865207a65726f206160008201527f6464726573730000000000000000000000000000000000000000000000000000602082015250565b60006124f660268361215b565b91506125018261249a565b604082019050919050565b60006020820190508181036000830152612525816124e9565b9050919050565b7f4f776e61626c653a2063616c6c6572206973206e6f7420746865206f776e6572600082015250565b600061256260208361215b565b915061256d8261252c565b602082019050919050565b6000602082019050818103600083015261259181612555565b9050919050565b7f21636f6e74726163740000000000000000000000000000000000000000000000600082015250565b60006125ce60098361215b565b91506125d982612598565b602082019050919050565b600060208201905081810360008301526125fd816125c1565b9050919050565b7f4e487b7100000000000000000000000000000000000000000000000000000000600052604160045260246000fd5b600061263e82611e75565b91507fffffffffffffffffffffffffffffffffffffffffffffffffffffffffffffffff82036126705761266f61233a565b5b600182019050919050565b600061268682611a81565b9050919050565b6126968161267b565b81146126a157600080fd5b50565b6000813590506126b38161268d565b92915050565b6000813590506126c881612441565b92915050565b600080600080608085870312156126e8576126e76119bc565b5b60006126f6878288016126a4565b9450506020612707878288016126b9565b9350506040612718878288016126b9565b9250506060612729878288016126b9565b91505092959194509250565b600060a08201905061274a6000830188612409565b6127576020830187611ea9565b6127646040830186611e7f565b6127716060830185611e7f565b61277e6080830184611e7f565b9695505050505050565b600081905092915050565b7f416363657373436f6e74726f6c3a206163636f756e7420000000000000000000600082015250565b60006127c9601783612788565b91506127d482612793565b601782019050919050565b60006127ea8261226a565b6127f48185612788565b9350612804818560208601612275565b80840191505092915050565b7f206973206d697373696e6720726f6c6520000000000000000000000000000000600082015250565b6000612846601183612788565b915061285182612810565b601182019050919050565b6000612867826127bc565b915061287382856127df565b915061287e82612839565b915061288a82846127df565b91508190509392505050565b60006128a182611e75565b91506128ac83611e75565b92508282026128ba81611e75565b915082820484148315176128d1576128d061233a565b5b5092915050565b60006128e382611e75565b9150600082036128f6576128f561233a565b5b600182039050919050565b7f537472696e67733a20686578206c656e67746820696e73756666696369656e74600082015250565b600061293760208361215b565b915061294282612901565b602082019050919050565b600060208201905081810360008301526129668161292a565b905091905056fe4e6f20726f7574657220656e726f6c6c656420666f7220646f6d61696e2e2044696420796f7520737065636966792074686520726967687420646f6d61696e2049443fa264697066735822122038088ea6400184b5778fc68d296c25dd5c2625211f2c226f6acd31a8718a464c64736f6c63430008140033",
  "linkReferences": {},
  "deployedLinkReferences": {}
}