{
  "_format": "hh-sol-artifact-1",
  "contractName": "ChainLink",
  "sourceName": "contracts/ChainLink.sol",
  "abi": [
    {
      "inputs": [
        {
          "internalType": "address",
          "name": "_registry",
          "type": "address"
        },
        {
          "internalType": "address",
          "name": "_router",
          "type": "address"
        }
      ],
      "stateMutability": "nonpayable",
      "type": "constructor"
    },
    {
      "inputs": [
        {
          "internalType": "address",
          "name": "router",
          "type": "address"
        }
      ],
      "name": "InvalidRouter",
      "type": "error"
    },
    {
      "anonymous": false,
      "inputs": [
        {
          "indexed": true,
          "internalType": "bytes32",
          "name": "messageId",
          "type": "bytes32"
        },
        {
          "indexed": true,
          "internalType": "uint64",
          "name": "sourceChainSelector",
          "type": "uint64"
        },
        {
          "indexed": false,
          "internalType": "address",
          "name": "sender",
          "type": "address"
        },
        {
          "indexed": false,
          "internalType": "string",
          "name": "text",
          "type": "string"
        },
        {
          "indexed": false,
          "internalType": "address",
          "name": "token",
          "type": "address"
        },
        {
          "indexed": false,
          "internalType": "uint256",
          "name": "tokenAmount",
          "type": "uint256"
        }
      ],
      "name": "MessageReceived",
      "type": "event"
    },
    {
      "anonymous": false,
      "inputs": [
        {
          "indexed": true,
          "internalType": "bytes32",
          "name": "messageId",
          "type": "bytes32"
        },
        {
          "indexed": true,
          "internalType": "uint64",
          "name": "destinationChainSelector",
          "type": "uint64"
        },
        {
          "indexed": false,
          "internalType": "address",
          "name": "receiver",
          "type": "address"
        },
        {
          "indexed": false,
          "internalType": "string",
          "name": "text",
          "type": "string"
        },
        {
          "indexed": false,
          "internalType": "address",
          "name": "token",
          "type": "address"
        },
        {
          "indexed": false,
          "internalType": "uint256",
          "name": "tokenAmount",
          "type": "uint256"
        },
        {
          "indexed": false,
          "internalType": "address",
          "name": "feeToken",
          "type": "address"
        },
        {
          "indexed": false,
          "internalType": "uint256",
          "name": "fees",
          "type": "uint256"
        }
      ],
      "name": "MessageSent",
      "type": "event"
    },
    {
      "anonymous": false,
      "inputs": [
        {
          "indexed": true,
          "internalType": "address",
          "name": "from",
          "type": "address"
        },
        {
          "indexed": true,
          "internalType": "address",
          "name": "to",
          "type": "address"
        }
      ],
      "name": "OwnershipTransferRequested",
      "type": "event"
    },
    {
      "anonymous": false,
      "inputs": [
        {
          "indexed": true,
          "internalType": "address",
          "name": "from",
          "type": "address"
        },
        {
          "indexed": true,
          "internalType": "address",
          "name": "to",
          "type": "address"
        }
      ],
      "name": "OwnershipTransferred",
      "type": "event"
    },
    {
      "inputs": [],
      "name": "RELAYER_ROLE",
      "outputs": [
        {
          "internalType": "bytes32",
          "name": "",
          "type": "bytes32"
        }
      ],
      "stateMutability": "view",
      "type": "function"
    },
    {
      "inputs": [],
      "name": "acceptOwnership",
      "outputs": [],
      "stateMutability": "nonpayable",
      "type": "function"
    },
    {
      "inputs": [
        {
          "components": [
            {
              "internalType": "bytes32",
              "name": "messageId",
              "type": "bytes32"
            },
            {
              "internalType": "uint64",
              "name": "sourceChainSelector",
              "type": "uint64"
            },
            {
              "internalType": "bytes",
              "name": "sender",
              "type": "bytes"
            },
            {
              "internalType": "bytes",
              "name": "data",
              "type": "bytes"
            },
            {
              "components": [
                {
                  "internalType": "address",
                  "name": "token",
                  "type": "address"
                },
                {
                  "internalType": "uint256",
                  "name": "amount",
                  "type": "uint256"
                }
              ],
              "internalType": "struct Client.EVMTokenAmount[]",
              "name": "destTokenAmounts",
              "type": "tuple[]"
            }
          ],
          "internalType": "struct Client.Any2EVMMessage",
          "name": "message",
          "type": "tuple"
        }
      ],
      "name": "ccipReceive",
      "outputs": [],
      "stateMutability": "nonpayable",
      "type": "function"
    },
    {
      "inputs": [],
      "name": "getRouter",
      "outputs": [
        {
          "internalType": "address",
          "name": "",
          "type": "address"
        }
      ],
      "stateMutability": "view",
      "type": "function"
    },
    {
      "inputs": [
        {
          "internalType": "address",
          "name": "_base",
          "type": "address"
        },
        {
          "internalType": "address",
          "name": "_quote",
          "type": "address"
        }
      ],
      "name": "getTokenPrice",
      "outputs": [
        {
          "internalType": "uint256",
          "name": "",
          "type": "uint256"
        }
      ],
      "stateMutability": "view",
      "type": "function"
    },
    {
      "inputs": [],
      "name": "owner",
      "outputs": [
        {
          "internalType": "address",
          "name": "",
          "type": "address"
        }
      ],
      "stateMutability": "view",
      "type": "function"
    },
    {
      "inputs": [
        {
          "internalType": "uint64",
          "name": "_destinationChainSelector",
          "type": "uint64"
        },
        {
          "internalType": "address",
          "name": "_receiver",
          "type": "address"
        },
        {
          "internalType": "string",
          "name": "_text",
          "type": "string"
        },
        {
          "internalType": "address",
          "name": "_token",
          "type": "address"
        },
        {
          "internalType": "uint256",
          "name": "_amount",
          "type": "uint256"
        }
      ],
      "name": "sendMessagePayNative",
      "outputs": [
        {
          "internalType": "bytes32",
          "name": "messageId",
          "type": "bytes32"
        }
      ],
      "stateMutability": "payable",
      "type": "function"
    },
    {
      "inputs": [
        {
          "internalType": "bytes4",
          "name": "interfaceId",
          "type": "bytes4"
        }
      ],
      "name": "supportsInterface",
      "outputs": [
        {
          "internalType": "bool",
          "name": "",
          "type": "bool"
        }
      ],
      "stateMutability": "pure",
      "type": "function"
    },
    {
      "inputs": [
        {
          "internalType": "address",
          "name": "to",
          "type": "address"
        }
      ],
      "name": "transferOwnership",
      "outputs": [],
      "stateMutability": "nonpayable",
      "type": "function"
    }
  ],
  "bytecode": "0x60a06040523480156200001157600080fd5b5060405162002a6338038062002a638339818101604052810190620000379190620003c4565b3380600083600073ffffffffffffffffffffffffffffffffffffffff168173ffffffffffffffffffffffffffffffffffffffff1603620000b15760006040517fd7f73334000000000000000000000000000000000000000000000000000000008152600401620000a891906200041c565b60405180910390fd5b8073ffffffffffffffffffffffffffffffffffffffff1660808173ffffffffffffffffffffffffffffffffffffffff168152505050600073ffffffffffffffffffffffffffffffffffffffff168273ffffffffffffffffffffffffffffffffffffffff160362000158576040517f08c379a00000000000000000000000000000000000000000000000000000000081526004016200014f906200049a565b60405180910390fd5b816000806101000a81548173ffffffffffffffffffffffffffffffffffffffff021916908373ffffffffffffffffffffffffffffffffffffffff160217905550600073ffffffffffffffffffffffffffffffffffffffff168173ffffffffffffffffffffffffffffffffffffffff1614620001df57620001de816200022b60201b60201c565b5b50505081600260006101000a81548173ffffffffffffffffffffffffffffffffffffffff021916908373ffffffffffffffffffffffffffffffffffffffff16021790555050506200052e565b3373ffffffffffffffffffffffffffffffffffffffff168173ffffffffffffffffffffffffffffffffffffffff16036200029c576040517f08c379a000000000000000000000000000000000000000000000000000000000815260040162000293906200050c565b60405180910390fd5b80600160006101000a81548173ffffffffffffffffffffffffffffffffffffffff021916908373ffffffffffffffffffffffffffffffffffffffff1602179055508073ffffffffffffffffffffffffffffffffffffffff1660008054906101000a900473ffffffffffffffffffffffffffffffffffffffff1673ffffffffffffffffffffffffffffffffffffffff167fed8889f560326eb138920d842192f0eb3dd22b4f139c87a2c57538e05bae127860405160405180910390a350565b600080fd5b600073ffffffffffffffffffffffffffffffffffffffff82169050919050565b60006200038c826200035f565b9050919050565b6200039e816200037f565b8114620003aa57600080fd5b50565b600081519050620003be8162000393565b92915050565b60008060408385031215620003de57620003dd6200035a565b5b6000620003ee85828601620003ad565b92505060206200040185828601620003ad565b9150509250929050565b62000416816200037f565b82525050565b60006020820190506200043360008301846200040b565b92915050565b600082825260208201905092915050565b7f43616e6e6f7420736574206f776e657220746f207a65726f0000000000000000600082015250565b60006200048260188362000439565b91506200048f826200044a565b602082019050919050565b60006020820190508181036000830152620004b58162000473565b9050919050565b7f43616e6e6f74207472616e7366657220746f2073656c66000000000000000000600082015250565b6000620004f460178362000439565b91506200050182620004bc565b602082019050919050565b600060208201905081810360008301526200052781620004e5565b9050919050565b60805161251262000551600039600081816108730152610a2c01526125126000f3fe6080604052600436106100865760003560e01c80638da5cb5b116100595780638da5cb5b14610138578063926d7d7f14610163578063afa998601461018e578063b0f479a1146101cb578063f2fde38b146101f657610086565b806301ffc9a71461008b5780631dd11dac146100c857806379ba5097146100f857806385572ffb1461010f575b600080fd5b34801561009757600080fd5b506100b260048036038101906100ad919061105f565b61021f565b6040516100bf91906110a7565b60405180910390f35b6100e260048036038101906100dd91906111fb565b6102f1565b6040516100ef91906112ae565b60405180910390f35b34801561010457600080fd5b5061010d6106dc565b005b34801561011b57600080fd5b50610136600480360381019061013191906112ed565b610871565b005b34801561014457600080fd5b5061014d610916565b60405161015a9190611345565b60405180910390f35b34801561016f57600080fd5b5061017861093f565b60405161018591906112ae565b60405180910390f35b34801561019a57600080fd5b506101b560048036038101906101b09190611360565b610963565b6040516101c291906113af565b60405180910390f35b3480156101d757600080fd5b506101e0610a28565b6040516101ed9190611345565b60405180910390f35b34801561020257600080fd5b5061021d600480360381019061021891906113ca565b610a50565b005b60007f85572ffb000000000000000000000000000000000000000000000000000000007bffffffffffffffffffffffffffffffffffffffffffffffffffffffff1916827bffffffffffffffffffffffffffffffffffffffffffffffffffffffff191614806102ea57507f01ffc9a7000000000000000000000000000000000000000000000000000000007bffffffffffffffffffffffffffffffffffffffffffffffffffffffff1916827bffffffffffffffffffffffffffffffffffffffffffffffffffffffff1916145b9050919050565b6000808373ffffffffffffffffffffffffffffffffffffffff1663dd62ed3e33306040518363ffffffff1660e01b815260040161032f9291906113f7565b602060405180830381865afa15801561034c573d6000803e3d6000fd5b505050506040513d601f19601f820116820180604052508101906103709190611435565b9050828110156103b5576040517f08c379a00000000000000000000000000000000000000000000000000000000081526004016103ac906114bf565b60405180910390fd5b8373ffffffffffffffffffffffffffffffffffffffff166323b872dd3330866040518463ffffffff1660e01b81526004016103f2939291906114df565b6020604051808303816000875af1158015610411573d6000803e3d6000fd5b505050506040513d601f19601f820116820180604052508101906104359190611542565b50600061044788888888886000610a64565b905060003073ffffffffffffffffffffffffffffffffffffffff1663b0f479a16040518163ffffffff1660e01b8152600401602060405180830381865afa158015610496573d6000803e3d6000fd5b505050506040513d601f19601f820116820180604052508101906104ba9190611584565b905060008173ffffffffffffffffffffffffffffffffffffffff166320487ded8c856040518363ffffffff1660e01b81526004016104f99291906117d7565b602060405180830381865afa158015610516573d6000803e3d6000fd5b505050506040513d601f19601f8201168201806040525081019061053a9190611435565b905034811161057e576040517f08c379a000000000000000000000000000000000000000000000000000000000815260040161057590611853565b60405180910390fd5b8673ffffffffffffffffffffffffffffffffffffffff1663095ea7b383886040518363ffffffff1660e01b81526004016105b9929190611873565b6020604051808303816000875af11580156105d8573d6000803e3d6000fd5b505050506040513d601f19601f820116820180604052508101906105fc9190611542565b508173ffffffffffffffffffffffffffffffffffffffff166396f4e9f9828d866040518463ffffffff1660e01b81526004016106399291906117d7565b60206040518083038185885af1158015610657573d6000803e3d6000fd5b50505050506040513d601f19601f8201168201806040525081019061067c91906118c8565b94508a67ffffffffffffffff16857f437cb3c5ba4364504dda6ba3c906ffb0897c7beeb1675f3aaf22a1b9a99b39948c8c8c8c8c6000896040516106c69796959493929190611931565b60405180910390a3505050509695505050505050565b600160009054906101000a900473ffffffffffffffffffffffffffffffffffffffff1673ffffffffffffffffffffffffffffffffffffffff163373ffffffffffffffffffffffffffffffffffffffff161461076c576040517f08c379a0000000000000000000000000000000000000000000000000000000008152600401610763906119e7565b60405180910390fd5b60008060009054906101000a900473ffffffffffffffffffffffffffffffffffffffff169050336000806101000a81548173ffffffffffffffffffffffffffffffffffffffff021916908373ffffffffffffffffffffffffffffffffffffffff1602179055506000600160006101000a81548173ffffffffffffffffffffffffffffffffffffffff021916908373ffffffffffffffffffffffffffffffffffffffff1602179055503373ffffffffffffffffffffffffffffffffffffffff168173ffffffffffffffffffffffffffffffffffffffff167f8be0079c531659141344cd1fd0a4f28419497f9722a3daafe3b4186f6b6457e060405160405180910390a350565b7f000000000000000000000000000000000000000000000000000000000000000073ffffffffffffffffffffffffffffffffffffffff163373ffffffffffffffffffffffffffffffffffffffff161461090157336040517fd7f733340000000000000000000000000000000000000000000000000000000081526004016108f89190611345565b60405180910390fd5b6109138161090e90611d3a565b610bbb565b50565b60008060009054906101000a900473ffffffffffffffffffffffffffffffffffffffff16905090565b7fe2b7fb3b832174769106daebcfd6d1970523240dda11281102db9363b83b0dc481565b600080600260009054906101000a900473ffffffffffffffffffffffffffffffffffffffff1673ffffffffffffffffffffffffffffffffffffffff1663bcfd032d85856040518363ffffffff1660e01b81526004016109c39291906113f7565b60a060405180830381865afa1580156109e0573d6000803e3d6000fd5b505050506040513d601f19601f82011682018060405250810190610a049190611dc5565b5050509150506000811215610a1d576000915050610a22565b809150505b92915050565b60007f0000000000000000000000000000000000000000000000000000000000000000905090565b610a58610d43565b610a6181610dd3565b50565b610a6c610f7e565b6000600167ffffffffffffffff811115610a8957610a88611a0c565b5b604051908082528060200260200182016040528015610ac257816020015b610aaf610fc3565b815260200190600190039081610aa75790505b50905060405180604001604052808673ffffffffffffffffffffffffffffffffffffffff1681526020018581525081600081518110610b0457610b03611e40565b5b60200260200101819052506040518060a0016040528089604051602001610b2b9190611345565b60405160208183030381529060405281526020018888604051602001610b52929190611e6f565b60405160208183030381529060405281526020018281526020018473ffffffffffffffffffffffffffffffffffffffff168152602001610bab604051806040016040528062030d40815260200160001515815250610eff565b8152509150509695505050505050565b80600001516003819055508060600151806020019051810190610bde9190611f34565b60069081610bec9190612194565b508060800151600081518110610c0557610c04611e40565b5b602002602001015160000151600460006101000a81548173ffffffffffffffffffffffffffffffffffffffff021916908373ffffffffffffffffffffffffffffffffffffffff1602179055508060800151600081518110610c6957610c68611e40565b5b602002602001015160200151600581905550806020015167ffffffffffffffff1681600001517f90ec910a8f80bb04e184a806e2ae6f8786ef2ae898859a3180f953397edc12018360400151806020019051810190610cc891906122a4565b8460600151806020019051810190610ce09190611f34565b8560800151600081518110610cf857610cf7611e40565b5b6020026020010151600001518660800151600081518110610d1c57610d1b611e40565b5b602002602001015160200151604051610d38949392919061235f565b60405180910390a350565b60008054906101000a900473ffffffffffffffffffffffffffffffffffffffff1673ffffffffffffffffffffffffffffffffffffffff163373ffffffffffffffffffffffffffffffffffffffff1614610dd1576040517f08c379a0000000000000000000000000000000000000000000000000000000008152600401610dc8906123f7565b60405180910390fd5b565b3373ffffffffffffffffffffffffffffffffffffffff168173ffffffffffffffffffffffffffffffffffffffff1603610e41576040517f08c379a0000000000000000000000000000000000000000000000000000000008152600401610e3890612463565b60405180910390fd5b80600160006101000a81548173ffffffffffffffffffffffffffffffffffffffff021916908373ffffffffffffffffffffffffffffffffffffffff1602179055508073ffffffffffffffffffffffffffffffffffffffff1660008054906101000a900473ffffffffffffffffffffffffffffffffffffffff1673ffffffffffffffffffffffffffffffffffffffff167fed8889f560326eb138920d842192f0eb3dd22b4f139c87a2c57538e05bae127860405160405180910390a350565b60606397a657c960e01b82604051602401610f1a91906124c1565b604051602081830303815290604052907bffffffffffffffffffffffffffffffffffffffffffffffffffffffff19166020820180517bffffffffffffffffffffffffffffffffffffffffffffffffffffffff83818316178352505050509050919050565b6040518060a00160405280606081526020016060815260200160608152602001600073ffffffffffffffffffffffffffffffffffffffff168152602001606081525090565b6040518060400160405280600073ffffffffffffffffffffffffffffffffffffffff168152602001600081525090565b6000604051905090565b600080fd5b600080fd5b60007fffffffff0000000000000000000000000000000000000000000000000000000082169050919050565b61103c81611007565b811461104757600080fd5b50565b60008135905061105981611033565b92915050565b60006020828403121561107557611074610ffd565b5b60006110838482850161104a565b91505092915050565b60008115159050919050565b6110a18161108c565b82525050565b60006020820190506110bc6000830184611098565b92915050565b600067ffffffffffffffff82169050919050565b6110df816110c2565b81146110ea57600080fd5b50565b6000813590506110fc816110d6565b92915050565b600073ffffffffffffffffffffffffffffffffffffffff82169050919050565b600061112d82611102565b9050919050565b61113d81611122565b811461114857600080fd5b50565b60008135905061115a81611134565b92915050565b600080fd5b600080fd5b600080fd5b60008083601f84011261118557611184611160565b5b8235905067ffffffffffffffff8111156111a2576111a1611165565b5b6020830191508360018202830111156111be576111bd61116a565b5b9250929050565b6000819050919050565b6111d8816111c5565b81146111e357600080fd5b50565b6000813590506111f5816111cf565b92915050565b60008060008060008060a0878903121561121857611217610ffd565b5b600061122689828a016110ed565b965050602061123789828a0161114b565b955050604087013567ffffffffffffffff81111561125857611257611002565b5b61126489828a0161116f565b9450945050606061127789828a0161114b565b925050608061128889828a016111e6565b9150509295509295509295565b6000819050919050565b6112a881611295565b82525050565b60006020820190506112c3600083018461129f565b92915050565b600080fd5b600060a082840312156112e4576112e36112c9565b5b81905092915050565b60006020828403121561130357611302610ffd565b5b600082013567ffffffffffffffff81111561132157611320611002565b5b61132d848285016112ce565b91505092915050565b61133f81611122565b82525050565b600060208201905061135a6000830184611336565b92915050565b6000806040838503121561137757611376610ffd565b5b60006113858582860161114b565b92505060206113968582860161114b565b9150509250929050565b6113a9816111c5565b82525050565b60006020820190506113c460008301846113a0565b92915050565b6000602082840312156113e0576113df610ffd565b5b60006113ee8482850161114b565b91505092915050565b600060408201905061140c6000830185611336565b6114196020830184611336565b9392505050565b60008151905061142f816111cf565b92915050565b60006020828403121561144b5761144a610ffd565b5b600061145984828501611420565b91505092915050565b600082825260208201905092915050565b7f416c6c6f77616e6365206e6f742073756666696369656e740000000000000000600082015250565b60006114a9601883611462565b91506114b482611473565b602082019050919050565b600060208201905081810360008301526114d88161149c565b9050919050565b60006060820190506114f46000830186611336565b6115016020830185611336565b61150e60408301846113a0565b949350505050565b61151f8161108c565b811461152a57600080fd5b50565b60008151905061153c81611516565b92915050565b60006020828403121561155857611557610ffd565b5b60006115668482850161152d565b91505092915050565b60008151905061157e81611134565b92915050565b60006020828403121561159a57611599610ffd565b5b60006115a88482850161156f565b91505092915050565b6115ba816110c2565b82525050565b600081519050919050565b600082825260208201905092915050565b60005b838110156115fa5780820151818401526020810190506115df565b60008484015250505050565b6000601f19601f8301169050919050565b6000611622826115c0565b61162c81856115cb565b935061163c8185602086016115dc565b61164581611606565b840191505092915050565b600081519050919050565b600082825260208201905092915050565b6000819050602082019050919050565b61168581611122565b82525050565b611694816111c5565b82525050565b6040820160008201516116b0600085018261167c565b5060208201516116c3602085018261168b565b50505050565b60006116d5838361169a565b60408301905092915050565b6000602082019050919050565b60006116f982611650565b611703818561165b565b935061170e8361166c565b8060005b8381101561173f57815161172688826116c9565b9750611731836116e1565b925050600181019050611712565b5085935050505092915050565b600060a08301600083015184820360008601526117698282611617565b915050602083015184820360208601526117838282611617565b9150506040830151848203604086015261179d82826116ee565b91505060608301516117b2606086018261167c565b50608083015184820360808601526117ca8282611617565b9150508091505092915050565b60006040820190506117ec60008301856115b1565b81810360208301526117fe818461174c565b90509392505050565b7f4e6f7420656e6f7567682062616c616e63650000000000000000000000000000600082015250565b600061183d601283611462565b915061184882611807565b602082019050919050565b6000602082019050818103600083015261186c81611830565b9050919050565b60006040820190506118886000830185611336565b61189560208301846113a0565b9392505050565b6118a581611295565b81146118b057600080fd5b50565b6000815190506118c28161189c565b92915050565b6000602082840312156118de576118dd610ffd565b5b60006118ec848285016118b3565b91505092915050565b82818337600083830152505050565b60006119108385611462565b935061191d8385846118f5565b61192683611606565b840190509392505050565b600060c082019050611946600083018a611336565b818103602083015261195981888a611904565b90506119686040830187611336565b61197560608301866113a0565b6119826080830185611336565b61198f60a08301846113a0565b98975050505050505050565b7f4d7573742062652070726f706f736564206f776e657200000000000000000000600082015250565b60006119d1601683611462565b91506119dc8261199b565b602082019050919050565b60006020820190508181036000830152611a00816119c4565b9050919050565b600080fd5b7f4e487b7100000000000000000000000000000000000000000000000000000000600052604160045260246000fd5b611a4482611606565b810181811067ffffffffffffffff82111715611a6357611a62611a0c565b5b80604052505050565b6000611a76610ff3565b9050611a828282611a3b565b919050565b600080fd5b600081359050611a9b8161189c565b92915050565b600080fd5b600067ffffffffffffffff821115611ac157611ac0611a0c565b5b611aca82611606565b9050602081019050919050565b6000611aea611ae584611aa6565b611a6c565b905082815260208101848484011115611b0657611b05611aa1565b5b611b118482856118f5565b509392505050565b600082601f830112611b2e57611b2d611160565b5b8135611b3e848260208601611ad7565b91505092915050565b600067ffffffffffffffff821115611b6257611b61611a0c565b5b602082029050602081019050919050565b600060408284031215611b8957611b88611a07565b5b611b936040611a6c565b90506000611ba38482850161114b565b6000830152506020611bb7848285016111e6565b60208301525092915050565b6000611bd6611bd184611b47565b611a6c565b90508083825260208201905060408402830185811115611bf957611bf861116a565b5b835b81811015611c225780611c0e8882611b73565b845260208401935050604081019050611bfb565b5050509392505050565b600082601f830112611c4157611c40611160565b5b8135611c51848260208601611bc3565b91505092915050565b600060a08284031215611c7057611c6f611a07565b5b611c7a60a0611a6c565b90506000611c8a84828501611a8c565b6000830152506020611c9e848285016110ed565b602083015250604082013567ffffffffffffffff811115611cc257611cc1611a87565b5b611cce84828501611b19565b604083015250606082013567ffffffffffffffff811115611cf257611cf1611a87565b5b611cfe84828501611b19565b606083015250608082013567ffffffffffffffff811115611d2257611d21611a87565b5b611d2e84828501611c2c565b60808301525092915050565b6000611d463683611c5a565b9050919050565b600069ffffffffffffffffffff82169050919050565b611d6c81611d4d565b8114611d7757600080fd5b50565b600081519050611d8981611d63565b92915050565b6000819050919050565b611da281611d8f565b8114611dad57600080fd5b50565b600081519050611dbf81611d99565b92915050565b600080600080600060a08688031215611de157611de0610ffd565b5b6000611def88828901611d7a565b9550506020611e0088828901611db0565b9450506040611e1188828901611420565b9350506060611e2288828901611420565b9250506080611e3388828901611d7a565b9150509295509295909350565b7f4e487b7100000000000000000000000000000000000000000000000000000000600052603260045260246000fd5b60006020820190508181036000830152611e8a818486611904565b90509392505050565b600067ffffffffffffffff821115611eae57611ead611a0c565b5b611eb782611606565b9050602081019050919050565b6000611ed7611ed284611e93565b611a6c565b905082815260208101848484011115611ef357611ef2611aa1565b5b611efe8482856115dc565b509392505050565b600082601f830112611f1b57611f1a611160565b5b8151611f2b848260208601611ec4565b91505092915050565b600060208284031215611f4a57611f49610ffd565b5b600082015167ffffffffffffffff811115611f6857611f67611002565b5b611f7484828501611f06565b91505092915050565b600081519050919050565b7f4e487b7100000000000000000000000000000000000000000000000000000000600052602260045260246000fd5b60006002820490506001821680611fcf57607f821691505b602082108103611fe257611fe1611f88565b5b50919050565b60008190508160005260206000209050919050565b60006020601f8301049050919050565b600082821b905092915050565b60006008830261204a7fffffffffffffffffffffffffffffffffffffffffffffffffffffffffffffffff8261200d565b612054868361200d565b95508019841693508086168417925050509392505050565b6000819050919050565b600061209161208c612087846111c5565b61206c565b6111c5565b9050919050565b6000819050919050565b6120ab83612076565b6120bf6120b782612098565b84845461201a565b825550505050565b600090565b6120d46120c7565b6120df8184846120a2565b505050565b5b81811015612103576120f86000826120cc565b6001810190506120e5565b5050565b601f8211156121485761211981611fe8565b61212284611ffd565b81016020851015612131578190505b61214561213d85611ffd565b8301826120e4565b50505b505050565b600082821c905092915050565b600061216b6000198460080261214d565b1980831691505092915050565b6000612184838361215a565b9150826002028217905092915050565b61219d82611f7d565b67ffffffffffffffff8111156121b6576121b5611a0c565b5b6121c08254611fb7565b6121cb828285612107565b600060209050601f8311600181146121fe57600084156121ec578287015190505b6121f68582612178565b86555061225e565b601f19841661220c86611fe8565b60005b828110156122345784890151825560018201915060208501945060208101905061220f565b86831015612251578489015161224d601f89168261215a565b8355505b6001600288020188555050505b505050505050565b600061227182611102565b9050919050565b61228181612266565b811461228c57600080fd5b50565b60008151905061229e81612278565b92915050565b6000602082840312156122ba576122b9610ffd565b5b60006122c88482850161228f565b91505092915050565b60006122ec6122e76122e284611102565b61206c565b611102565b9050919050565b60006122fe826122d1565b9050919050565b6000612310826122f3565b9050919050565b61232081612305565b82525050565b600061233182611f7d565b61233b8185611462565b935061234b8185602086016115dc565b61235481611606565b840191505092915050565b60006080820190506123746000830187612317565b81810360208301526123868186612326565b90506123956040830185611336565b6123a260608301846113a0565b95945050505050565b7f4f6e6c792063616c6c61626c65206279206f776e657200000000000000000000600082015250565b60006123e1601683611462565b91506123ec826123ab565b602082019050919050565b60006020820190508181036000830152612410816123d4565b9050919050565b7f43616e6e6f74207472616e7366657220746f2073656c66000000000000000000600082015250565b600061244d601783611462565b915061245882612417565b602082019050919050565b6000602082019050818103600083015261247c81612440565b9050919050565b61248c8161108c565b82525050565b6040820160008201516124a8600085018261168b565b5060208201516124bb6020850182612483565b50505050565b60006040820190506124d66000830184612492565b9291505056fea2646970667358221220787780bb393cb326cddebf7d7507b0012b7aba6b896337a2e08c476cc52dd0b264736f6c63430008140033",
  "linkReferences": {},
  "deployedLinkReferences": {}
}