{
  "_format": "hh-sol-artifact-1",
  "contractName": "TokenVault",
  "sourceName": "contracts/CompoundingVault.sol",
  "abi": [
    {
      "inputs": [
        {
          "internalType": "uint32",
          "name": "_destination",
          "type": "uint32"
        }
      ],
      "stateMutability": "nonpayable",
      "type": "constructor"
    },
    {
      "anonymous": false,
      "inputs": [
        {
          "indexed": true,
          "internalType": "uint32",
          "name": "domain",
          "type": "uint32"
        },
        {
          "indexed": false,
          "internalType": "uint256",
          "name": "gas",
          "type": "uint256"
        }
      ],
      "name": "DestinationGasSet",
      "type": "event"
    },
    {
      "anonymous": false,
      "inputs": [
        {
          "indexed": false,
          "internalType": "uint8",
          "name": "version",
          "type": "uint8"
        }
      ],
      "name": "Initialized",
      "type": "event"
    },
    {
      "anonymous": false,
      "inputs": [
        {
          "indexed": true,
          "internalType": "address",
          "name": "interchainGasPaymaster",
          "type": "address"
        }
      ],
      "name": "InterchainGasPaymasterSet",
      "type": "event"
    },
    {
      "anonymous": false,
      "inputs": [
        {
          "indexed": true,
          "internalType": "address",
          "name": "module",
          "type": "address"
        }
      ],
      "name": "InterchainSecurityModuleSet",
      "type": "event"
    },
    {
      "anonymous": false,
      "inputs": [
        {
          "indexed": true,
          "internalType": "address",
          "name": "mailbox",
          "type": "address"
        }
      ],
      "name": "MailboxSet",
      "type": "event"
    },
    {
      "anonymous": false,
      "inputs": [
        {
          "indexed": true,
          "internalType": "address",
          "name": "previousOwner",
          "type": "address"
        },
        {
          "indexed": true,
          "internalType": "address",
          "name": "newOwner",
          "type": "address"
        }
      ],
      "name": "OwnershipTransferred",
      "type": "event"
    },
    {
      "anonymous": false,
      "inputs": [
        {
          "indexed": false,
          "internalType": "address",
          "name": "account",
          "type": "address"
        }
      ],
      "name": "Paused",
      "type": "event"
    },
    {
      "anonymous": false,
      "inputs": [
        {
          "indexed": false,
          "internalType": "uint32",
          "name": "origin",
          "type": "uint32"
        },
        {
          "indexed": false,
          "internalType": "address",
          "name": "user",
          "type": "address"
        },
        {
          "indexed": false,
          "internalType": "uint256",
          "name": "addedValue",
          "type": "uint256"
        },
        {
          "indexed": false,
          "internalType": "uint256",
          "name": "addedWithdrawn",
          "type": "uint256"
        },
        {
          "indexed": false,
          "internalType": "uint256",
          "name": "addedDebt",
          "type": "uint256"
        }
      ],
      "name": "ProfileUpdated",
      "type": "event"
    },
    {
      "anonymous": false,
      "inputs": [
        {
          "indexed": true,
          "internalType": "uint32",
          "name": "domain",
          "type": "uint32"
        },
        {
          "indexed": false,
          "internalType": "bytes32",
          "name": "router",
          "type": "bytes32"
        }
      ],
      "name": "RemoteRouterEnrolled",
      "type": "event"
    },
    {
      "anonymous": false,
      "inputs": [
        {
          "indexed": true,
          "internalType": "bytes32",
          "name": "role",
          "type": "bytes32"
        },
        {
          "indexed": true,
          "internalType": "bytes32",
          "name": "previousAdminRole",
          "type": "bytes32"
        },
        {
          "indexed": true,
          "internalType": "bytes32",
          "name": "newAdminRole",
          "type": "bytes32"
        }
      ],
      "name": "RoleAdminChanged",
      "type": "event"
    },
    {
      "anonymous": false,
      "inputs": [
        {
          "indexed": true,
          "internalType": "bytes32",
          "name": "role",
          "type": "bytes32"
        },
        {
          "indexed": true,
          "internalType": "address",
          "name": "account",
          "type": "address"
        },
        {
          "indexed": true,
          "internalType": "address",
          "name": "sender",
          "type": "address"
        }
      ],
      "name": "RoleGranted",
      "type": "event"
    },
    {
      "anonymous": false,
      "inputs": [
        {
          "indexed": true,
          "internalType": "bytes32",
          "name": "role",
          "type": "bytes32"
        },
        {
          "indexed": true,
          "internalType": "address",
          "name": "account",
          "type": "address"
        },
        {
          "indexed": true,
          "internalType": "address",
          "name": "sender",
          "type": "address"
        }
      ],
      "name": "RoleRevoked",
      "type": "event"
    },
    {
      "anonymous": false,
      "inputs": [
        {
          "indexed": false,
          "internalType": "address",
          "name": "account",
          "type": "address"
        }
      ],
      "name": "Unpaused",
      "type": "event"
    },
    {
      "inputs": [],
      "name": "COMPOUNDER_ROLE",
      "outputs": [
        {
          "internalType": "bytes32",
          "name": "",
          "type": "bytes32"
        }
      ],
      "stateMutability": "view",
      "type": "function"
    },
    {
      "inputs": [],
      "name": "DEFAULT_ADMIN_ROLE",
      "outputs": [
        {
          "internalType": "bytes32",
          "name": "",
          "type": "bytes32"
        }
      ],
      "stateMutability": "view",
      "type": "function"
    },
    {
      "inputs": [],
      "name": "RELAYER_ROLE",
      "outputs": [
        {
          "internalType": "bytes32",
          "name": "",
          "type": "bytes32"
        }
      ],
      "stateMutability": "view",
      "type": "function"
    },
    {
      "inputs": [
        {
          "internalType": "address",
          "name": "_tokenAddress",
          "type": "address"
        },
        {
          "internalType": "uint256",
          "name": "_newLockDuration",
          "type": "uint256"
        }
      ],
      "name": "changeLockDuration",
      "outputs": [],
      "stateMutability": "nonpayable",
      "type": "function"
    },
    {
      "inputs": [
        {
          "internalType": "address",
          "name": "_tokenAddress",
          "type": "address"
        },
        {
          "internalType": "address",
          "name": "_recipient",
          "type": "address"
        }
      ],
      "name": "clearStuckFunds",
      "outputs": [],
      "stateMutability": "nonpayable",
      "type": "function"
    },
    {
      "inputs": [
        {
          "internalType": "address",
          "name": "_token",
          "type": "address"
        },
        {
          "internalType": "address",
          "name": "user",
          "type": "address"
        },
        {
          "internalType": "bytes[]",
          "name": "data",
          "type": "bytes[]"
        },
        {
          "internalType": "bytes32[]",
          "name": "sampleResults",
          "type": "bytes32[]"
        },
        {
          "internalType": "uint256",
          "name": "_extraAmount",
          "type": "uint256"
        }
      ],
      "name": "compoundInvestment",
      "outputs": [],
      "stateMutability": "nonpayable",
      "type": "function"
    },
    {
      "inputs": [],
      "name": "defaultUnlock",
      "outputs": [
        {
          "internalType": "uint256",
          "name": "",
          "type": "uint256"
        }
      ],
      "stateMutability": "view",
      "type": "function"
    },
    {
      "inputs": [
        {
          "internalType": "address",
          "name": "_tokenAddress",
          "type": "address"
        },
        {
          "internalType": "uint256",
          "name": "_amount",
          "type": "uint256"
        },
        {
          "internalType": "uint256",
          "name": "_lockDuration",
          "type": "uint256"
        }
      ],
      "name": "deposit",
      "outputs": [],
      "stateMutability": "nonpayable",
      "type": "function"
    },
    {
      "inputs": [
        {
          "internalType": "uint32",
          "name": "",
          "type": "uint32"
        }
      ],
      "name": "destinationGas",
      "outputs": [
        {
          "internalType": "uint256",
          "name": "",
          "type": "uint256"
        }
      ],
      "stateMutability": "view",
      "type": "function"
    },
    {
      "inputs": [],
      "name": "domains",
      "outputs": [
        {
          "internalType": "uint32[]",
          "name": "",
          "type": "uint32[]"
        }
      ],
      "stateMutability": "view",
      "type": "function"
    },
    {
      "inputs": [
        {
          "internalType": "uint32",
          "name": "_domain",
          "type": "uint32"
        },
        {
          "internalType": "bytes32",
          "name": "_router",
          "type": "bytes32"
        }
      ],
      "name": "enrollRemoteRouter",
      "outputs": [],
      "stateMutability": "nonpayable",
      "type": "function"
    },
    {
      "inputs": [
        {
          "internalType": "uint32[]",
          "name": "_domains",
          "type": "uint32[]"
        },
        {
          "internalType": "bytes32[]",
          "name": "_addresses",
          "type": "bytes32[]"
        }
      ],
      "name": "enrollRemoteRouters",
      "outputs": [],
      "stateMutability": "nonpayable",
      "type": "function"
    },
    {
      "inputs": [
        {
          "internalType": "address",
          "name": "target",
          "type": "address"
        },
        {
          "internalType": "bytes[]",
          "name": "data",
          "type": "bytes[]"
        },
        {
          "internalType": "bytes32[]",
          "name": "sampleResults",
          "type": "bytes32[]"
        }
      ],
      "name": "externalCall",
      "outputs": [
        {
          "internalType": "bytes[]",
          "name": "",
          "type": "bytes[]"
        }
      ],
      "stateMutability": "nonpayable",
      "type": "function"
    },
    {
      "inputs": [
        {
          "internalType": "bytes32",
          "name": "role",
          "type": "bytes32"
        }
      ],
      "name": "getRoleAdmin",
      "outputs": [
        {
          "internalType": "bytes32",
          "name": "",
          "type": "bytes32"
        }
      ],
      "stateMutability": "view",
      "type": "function"
    },
    {
      "inputs": [
        {
          "internalType": "bytes32",
          "name": "role",
          "type": "bytes32"
        },
        {
          "internalType": "address",
          "name": "account",
          "type": "address"
        }
      ],
      "name": "grantRole",
      "outputs": [],
      "stateMutability": "nonpayable",
      "type": "function"
    },
    {
      "inputs": [
        {
          "internalType": "uint32",
          "name": "_origin",
          "type": "uint32"
        },
        {
          "internalType": "bytes32",
          "name": "_sender",
          "type": "bytes32"
        },
        {
          "internalType": "bytes",
          "name": "_message",
          "type": "bytes"
        }
      ],
      "name": "handle",
      "outputs": [],
      "stateMutability": "nonpayable",
      "type": "function"
    },
    {
      "inputs": [
        {
          "internalType": "bytes32",
          "name": "role",
          "type": "bytes32"
        },
        {
          "internalType": "address",
          "name": "account",
          "type": "address"
        }
      ],
      "name": "hasRole",
      "outputs": [
        {
          "internalType": "bool",
          "name": "",
          "type": "bool"
        }
      ],
      "stateMutability": "view",
      "type": "function"
    },
    {
      "inputs": [],
      "name": "interchainGasPaymaster",
      "outputs": [
        {
          "internalType": "contract IInterchainGasPaymaster",
          "name": "",
          "type": "address"
        }
      ],
      "stateMutability": "view",
      "type": "function"
    },
    {
      "inputs": [],
      "name": "interchainSecurityModule",
      "outputs": [
        {
          "internalType": "contract IInterchainSecurityModule",
          "name": "",
          "type": "address"
        }
      ],
      "stateMutability": "view",
      "type": "function"
    },
    {
      "inputs": [],
      "name": "mailbox",
      "outputs": [
        {
          "internalType": "contract IMailbox",
          "name": "",
          "type": "address"
        }
      ],
      "stateMutability": "view",
      "type": "function"
    },
    {
      "inputs": [],
      "name": "owner",
      "outputs": [
        {
          "internalType": "address",
          "name": "",
          "type": "address"
        }
      ],
      "stateMutability": "view",
      "type": "function"
    },
    {
      "inputs": [],
      "name": "paused",
      "outputs": [
        {
          "internalType": "bool",
          "name": "",
          "type": "bool"
        }
      ],
      "stateMutability": "view",
      "type": "function"
    },
    {
      "inputs": [
        {
          "internalType": "uint32",
          "name": "_destinationDomain",
          "type": "uint32"
        }
      ],
      "name": "quoteGasPayment",
      "outputs": [
        {
          "internalType": "uint256",
          "name": "_gasPayment",
          "type": "uint256"
        }
      ],
      "stateMutability": "view",
      "type": "function"
    },
    {
      "inputs": [],
      "name": "renounceOwnership",
      "outputs": [],
      "stateMutability": "nonpayable",
      "type": "function"
    },
    {
      "inputs": [
        {
          "internalType": "bytes32",
          "name": "role",
          "type": "bytes32"
        },
        {
          "internalType": "address",
          "name": "account",
          "type": "address"
        }
      ],
      "name": "renounceRole",
      "outputs": [],
      "stateMutability": "nonpayable",
      "type": "function"
    },
    {
      "inputs": [
        {
          "internalType": "bytes32",
          "name": "role",
          "type": "bytes32"
        },
        {
          "internalType": "address",
          "name": "account",
          "type": "address"
        }
      ],
      "name": "revokeRole",
      "outputs": [],
      "stateMutability": "nonpayable",
      "type": "function"
    },
    {
      "inputs": [
        {
          "internalType": "uint32",
          "name": "_domain",
          "type": "uint32"
        }
      ],
      "name": "routers",
      "outputs": [
        {
          "internalType": "bytes32",
          "name": "",
          "type": "bytes32"
        }
      ],
      "stateMutability": "view",
      "type": "function"
    },
    {
      "inputs": [
        {
          "components": [
            {
              "internalType": "uint32",
              "name": "domain",
              "type": "uint32"
            },
            {
              "internalType": "uint256",
              "name": "gas",
              "type": "uint256"
            }
          ],
          "internalType": "struct GasRouter.GasRouterConfig[]",
          "name": "gasConfigs",
          "type": "tuple[]"
        }
      ],
      "name": "setDestinationGas",
      "outputs": [],
      "stateMutability": "nonpayable",
      "type": "function"
    },
    {
      "inputs": [
        {
          "internalType": "address",
          "name": "_interchainGasPaymaster",
          "type": "address"
        }
      ],
      "name": "setInterchainGasPaymaster",
      "outputs": [],
      "stateMutability": "nonpayable",
      "type": "function"
    },
    {
      "inputs": [
        {
          "internalType": "address",
          "name": "_module",
          "type": "address"
        }
      ],
      "name": "setInterchainSecurityModule",
      "outputs": [],
      "stateMutability": "nonpayable",
      "type": "function"
    },
    {
      "inputs": [
        {
          "internalType": "address",
          "name": "_mailbox",
          "type": "address"
        }
      ],
      "name": "setMailbox",
      "outputs": [],
      "stateMutability": "nonpayable",
      "type": "function"
    },
    {
      "inputs": [
        {
          "internalType": "bytes4",
          "name": "interfaceId",
          "type": "bytes4"
        }
      ],
      "name": "supportsInterface",
      "outputs": [
        {
          "internalType": "bool",
          "name": "",
          "type": "bool"
        }
      ],
      "stateMutability": "view",
      "type": "function"
    },
    {
      "inputs": [],
      "name": "token",
      "outputs": [
        {
          "internalType": "contract IERC20",
          "name": "",
          "type": "address"
        }
      ],
      "stateMutability": "view",
      "type": "function"
    },
    {
      "inputs": [
        {
          "internalType": "address",
          "name": "newOwner",
          "type": "address"
        }
      ],
      "name": "transferOwnership",
      "outputs": [],
      "stateMutability": "nonpayable",
      "type": "function"
    },
    {
      "inputs": [
        {
          "internalType": "address",
          "name": "",
          "type": "address"
        },
        {
          "internalType": "address",
          "name": "",
          "type": "address"
        }
      ],
      "name": "userDeposits",
      "outputs": [
        {
          "internalType": "uint256",
          "name": "amount",
          "type": "uint256"
        },
        {
          "internalType": "uint256",
          "name": "lockDuration",
          "type": "uint256"
        }
      ],
      "stateMutability": "view",
      "type": "function"
    },
    {
      "inputs": [
        {
          "internalType": "address",
          "name": "_tokenAddress",
          "type": "address"
        },
        {
          "internalType": "uint256",
          "name": "_amount",
          "type": "uint256"
        }
      ],
      "name": "withdraw",
      "outputs": [],
      "stateMutability": "nonpayable",
      "type": "function"
    },
    {
      "inputs": [
        {
          "internalType": "address",
          "name": "_user",
          "type": "address"
        },
        {
          "internalType": "address",
          "name": "_tokenAddress",
          "type": "address"
        },
        {
          "internalType": "uint256",
          "name": "_amount",
          "type": "uint256"
        },
        {
          "internalType": "bytes",
          "name": "signature",
          "type": "bytes"
        }
      ],
      "name": "withdrawWithSignature",
      "outputs": [],
      "stateMutability": "nonpayable",
      "type": "function"
    },
    {
      "stateMutability": "payable",
      "type": "receive"
    }
  ],
  "bytecode": "0x608060405262a8c000610134553480156200001957600080fd5b50604051620060d5380380620060d583398181016040528101906200003f9190620002f5565b6001600081905550600061013260006101000a81548160ff021916908315150217905550620000957fe2b7fb3b832174769106daebcfd6d1970523240dda11281102db9363b83b0dc4336200013260201b60201c565b620000c77f29944e936a0f6e1cbaa227df218d7d6025c2a2785db840e42a3425f24e9e68ac336200013260201b60201c565b3361013360006101000a81548173ffffffffffffffffffffffffffffffffffffffff021916908373ffffffffffffffffffffffffffffffffffffffff1602179055508061013360146101000a81548163ffffffff021916908363ffffffff1602179055505062000327565b6200014482826200014860201b60201c565b5050565b6200015a82826200023b60201b60201c565b62000237576001610100600084815260200190815260200160002060000160008373ffffffffffffffffffffffffffffffffffffffff1673ffffffffffffffffffffffffffffffffffffffff16815260200190815260200160002060006101000a81548160ff021916908315150217905550620001dc620002a760201b60201c565b73ffffffffffffffffffffffffffffffffffffffff168173ffffffffffffffffffffffffffffffffffffffff16837f2f8788117e7eff1d82e926ec794901d17c78024a50270940304540a733656f0d60405160405180910390a45b5050565b6000610100600084815260200190815260200160002060000160008373ffffffffffffffffffffffffffffffffffffffff1673ffffffffffffffffffffffffffffffffffffffff16815260200190815260200160002060009054906101000a900460ff16905092915050565b600033905090565b600080fd5b600063ffffffff82169050919050565b620002cf81620002b4565b8114620002db57600080fd5b50565b600081519050620002ef81620002c4565b92915050565b6000602082840312156200030e576200030d620002af565b5b60006200031e84828501620002de565b91505092915050565b615d9e80620003376000396000f3fe60806040526004361061021e5760003560e01c8063775313a111610123578063d5438eae116100ab578063f2ed8c531161006f578063f2ed8c5314610a7e578063f2fde38b14610abb578063f3c61d6b14610ae4578063f3fef3a314610b0d578063fc0c546a14610b36576104ca565b8063d5438eae146109ad578063d547741f146109d8578063de523cf314610a01578063e9198bf914610a2c578063f1bd6f0a14610a55576104ca565b806392627d9f116100f257806392627d9f146108da578063926d7d7f14610905578063a217fddf14610930578063b1bd64361461095b578063b49c53a714610984576104ca565b8063775313a1146107f85780637923534c146108355780638da5cb5b1461087257806391d148541461089d576104ca565b806337d63c76116101a657806356d5d4751161017557806356d5d475146107395780635c975abb1461076257806360f813ed1461078d578063684cb274146107b6578063715018a6146107e1576104ca565b806337d63c761461067c57806339bb4ad9146106a5578063436d8039146106d0578063440df4f41461070e576104ca565b806319aa1ef4116101ed57806319aa1ef414610587578063248a9ca3146105b05780632ead72f6146105ed5780632f2ff15d1461062a57806336568abe14610653576104ca565b806301ffc9a7146104cf5780630e72cc061461050c5780630efe6a8b146105355780631659dec11461055e576104ca565b366104ca5760006103e990506000341161026d576040517f08c379a000000000000000000000000000000000000000000000000000000000815260040161026490613a06565b60405180910390fd5b600061013560003373ffffffffffffffffffffffffffffffffffffffff1673ffffffffffffffffffffffffffffffffffffffff16815260200190815260200160002060008373ffffffffffffffffffffffffffffffffffffffff1673ffffffffffffffffffffffffffffffffffffffff168152602001908152602001600020905060008160000154036103ab5760405180604001604052803481526020016101345481525061013560003373ffffffffffffffffffffffffffffffffffffffff1673ffffffffffffffffffffffffffffffffffffffff16815260200190815260200160002060008473ffffffffffffffffffffffffffffffffffffffff1673ffffffffffffffffffffffffffffffffffffffff168152602001908152602001600020600082015181600001556020820151816001015590505061047e565b610134548160010160008282546103c29190613a5f565b925050819055506103e0348260000154610b6190919063ffffffff16565b81600001819055508061013560003373ffffffffffffffffffffffffffffffffffffffff1673ffffffffffffffffffffffffffffffffffffffff16815260200190815260200160002060008473ffffffffffffffffffffffffffffffffffffffff1673ffffffffffffffffffffffffffffffffffffffff16815260200190815260200160002060008201548160000155600182015481600101559050505b6104c861013360009054906101000a900473ffffffffffffffffffffffffffffffffffffffff1661013360149054906101000a900463ffffffff16620186a0338634600080610b77565b005b600080fd5b3480156104db57600080fd5b506104f660048036038101906104f19190613aff565b610bba565b6040516105039190613b47565b60405180910390f35b34801561051857600080fd5b50610533600480360381019061052e9190613bc0565b610c34565b005b34801561054157600080fd5b5061055c60048036038101906105579190613c19565b610c48565b005b34801561056a57600080fd5b5061058560048036038101906105809190613c6c565b61108c565b005b34801561059357600080fd5b506105ae60048036038101906105a99190613fd1565b611241565b005b3480156105bc57600080fd5b506105d760048036038101906105d29190614084565b611452565b6040516105e491906140c0565b60405180910390f35b3480156105f957600080fd5b50610614600480360381019061060f9190614117565b611473565b60405161062191906140c0565b60405180910390f35b34801561063657600080fd5b50610651600480360381019061064c9190614144565b61149c565b005b34801561065f57600080fd5b5061067a60048036038101906106759190614144565b6114bd565b005b34801561068857600080fd5b506106a3600480360381019061069e9190614184565b611540565b005b3480156106b157600080fd5b506106ba61192c565b6040516106c79190614266565b60405180910390f35b3480156106dc57600080fd5b506106f760048036038101906106f29190614281565b611952565b6040516107059291906142d0565b60405180910390f35b34801561071a57600080fd5b50610723611984565b60405161073091906143b7565b60405180910390f35b34801561074557600080fd5b50610760600480360381019061075b9190614434565b611995565b005b34801561076e57600080fd5b50610777611aa0565b6040516107849190613b47565b60405180910390f35b34801561079957600080fd5b506107b460048036038101906107af9190614281565b611ab8565b005b3480156107c257600080fd5b506107cb611c0b565b6040516107d891906140c0565b60405180910390f35b3480156107ed57600080fd5b506107f6611c2f565b005b34801561080457600080fd5b5061081f600480360381019061081a9190614117565b611c43565b60405161082c91906144a8565b60405180910390f35b34801561084157600080fd5b5061085c600480360381019061085791906144c3565b611c5b565b604051610869919061468f565b60405180910390f35b34801561087e57600080fd5b50610887611e06565b60405161089491906146c0565b60405180910390f35b3480156108a957600080fd5b506108c460048036038101906108bf9190614144565b611e30565b6040516108d19190613b47565b60405180910390f35b3480156108e657600080fd5b506108ef611e9c565b6040516108fc91906144a8565b60405180910390f35b34801561091157600080fd5b5061091a611ea3565b60405161092791906140c0565b60405180910390f35b34801561093c57600080fd5b50610945611ec7565b60405161095291906140c0565b60405180910390f35b34801561096757600080fd5b50610982600480360381019061097d9190614731565b611ece565b005b34801561099057600080fd5b506109ab60048036038101906109a6919061477e565b611f4d565b005b3480156109b957600080fd5b506109c2611f63565b6040516109cf91906147df565b60405180910390f35b3480156109e457600080fd5b506109ff60048036038101906109fa9190614144565b611f89565b005b348015610a0d57600080fd5b50610a16611faa565b604051610a23919061481b565b60405180910390f35b348015610a3857600080fd5b50610a536004803603810190610a4e91906148e2565b611fd0565b005b348015610a6157600080fd5b50610a7c6004803603810190610a779190613bc0565b612099565b005b348015610a8a57600080fd5b50610aa56004803603810190610aa09190614117565b6120ad565b604051610ab291906144a8565b60405180910390f35b348015610ac757600080fd5b50610ae26004803603810190610add9190613bc0565b612173565b005b348015610af057600080fd5b50610b0b6004803603810190610b069190613bc0565b6121f6565b005b348015610b1957600080fd5b50610b346004803603810190610b2f9190613c6c565b61220a565b005b348015610b4257600080fd5b50610b4b612533565b604051610b589190614984565b60405180910390f35b60008183610b6f9190613a5f565b905092915050565b6000610bac888787878787604051602001610b9695949392919061499f565b604051602081830303815290604052898c61255a565b905098975050505050505050565b60007f7965db0b000000000000000000000000000000000000000000000000000000007bffffffffffffffffffffffffffffffffffffffffffffffffffffffff1916827bffffffffffffffffffffffffffffffffffffffffffffffffffffffff19161480610c2d5750610c2c82612592565b5b9050919050565b610c3c6125fc565b610c458161267a565b50565b610c50612780565b610c586127ca565b804210610c9a576040517f08c379a0000000000000000000000000000000000000000000000000000000008152600401610c9190614a64565b60405180910390fd5b60008211610cdd576040517f08c379a0000000000000000000000000000000000000000000000000000000008152600401610cd490613a06565b60405180910390fd5b600083905060008173ffffffffffffffffffffffffffffffffffffffff1663dd62ed3e33306040518363ffffffff1660e01b8152600401610d1f929190614a84565b602060405180830381865afa158015610d3c573d6000803e3d6000fd5b505050506040513d601f19601f82011682018060405250810190610d609190614ac2565b905083811015610da5576040517f08c379a0000000000000000000000000000000000000000000000000000000008152600401610d9c90614b3b565b60405180910390fd5b8173ffffffffffffffffffffffffffffffffffffffff166323b872dd3330876040518463ffffffff1660e01b8152600401610de293929190614b5b565b6020604051808303816000875af1158015610e01573d6000803e3d6000fd5b505050506040513d601f19601f82011682018060405250810190610e259190614bbe565b50600061013560003373ffffffffffffffffffffffffffffffffffffffff1673ffffffffffffffffffffffffffffffffffffffff16815260200190815260200160002060008773ffffffffffffffffffffffffffffffffffffffff1673ffffffffffffffffffffffffffffffffffffffff16815260200190815260200160002090506000816000015403610f615760405180604001604052808681526020018581525061013560003373ffffffffffffffffffffffffffffffffffffffff1673ffffffffffffffffffffffffffffffffffffffff16815260200190815260200160002060008873ffffffffffffffffffffffffffffffffffffffff1673ffffffffffffffffffffffffffffffffffffffff1681526020019081526020016000206000820151816000015560208201518160010155905050611031565b83816001016000828254610f759190613a5f565b92505081905550610f93858260000154610b6190919063ffffffff16565b81600001819055508061013560003373ffffffffffffffffffffffffffffffffffffffff1673ffffffffffffffffffffffffffffffffffffffff16815260200190815260200160002060008873ffffffffffffffffffffffffffffffffffffffff1673ffffffffffffffffffffffffffffffffffffffff16815260200190815260200160002060008201548160000155600182015481600101559050505b61107b61013360009054906101000a900473ffffffffffffffffffffffffffffffffffffffff1661013360149054906101000a900463ffffffff16620186a0338a8a600080610b77565b50505050611087612819565b505050565b611094612780565b600061013560003373ffffffffffffffffffffffffffffffffffffffff1673ffffffffffffffffffffffffffffffffffffffff16815260200190815260200160002060008473ffffffffffffffffffffffffffffffffffffffff1673ffffffffffffffffffffffffffffffffffffffff1681526020019081526020016000209050600081600001541161115c576040517f08c379a000000000000000000000000000000000000000000000000000000000815260040161115390614c37565b60405180910390fd5b42821161119e576040517f08c379a000000000000000000000000000000000000000000000000000000000815260040161119590614ca3565b60405180910390fd5b8181600101819055508061013560003373ffffffffffffffffffffffffffffffffffffffff1673ffffffffffffffffffffffffffffffffffffffff16815260200190815260200160002060008573ffffffffffffffffffffffffffffffffffffffff1673ffffffffffffffffffffffffffffffffffffffff1681526020019081526020016000206000820154816000015560018201548160010155905050505050565b6112496127ca565b6112737fe2b7fb3b832174769106daebcfd6d1970523240dda11281102db9363b83b0dc433611e30565b6112b2576040517f08c379a00000000000000000000000000000000000000000000000000000000081526004016112a990614d35565b60405180910390fd5b600061013560008673ffffffffffffffffffffffffffffffffffffffff1673ffffffffffffffffffffffffffffffffffffffff16815260200190815260200160002060008773ffffffffffffffffffffffffffffffffffffffff1673ffffffffffffffffffffffffffffffffffffffff16815260200190815260200160002090506000611340878686611c5b565b9050611359838360000154610b6190919063ffffffff16565b82600001819055508161013560003373ffffffffffffffffffffffffffffffffffffffff1673ffffffffffffffffffffffffffffffffffffffff16815260200190815260200160002060008973ffffffffffffffffffffffffffffffffffffffff1673ffffffffffffffffffffffffffffffffffffffff168152602001908152602001600020600082015481600001556001820154816001015590505061144061013360009054906101000a900473ffffffffffffffffffffffffffffffffffffffff1661013360149054906101000a900463ffffffff16620186a0338b88600080610b77565b50505061144b612819565b5050505050565b60006101006000838152602001908152602001600020600101549050919050565b6000806114908363ffffffff16609961282390919063ffffffff16565b91505080915050919050565b6114a582611452565b6114ae8161284a565b6114b8838361285e565b505050565b6114c5612940565b73ffffffffffffffffffffffffffffffffffffffff168173ffffffffffffffffffffffffffffffffffffffff1614611532576040517f08c379a000000000000000000000000000000000000000000000000000000000815260040161152990614dc7565b60405180910390fd5b61153c8282612948565b5050565b611548612780565b6115506127ca565b600061013560008673ffffffffffffffffffffffffffffffffffffffff1673ffffffffffffffffffffffffffffffffffffffff16815260200190815260200160002060008573ffffffffffffffffffffffffffffffffffffffff1673ffffffffffffffffffffffffffffffffffffffff16815260200190815260200160002090506000816000015411611618576040517f08c379a000000000000000000000000000000000000000000000000000000000815260040161160f90614e33565b60405180910390fd5b806001015442101561165f576040517f08c379a000000000000000000000000000000000000000000000000000000000815260040161165690614ec5565b60405180910390fd5b600085858560405160200161167693929190614f4e565b604051602081830303815290604052805190602001209050611699818488612a2b565b6116d8576040517f08c379a00000000000000000000000000000000000000000000000000000000081526004016116cf90614fd7565b60405180910390fd5b600082600001541161171f576040517f08c379a000000000000000000000000000000000000000000000000000000000815260040161171690614e33565b60405180910390fd5b600085905060008173ffffffffffffffffffffffffffffffffffffffff166370a08231306040518263ffffffff1660e01b815260040161175f91906146c0565b602060405180830381865afa15801561177c573d6000803e3d6000fd5b505050506040513d601f19601f820116820180604052508101906117a09190614ac2565b905083600001548110156117e9576040517f08c379a00000000000000000000000000000000000000000000000000000000081526004016117e090615069565b60405180910390fd5b8360000154861115611830576040517f08c379a0000000000000000000000000000000000000000000000000000000008152600401611827906150d5565b60405180910390fd5b611847868560000154612a9f90919063ffffffff16565b84600001819055508173ffffffffffffffffffffffffffffffffffffffff1663a9059cbb89886040518363ffffffff1660e01b815260040161188a9291906150f5565b6020604051808303816000875af11580156118a9573d6000803e3d6000fd5b505050506040513d601f19601f820116820180604052508101906118cd9190614bbe565b5061191961013360009054906101000a900473ffffffffffffffffffffffffffffffffffffffff1661013360149054906101000a900463ffffffff16620186a08b8b60008c6000610b77565b5050505050611926612819565b50505050565b606760009054906101000a900473ffffffffffffffffffffffffffffffffffffffff1681565b610135602052816000526040600020602052806000526040600020600091509150508060000154908060010154905082565b60606119906099612ab5565b905090565b606660009054906101000a900473ffffffffffffffffffffffffffffffffffffffff1673ffffffffffffffffffffffffffffffffffffffff163373ffffffffffffffffffffffffffffffffffffffff1614611a25576040517f08c379a0000000000000000000000000000000000000000000000000000000008152600401611a1c9061516a565b60405180910390fd5b8383611a318282612b7e565b604051806080016040528060438152602001615d266043913990611a8b576040517f08c379a0000000000000000000000000000000000000000000000000000000008152600401611a8291906151ce565b60405180910390fd5b50611a9886868686612b93565b505050505050565b600061013260009054906101000a900460ff16905090565b611ac06125fc565b600082905060008173ffffffffffffffffffffffffffffffffffffffff166370a08231306040518263ffffffff1660e01b8152600401611b0091906146c0565b602060405180830381865afa158015611b1d573d6000803e3d6000fd5b505050506040513d601f19601f82011682018060405250810190611b419190614ac2565b905060008111611b86576040517f08c379a0000000000000000000000000000000000000000000000000000000008152600401611b7d9061523c565b60405180910390fd5b8173ffffffffffffffffffffffffffffffffffffffff1663a9059cbb84836040518363ffffffff1660e01b8152600401611bc19291906150f5565b6020604051808303816000875af1158015611be0573d6000803e3d6000fd5b505050506040513d601f19601f82011682018060405250810190611c049190614bbe565b5050505050565b7f29944e936a0f6e1cbaa227df218d7d6025c2a2785db840e42a3425f24e9e68ac81565b611c376125fc565b611c416000612bf9565b565b60cd6020528060005260406000206000915090505481565b6060600383511115611ca2576040517f08c379a0000000000000000000000000000000000000000000000000000000008152600401611c99906152a8565b60405180910390fd5b6000835167ffffffffffffffff811115611cbf57611cbe613cc2565b5b604051908082528060200260200182016040528015611cf257816020015b6060815260200190600190039081611cdd5790505b50905060005b8451811015611dfa576000808773ffffffffffffffffffffffffffffffffffffffff16878481518110611d2e57611d2d6152c8565b5b6020026020010151604051611d439190615333565b6000604051808303816000865af19150503d8060008114611d80576040519150601f19603f3d011682016040523d82523d6000602084013e611d85565b606091505b5091509150818015611db75750858381518110611da557611da46152c8565b5b60200260200101518180519060200120145b15611de05780848481518110611dd057611dcf6152c8565b5b6020026020010181905250611de5565b600080fd5b50508080611df29061534a565b915050611cf8565b50809150509392505050565b6000603460009054906101000a900473ffffffffffffffffffffffffffffffffffffffff16905090565b6000610100600084815260200190815260200160002060000160008373ffffffffffffffffffffffffffffffffffffffff1673ffffffffffffffffffffffffffffffffffffffff16815260200190815260200160002060009054906101000a900460ff16905092915050565b6101345481565b7fe2b7fb3b832174769106daebcfd6d1970523240dda11281102db9363b83b0dc481565b6000801b81565b611ed66125fc565b60005b82829050811015611f4857611f34838383818110611efa57611ef96152c8565b5b9050604002016000016020810190611f129190614117565b848484818110611f2557611f246152c8565b5b90506040020160200135612cbf565b600181611f419190613a5f565b9050611ed9565b505050565b611f556125fc565b611f5f8282612d25565b5050565b606660009054906101000a900473ffffffffffffffffffffffffffffffffffffffff1681565b611f9282611452565b611f9b8161284a565b611fa58383612948565b505050565b606860009054906101000a900473ffffffffffffffffffffffffffffffffffffffff1681565b611fd86125fc565b818190508484905014612020576040517f08c379a0000000000000000000000000000000000000000000000000000000008152600401612017906153de565b60405180910390fd5b600084849050905060005b818110156120915761207d868683818110612049576120486152c8565b5b905060200201602081019061205e9190614117565b858584818110612071576120706152c8565b5b90506020020135612d25565b60018161208a9190613a5f565b905061202b565b505050505050565b6120a16125fc565b6120aa81612d83565b50565b6000606760009054906101000a900473ffffffffffffffffffffffffffffffffffffffff1673ffffffffffffffffffffffffffffffffffffffff1663a69297938360cd60008663ffffffff1663ffffffff168152602001908152602001600020546040518363ffffffff1660e01b815260040161212b92919061540d565b602060405180830381865afa158015612148573d6000803e3d6000fd5b505050506040513d601f19601f8201168201806040525081019061216c9190614ac2565b9050919050565b61217b6125fc565b600073ffffffffffffffffffffffffffffffffffffffff168173ffffffffffffffffffffffffffffffffffffffff16036121ea576040517f08c379a00000000000000000000000000000000000000000000000000000000081526004016121e1906154a8565b60405180910390fd5b6121f381612bf9565b50565b6121fe6125fc565b61220781612e54565b50565b612212612780565b61221a6127ca565b600061013560003373ffffffffffffffffffffffffffffffffffffffff1673ffffffffffffffffffffffffffffffffffffffff16815260200190815260200160002060008473ffffffffffffffffffffffffffffffffffffffff1673ffffffffffffffffffffffffffffffffffffffff168152602001908152602001600020905060008160000154116122e2576040517f08c379a00000000000000000000000000000000000000000000000000000000081526004016122d990614e33565b60405180910390fd5b8060010154421015612329576040517f08c379a000000000000000000000000000000000000000000000000000000000815260040161232090614ec5565b60405180910390fd5b600083905060008173ffffffffffffffffffffffffffffffffffffffff166370a08231306040518263ffffffff1660e01b815260040161236991906146c0565b602060405180830381865afa158015612386573d6000803e3d6000fd5b505050506040513d601f19601f820116820180604052508101906123aa9190614ac2565b905082600001548110156123f3576040517f08c379a00000000000000000000000000000000000000000000000000000000081526004016123ea90615069565b60405180910390fd5b826000015484111561243a576040517f08c379a0000000000000000000000000000000000000000000000000000000008152600401612431906150d5565b60405180910390fd5b612451848460000154612a9f90919063ffffffff16565b83600001819055508173ffffffffffffffffffffffffffffffffffffffff1663a9059cbb33866040518363ffffffff1660e01b81526004016124949291906150f5565b6020604051808303816000875af11580156124b3573d6000803e3d6000fd5b505050506040513d601f19601f820116820180604052508101906124d79190614bbe565b5061252361013360009054906101000a900473ffffffffffffffffffffffffffffffffffffffff1661013360149054906101000a900463ffffffff16620186a0338960008a6000610b77565b5050505061252f612819565b5050565b61013260019054906101000a900473ffffffffffffffffffffffffffffffffffffffff1681565b6000612588858560cd60008963ffffffff1663ffffffff168152602001908152602001600020548686612f25565b9050949350505050565b60007f01ffc9a7000000000000000000000000000000000000000000000000000000007bffffffffffffffffffffffffffffffffffffffffffffffffffffffff1916827bffffffffffffffffffffffffffffffffffffffffffffffffffffffff1916149050919050565b612604612940565b73ffffffffffffffffffffffffffffffffffffffff16612622611e06565b73ffffffffffffffffffffffffffffffffffffffff1614612678576040517f08c379a000000000000000000000000000000000000000000000000000000000815260040161266f90615514565b60405180910390fd5b565b600073ffffffffffffffffffffffffffffffffffffffff168173ffffffffffffffffffffffffffffffffffffffff1614806126ba57506126b981612fd0565b5b6126f9576040517f08c379a00000000000000000000000000000000000000000000000000000000081526004016126f090615580565b60405180910390fd5b80606860006101000a81548173ffffffffffffffffffffffffffffffffffffffff021916908373ffffffffffffffffffffffffffffffffffffffff1602179055508073ffffffffffffffffffffffffffffffffffffffff167ffec811ed4e60aebdaf7a79cad8a97196bf56e35362f039705598226d30c9d24860405160405180910390a250565b612788611aa0565b156127c8576040517f08c379a00000000000000000000000000000000000000000000000000000000081526004016127bf906155ec565b60405180910390fd5b565b60026000540361280f576040517f08c379a000000000000000000000000000000000000000000000000000000000815260040161280690615658565b60405180910390fd5b6002600081905550565b6001600081905550565b60008061283f8360001b85600001612ff390919063ffffffff16565b915091509250929050565b61285b81612856612940565b613042565b50565b6128688282611e30565b61293c576001610100600084815260200190815260200160002060000160008373ffffffffffffffffffffffffffffffffffffffff1673ffffffffffffffffffffffffffffffffffffffff16815260200190815260200160002060006101000a81548160ff0219169083151502179055506128e1612940565b73ffffffffffffffffffffffffffffffffffffffff168173ffffffffffffffffffffffffffffffffffffffff16837f2f8788117e7eff1d82e926ec794901d17c78024a50270940304540a733656f0d60405160405180910390a45b5050565b600033905090565b6129528282611e30565b15612a27576000610100600084815260200190815260200160002060000160008373ffffffffffffffffffffffffffffffffffffffff1673ffffffffffffffffffffffffffffffffffffffff16815260200190815260200160002060006101000a81548160ff0219169083151502179055506129cc612940565b73ffffffffffffffffffffffffffffffffffffffff168173ffffffffffffffffffffffffffffffffffffffff16837ff6391f5c32d9c69d2a47ea670b442974b53935d1edc7fd64eb21e047a839171b60405160405180910390a45b5050565b60008084604051602001612a3f91906156f0565b6040516020818303038152906040528051906020012090506000612a6382866130c7565b90508373ffffffffffffffffffffffffffffffffffffffff168173ffffffffffffffffffffffffffffffffffffffff1614925050509392505050565b60008183612aad9190615716565b905092915050565b60606000612ac2836130ee565b9050805167ffffffffffffffff811115612adf57612ade613cc2565b5b604051908082528060200260200182016040528015612b0d5781602001602082028036833780820191505090505b50915060005b8151811015612b7757818181518110612b2f57612b2e6152c8565b5b6020026020010151838281518110612b4a57612b496152c8565b5b602002602001019063ffffffff16908163ffffffff16815250508080612b6f9061534a565b915050612b13565b5050919050565b600081612b8a84611473565b14905092915050565b6000806000808585810190612ba89190615788565b93509350935093507f3f434d0241237079abe605e51bb14a5d74c7ef567d2c6930dba299dcc64817878885858585604051612be79594939291906157ef565b60405180910390a15050505050505050565b6000603460009054906101000a900473ffffffffffffffffffffffffffffffffffffffff16905081603460006101000a81548173ffffffffffffffffffffffffffffffffffffffff021916908373ffffffffffffffffffffffffffffffffffffffff1602179055508173ffffffffffffffffffffffffffffffffffffffff168173ffffffffffffffffffffffffffffffffffffffff167f8be0079c531659141344cd1fd0a4f28419497f9722a3daafe3b4186f6b6457e060405160405180910390a35050565b8060cd60008463ffffffff1663ffffffff168152602001908152602001600020819055508163ffffffff167f90563f253ecb04527a6a7ae1a8cbe2bdc6caefb39d5f7b06a973cf5e7f8035a482604051612d1991906144a8565b60405180910390a25050565b612d418263ffffffff168260996131ab9092919063ffffffff16565b8163ffffffff167f97fd51fef1f80c854cbd0150c248e8b2ac4ecdc97cc05e742b5f61c9f4dc645882604051612d7791906140c0565b60405180910390a25050565b80612d8d81612fd0565b612dcc576040517f08c379a0000000000000000000000000000000000000000000000000000000008152600401612dc390615580565b60405180910390fd5b81606760006101000a81548173ffffffffffffffffffffffffffffffffffffffff021916908373ffffffffffffffffffffffffffffffffffffffff1602179055508173ffffffffffffffffffffffffffffffffffffffff167fb87f5a0bface22cde699143559fb99f990ae54eea236995fc54178af91af859f60405160405180910390a25050565b80612e5e81612fd0565b612e9d576040517f08c379a0000000000000000000000000000000000000000000000000000000008152600401612e9490615580565b60405180910390fd5b81606660006101000a81548173ffffffffffffffffffffffffffffffffffffffff021916908373ffffffffffffffffffffffffffffffffffffffff1602179055508173ffffffffffffffffffffffffffffffffffffffff167f7a61e573722ff8b205c8962b59d37e7d30573f368965597a844a94872204ebd760405160405180910390a25050565b6000612f3186866131cc565b9050606760009054906101000a900473ffffffffffffffffffffffffffffffffffffffff1673ffffffffffffffffffffffffffffffffffffffff166311bf2c1884838988876040518663ffffffff1660e01b8152600401612f959493929190615842565b6000604051808303818588803b158015612fae57600080fd5b505af1158015612fc2573d6000803e3d6000fd5b505050505095945050505050565b6000808273ffffffffffffffffffffffffffffffffffffffff163b119050919050565b60008060008460020160008581526020019081526020016000205490506000801b8103613032576130248585613285565b6000801b925092505061303b565b60018192509250505b9250929050565b61304c8282611e30565b6130c357613059816132a5565b6130678360001c60206132d2565b604051602001613078929190615950565b6040516020818303038152906040526040517f08c379a00000000000000000000000000000000000000000000000000000000081526004016130ba91906151ce565b60405180910390fd5b5050565b60008060006130d6858561350e565b915091506130e38161355f565b819250505092915050565b606060006130fe836000016136c5565b90508067ffffffffffffffff81111561311a57613119613cc2565b5b6040519080825280602002602001820160405280156131485781602001602082028036833780820191505090505b50915060005b818110156131a45761316f81856000016000016136da90919063ffffffff16565b60001c838281518110613185576131846152c8565b5b602002602001018181525050808061319c9061534a565b91505061314e565b5050919050565b6131c68260001b82856000016136f19092919063ffffffff16565b50505050565b6000806131d88461372c565b9050606660009054906101000a900473ffffffffffffffffffffffffffffffffffffffff1673ffffffffffffffffffffffffffffffffffffffff1663fa31de018583866040518463ffffffff1660e01b8152600401613239939291906159d4565b6020604051808303816000875af1158015613258573d6000803e3d6000fd5b505050506040513d601f19601f8201168201806040525081019061327c9190615a27565b91505092915050565b600061329d82846000016137b590919063ffffffff16565b905092915050565b60606132cb8273ffffffffffffffffffffffffffffffffffffffff16601460ff166132d2565b9050919050565b6060600060028360026132e59190615a54565b6132ef9190613a5f565b67ffffffffffffffff81111561330857613307613cc2565b5b6040519080825280601f01601f19166020018201604052801561333a5781602001600182028036833780820191505090505b5090507f300000000000000000000000000000000000000000000000000000000000000081600081518110613372576133716152c8565b5b60200101907effffffffffffffffffffffffffffffffffffffffffffffffffffffffffffff1916908160001a9053507f7800000000000000000000000000000000000000000000000000000000000000816001815181106133d6576133d56152c8565b5b60200101907effffffffffffffffffffffffffffffffffffffffffffffffffffffffffffff1916908160001a905350600060018460026134169190615a54565b6134209190613a5f565b90505b60018111156134c0577f3031323334353637383961626364656600000000000000000000000000000000600f861660108110613462576134616152c8565b5b1a60f81b828281518110613479576134786152c8565b5b60200101907effffffffffffffffffffffffffffffffffffffffffffffffffffffffffffff1916908160001a905350600485901c9450806134b990615a96565b9050613423565b5060008414613504576040517f08c379a00000000000000000000000000000000000000000000000000000000081526004016134fb90615b0b565b60405180910390fd5b8091505092915050565b600080604183510361354f5760008060006020860151925060408601519150606086015160001a9050613543878285856137cc565b94509450505050613558565b60006002915091505b9250929050565b6000600481111561357357613572615b2b565b5b81600481111561358657613585615b2b565b5b03156136c257600160048111156135a05761359f615b2b565b5b8160048111156135b3576135b2615b2b565b5b036135f3576040517f08c379a00000000000000000000000000000000000000000000000000000000081526004016135ea90615ba6565b60405180910390fd5b6002600481111561360757613606615b2b565b5b81600481111561361a57613619615b2b565b5b0361365a576040517f08c379a000000000000000000000000000000000000000000000000000000000815260040161365190615c12565b60405180910390fd5b6003600481111561366e5761366d615b2b565b5b81600481111561368157613680615b2b565b5b036136c1576040517f08c379a00000000000000000000000000000000000000000000000000000000081526004016136b890615ca4565b60405180910390fd5b5b50565b60006136d3826000016138ae565b9050919050565b60006136e983600001836138c3565b905092915050565b6000818460020160008581526020019081526020016000208190555061372383856000016138ee90919063ffffffff16565b90509392505050565b600080600061374b8463ffffffff16609961282390919063ffffffff16565b9150915081604051806080016040528060438152602001615d2660439139906137aa576040517f08c379a00000000000000000000000000000000000000000000000000000000081526004016137a191906151ce565b60405180910390fd5b508092505050919050565b60006137c48360000183613905565b905092915050565b6000807f7fffffffffffffffffffffffffffffff5d576e7357a4501ddfe92f46681b20a08360001c11156138075760006003915091506138a5565b60006001878787876040516000815260200160405260405161382c9493929190615ce0565b6020604051602081039080840390855afa15801561384e573d6000803e3d6000fd5b505050602060405103519050600073ffffffffffffffffffffffffffffffffffffffff168173ffffffffffffffffffffffffffffffffffffffff160361389c576000600192509250506138a5565b80600092509250505b94509492505050565b60006138bc82600001613928565b9050919050565b60008260000182815481106138db576138da6152c8565b5b9060005260206000200154905092915050565b60006138fd8360000183613939565b905092915050565b600080836001016000848152602001908152602001600020541415905092915050565b600081600001805490509050919050565b60006139458383613905565b61399e5782600001829080600181540180825580915050600190039060005260206000200160009091909190915055826000018054905083600101600084815260200190815260200160002081905550600190506139a3565b600090505b92915050565b600082825260208201905092915050565b7f416d6f756e74206d7573742062652067726561746572207468616e2030000000600082015250565b60006139f0601d836139a9565b91506139fb826139ba565b602082019050919050565b60006020820190508181036000830152613a1f816139e3565b9050919050565b6000819050919050565b7f4e487b7100000000000000000000000000000000000000000000000000000000600052601160045260246000fd5b6000613a6a82613a26565b9150613a7583613a26565b9250828201905080821115613a8d57613a8c613a30565b5b92915050565b6000604051905090565b600080fd5b600080fd5b60007fffffffff0000000000000000000000000000000000000000000000000000000082169050919050565b613adc81613aa7565b8114613ae757600080fd5b50565b600081359050613af981613ad3565b92915050565b600060208284031215613b1557613b14613a9d565b5b6000613b2384828501613aea565b91505092915050565b60008115159050919050565b613b4181613b2c565b82525050565b6000602082019050613b5c6000830184613b38565b92915050565b600073ffffffffffffffffffffffffffffffffffffffff82169050919050565b6000613b8d82613b62565b9050919050565b613b9d81613b82565b8114613ba857600080fd5b50565b600081359050613bba81613b94565b92915050565b600060208284031215613bd657613bd5613a9d565b5b6000613be484828501613bab565b91505092915050565b613bf681613a26565b8114613c0157600080fd5b50565b600081359050613c1381613bed565b92915050565b600080600060608486031215613c3257613c31613a9d565b5b6000613c4086828701613bab565b9350506020613c5186828701613c04565b9250506040613c6286828701613c04565b9150509250925092565b60008060408385031215613c8357613c82613a9d565b5b6000613c9185828601613bab565b9250506020613ca285828601613c04565b9150509250929050565b600080fd5b6000601f19601f8301169050919050565b7f4e487b7100000000000000000000000000000000000000000000000000000000600052604160045260246000fd5b613cfa82613cb1565b810181811067ffffffffffffffff82111715613d1957613d18613cc2565b5b80604052505050565b6000613d2c613a93565b9050613d388282613cf1565b919050565b600067ffffffffffffffff821115613d5857613d57613cc2565b5b602082029050602081019050919050565b600080fd5b600080fd5b600067ffffffffffffffff821115613d8e57613d8d613cc2565b5b613d9782613cb1565b9050602081019050919050565b82818337600083830152505050565b6000613dc6613dc184613d73565b613d22565b905082815260208101848484011115613de257613de1613d6e565b5b613ded848285613da4565b509392505050565b600082601f830112613e0a57613e09613cac565b5b8135613e1a848260208601613db3565b91505092915050565b6000613e36613e3184613d3d565b613d22565b90508083825260208201905060208402830185811115613e5957613e58613d69565b5b835b81811015613ea057803567ffffffffffffffff811115613e7e57613e7d613cac565b5b808601613e8b8982613df5565b85526020850194505050602081019050613e5b565b5050509392505050565b600082601f830112613ebf57613ebe613cac565b5b8135613ecf848260208601613e23565b91505092915050565b600067ffffffffffffffff821115613ef357613ef2613cc2565b5b602082029050602081019050919050565b6000819050919050565b613f1781613f04565b8114613f2257600080fd5b50565b600081359050613f3481613f0e565b92915050565b6000613f4d613f4884613ed8565b613d22565b90508083825260208201905060208402830185811115613f7057613f6f613d69565b5b835b81811015613f995780613f858882613f25565b845260208401935050602081019050613f72565b5050509392505050565b600082601f830112613fb857613fb7613cac565b5b8135613fc8848260208601613f3a565b91505092915050565b600080600080600060a08688031215613fed57613fec613a9d565b5b6000613ffb88828901613bab565b955050602061400c88828901613bab565b945050604086013567ffffffffffffffff81111561402d5761402c613aa2565b5b61403988828901613eaa565b935050606086013567ffffffffffffffff81111561405a57614059613aa2565b5b61406688828901613fa3565b925050608061407788828901613c04565b9150509295509295909350565b60006020828403121561409a57614099613a9d565b5b60006140a884828501613f25565b91505092915050565b6140ba81613f04565b82525050565b60006020820190506140d560008301846140b1565b92915050565b600063ffffffff82169050919050565b6140f4816140db565b81146140ff57600080fd5b50565b600081359050614111816140eb565b92915050565b60006020828403121561412d5761412c613a9d565b5b600061413b84828501614102565b91505092915050565b6000806040838503121561415b5761415a613a9d565b5b600061416985828601613f25565b925050602061417a85828601613bab565b9150509250929050565b6000806000806080858703121561419e5761419d613a9d565b5b60006141ac87828801613bab565b94505060206141bd87828801613bab565b93505060406141ce87828801613c04565b925050606085013567ffffffffffffffff8111156141ef576141ee613aa2565b5b6141fb87828801613df5565b91505092959194509250565b6000819050919050565b600061422c61422761422284613b62565b614207565b613b62565b9050919050565b600061423e82614211565b9050919050565b600061425082614233565b9050919050565b61426081614245565b82525050565b600060208201905061427b6000830184614257565b92915050565b6000806040838503121561429857614297613a9d565b5b60006142a685828601613bab565b92505060206142b785828601613bab565b9150509250929050565b6142ca81613a26565b82525050565b60006040820190506142e560008301856142c1565b6142f260208301846142c1565b9392505050565b600081519050919050565b600082825260208201905092915050565b6000819050602082019050919050565b61432e816140db565b82525050565b60006143408383614325565b60208301905092915050565b6000602082019050919050565b6000614364826142f9565b61436e8185614304565b935061437983614315565b8060005b838110156143aa5781516143918882614334565b975061439c8361434c565b92505060018101905061437d565b5085935050505092915050565b600060208201905081810360008301526143d18184614359565b905092915050565b600080fd5b60008083601f8401126143f4576143f3613cac565b5b8235905067ffffffffffffffff811115614411576144106143d9565b5b60208301915083600182028301111561442d5761442c613d69565b5b9250929050565b6000806000806060858703121561444e5761444d613a9d565b5b600061445c87828801614102565b945050602061446d87828801613f25565b935050604085013567ffffffffffffffff81111561448e5761448d613aa2565b5b61449a878288016143de565b925092505092959194509250565b60006020820190506144bd60008301846142c1565b92915050565b6000806000606084860312156144dc576144db613a9d565b5b60006144ea86828701613bab565b935050602084013567ffffffffffffffff81111561450b5761450a613aa2565b5b61451786828701613eaa565b925050604084013567ffffffffffffffff81111561453857614537613aa2565b5b61454486828701613fa3565b9150509250925092565b600081519050919050565b600082825260208201905092915050565b6000819050602082019050919050565b600081519050919050565b600082825260208201905092915050565b60005b838110156145b4578082015181840152602081019050614599565b60008484015250505050565b60006145cb8261457a565b6145d58185614585565b93506145e5818560208601614596565b6145ee81613cb1565b840191505092915050565b600061460583836145c0565b905092915050565b6000602082019050919050565b60006146258261454e565b61462f8185614559565b9350836020820285016146418561456a565b8060005b8581101561467d578484038952815161465e85826145f9565b94506146698361460d565b925060208a01995050600181019050614645565b50829750879550505050505092915050565b600060208201905081810360008301526146a9818461461a565b905092915050565b6146ba81613b82565b82525050565b60006020820190506146d560008301846146b1565b92915050565b60008083601f8401126146f1576146f0613cac565b5b8235905067ffffffffffffffff81111561470e5761470d6143d9565b5b60208301915083604082028301111561472a57614729613d69565b5b9250929050565b6000806020838503121561474857614747613a9d565b5b600083013567ffffffffffffffff81111561476657614765613aa2565b5b614772858286016146db565b92509250509250929050565b6000806040838503121561479557614794613a9d565b5b60006147a385828601614102565b92505060206147b485828601613f25565b9150509250929050565b60006147c982614233565b9050919050565b6147d9816147be565b82525050565b60006020820190506147f460008301846147d0565b92915050565b600061480582614233565b9050919050565b614815816147fa565b82525050565b6000602082019050614830600083018461480c565b92915050565b60008083601f84011261484c5761484b613cac565b5b8235905067ffffffffffffffff811115614869576148686143d9565b5b60208301915083602082028301111561488557614884613d69565b5b9250929050565b60008083601f8401126148a2576148a1613cac565b5b8235905067ffffffffffffffff8111156148bf576148be6143d9565b5b6020830191508360208202830111156148db576148da613d69565b5b9250929050565b600080600080604085870312156148fc576148fb613a9d565b5b600085013567ffffffffffffffff81111561491a57614919613aa2565b5b61492687828801614836565b9450945050602085013567ffffffffffffffff81111561494957614948613aa2565b5b6149558782880161488c565b925092505092959194509250565b600061496e82614233565b9050919050565b61497e81614963565b82525050565b60006020820190506149996000830184614975565b92915050565b600060a0820190506149b460008301886146b1565b6149c160208301876146b1565b6149ce60408301866142c1565b6149db60608301856142c1565b6149e860808301846142c1565b9695505050505050565b7f546f6b656e732063616e2774206265206465706f73697465642061667465722060008201527f74686520756e6c6f636b2074696d650000000000000000000000000000000000602082015250565b6000614a4e602f836139a9565b9150614a59826149f2565b604082019050919050565b60006020820190508181036000830152614a7d81614a41565b9050919050565b6000604082019050614a9960008301856146b1565b614aa660208301846146b1565b9392505050565b600081519050614abc81613bed565b92915050565b600060208284031215614ad857614ad7613a9d565b5b6000614ae684828501614aad565b91505092915050565b7f416c6c6f77616e6365206e6f742073756666696369656e740000000000000000600082015250565b6000614b256018836139a9565b9150614b3082614aef565b602082019050919050565b60006020820190508181036000830152614b5481614b18565b9050919050565b6000606082019050614b7060008301866146b1565b614b7d60208301856146b1565b614b8a60408301846142c1565b949350505050565b614b9b81613b2c565b8114614ba657600080fd5b50565b600081519050614bb881614b92565b92915050565b600060208284031215614bd457614bd3613a9d565b5b6000614be284828501614ba9565b91505092915050565b7f4e6f20746f6b656e73206465706f736974656400000000000000000000000000600082015250565b6000614c216013836139a9565b9150614c2c82614beb565b602082019050919050565b60006020820190508181036000830152614c5081614c14565b9050919050565b7f4475726174696f6e2063616e6e6f7420626520696e2074686520706173740000600082015250565b6000614c8d601e836139a9565b9150614c9882614c57565b602082019050919050565b60006020820190508181036000830152614cbc81614c80565b9050919050565b7f43616c6c6572206973206e6f74206170706f76656420666f722074686973206360008201527f616c6c0000000000000000000000000000000000000000000000000000000000602082015250565b6000614d1f6023836139a9565b9150614d2a82614cc3565b604082019050919050565b60006020820190508181036000830152614d4e81614d12565b9050919050565b7f416363657373436f6e74726f6c3a2063616e206f6e6c792072656e6f756e636560008201527f20726f6c657320666f722073656c660000000000000000000000000000000000602082015250565b6000614db1602f836139a9565b9150614dbc82614d55565b604082019050919050565b60006020820190508181036000830152614de081614da4565b9050919050565b7f4e6f20746f6b656e7320746f2077697468647261770000000000000000000000600082015250565b6000614e1d6015836139a9565b9150614e2882614de7565b602082019050919050565b60006020820190508181036000830152614e4c81614e10565b9050919050565b7f546f6b656e732063616e27742062652077697468647261776e206265666f726560008201527f2074686520756e6c6f636b2074696d6500000000000000000000000000000000602082015250565b6000614eaf6030836139a9565b9150614eba82614e53565b604082019050919050565b60006020820190508181036000830152614ede81614ea2565b9050919050565b60008160601b9050919050565b6000614efd82614ee5565b9050919050565b6000614f0f82614ef2565b9050919050565b614f27614f2282613b82565b614f04565b82525050565b6000819050919050565b614f48614f4382613a26565b614f2d565b82525050565b6000614f5a8286614f16565b601482019150614f6a8285614f16565b601482019150614f7a8284614f37565b602082019150819050949350505050565b7f496e76616c6964207369676e6174757265000000000000000000000000000000600082015250565b6000614fc16011836139a9565b9150614fcc82614f8b565b602082019050919050565b60006020820190508181036000830152614ff081614fb4565b9050919050565b7f496e73756666696369656e742062616c616e636520696e20746865207661756c60008201527f7400000000000000000000000000000000000000000000000000000000000000602082015250565b60006150536021836139a9565b915061505e82614ff7565b604082019050919050565b6000602082019050818103600083015261508281615046565b9050919050565b7f496e73756666696369656e742062616c616e636520666f722075736572000000600082015250565b60006150bf601d836139a9565b91506150ca82615089565b602082019050919050565b600060208201905081810360008301526150ee816150b2565b9050919050565b600060408201905061510a60008301856146b1565b61511760208301846142c1565b9392505050565b7f216d61696c626f78000000000000000000000000000000000000000000000000600082015250565b60006151546008836139a9565b915061515f8261511e565b602082019050919050565b6000602082019050818103600083015261518381615147565b9050919050565b600081519050919050565b60006151a08261518a565b6151aa81856139a9565b93506151ba818560208601614596565b6151c381613cb1565b840191505092915050565b600060208201905081810360008301526151e88184615195565b905092915050565b7f4e6f2066756e647320746f20636c656172000000000000000000000000000000600082015250565b60006152266011836139a9565b9150615231826151f0565b602082019050919050565b6000602082019050818103600083015261525581615219565b9050919050565b7f4172726179206c656e677468206265206174206d6f7374203300000000000000600082015250565b60006152926019836139a9565b915061529d8261525c565b602082019050919050565b600060208201905081810360008301526152c181615285565b9050919050565b7f4e487b7100000000000000000000000000000000000000000000000000000000600052603260045260246000fd5b600081905092915050565b600061530d8261457a565b61531781856152f7565b9350615327818560208601614596565b80840191505092915050565b600061533f8284615302565b915081905092915050565b600061535582613a26565b91507fffffffffffffffffffffffffffffffffffffffffffffffffffffffffffffffff820361538757615386613a30565b5b600182019050919050565b7f216c656e67746800000000000000000000000000000000000000000000000000600082015250565b60006153c86007836139a9565b91506153d382615392565b602082019050919050565b600060208201905081810360008301526153f7816153bb565b9050919050565b615407816140db565b82525050565b600060408201905061542260008301856153fe565b61542f60208301846142c1565b9392505050565b7f4f776e61626c653a206e6577206f776e657220697320746865207a65726f206160008201527f6464726573730000000000000000000000000000000000000000000000000000602082015250565b60006154926026836139a9565b915061549d82615436565b604082019050919050565b600060208201905081810360008301526154c181615485565b9050919050565b7f4f776e61626c653a2063616c6c6572206973206e6f7420746865206f776e6572600082015250565b60006154fe6020836139a9565b9150615509826154c8565b602082019050919050565b6000602082019050818103600083015261552d816154f1565b9050919050565b7f21636f6e74726163740000000000000000000000000000000000000000000000600082015250565b600061556a6009836139a9565b915061557582615534565b602082019050919050565b600060208201905081810360008301526155998161555d565b9050919050565b7f5061757361626c653a2070617573656400000000000000000000000000000000600082015250565b60006155d66010836139a9565b91506155e1826155a0565b602082019050919050565b60006020820190508181036000830152615605816155c9565b9050919050565b7f5265656e7472616e637947756172643a207265656e7472616e742063616c6c00600082015250565b6000615642601f836139a9565b915061564d8261560c565b602082019050919050565b6000602082019050818103600083015261567181615635565b9050919050565b600081905092915050565b7f19457468657265756d205369676e6564204d6573736167653a0a333200000000600082015250565b60006156b9601c83615678565b91506156c482615683565b601c82019050919050565b6000819050919050565b6156ea6156e582613f04565b6156cf565b82525050565b60006156fb826156ac565b915061570782846156d9565b60208201915081905092915050565b600061572182613a26565b915061572c83613a26565b925082820390508181111561574457615743613a30565b5b92915050565b600061575582613b62565b9050919050565b6157658161574a565b811461577057600080fd5b50565b6000813590506157828161575c565b92915050565b600080600080608085870312156157a2576157a1613a9d565b5b60006157b087828801615773565b94505060206157c187828801613c04565b93505060406157d287828801613c04565b92505060606157e387828801613c04565b91505092959194509250565b600060a08201905061580460008301886153fe565b61581160208301876146b1565b61581e60408301866142c1565b61582b60608301856142c1565b61583860808301846142c1565b9695505050505050565b600060808201905061585760008301876140b1565b61586460208301866153fe565b61587160408301856142c1565b61587e60608301846146b1565b95945050505050565b7f416363657373436f6e74726f6c3a206163636f756e7420000000000000000000600082015250565b60006158bd601783615678565b91506158c882615887565b601782019050919050565b60006158de8261518a565b6158e88185615678565b93506158f8818560208601614596565b80840191505092915050565b7f206973206d697373696e6720726f6c6520000000000000000000000000000000600082015250565b600061593a601183615678565b915061594582615904565b601182019050919050565b600061595b826158b0565b915061596782856158d3565b91506159728261592d565b915061597e82846158d3565b91508190509392505050565b600082825260208201905092915050565b60006159a68261457a565b6159b0818561598a565b93506159c0818560208601614596565b6159c981613cb1565b840191505092915050565b60006060820190506159e960008301866153fe565b6159f660208301856140b1565b8181036040830152615a08818461599b565b9050949350505050565b600081519050615a2181613f0e565b92915050565b600060208284031215615a3d57615a3c613a9d565b5b6000615a4b84828501615a12565b91505092915050565b6000615a5f82613a26565b9150615a6a83613a26565b9250828202615a7881613a26565b91508282048414831517615a8f57615a8e613a30565b5b5092915050565b6000615aa182613a26565b915060008203615ab457615ab3613a30565b5b600182039050919050565b7f537472696e67733a20686578206c656e67746820696e73756666696369656e74600082015250565b6000615af56020836139a9565b9150615b0082615abf565b602082019050919050565b60006020820190508181036000830152615b2481615ae8565b9050919050565b7f4e487b7100000000000000000000000000000000000000000000000000000000600052602160045260246000fd5b7f45434453413a20696e76616c6964207369676e61747572650000000000000000600082015250565b6000615b906018836139a9565b9150615b9b82615b5a565b602082019050919050565b60006020820190508181036000830152615bbf81615b83565b9050919050565b7f45434453413a20696e76616c6964207369676e6174757265206c656e67746800600082015250565b6000615bfc601f836139a9565b9150615c0782615bc6565b602082019050919050565b60006020820190508181036000830152615c2b81615bef565b9050919050565b7f45434453413a20696e76616c6964207369676e6174757265202773272076616c60008201527f7565000000000000000000000000000000000000000000000000000000000000602082015250565b6000615c8e6022836139a9565b9150615c9982615c32565b604082019050919050565b60006020820190508181036000830152615cbd81615c81565b9050919050565b600060ff82169050919050565b615cda81615cc4565b82525050565b6000608082019050615cf560008301876140b1565b615d026020830186615cd1565b615d0f60408301856140b1565b615d1c60608301846140b1565b9594505050505056fe4e6f20726f7574657220656e726f6c6c656420666f7220646f6d61696e2e2044696420796f7520737065636966792074686520726967687420646f6d61696e2049443fa2646970667358221220f1397bfb2b620cee33a205754cd133ba95a7c09010955151fefc02faa26d919764736f6c63430008140033",
  "linkReferences": {},
  "deployedLinkReferences": {}
}